:020000040800F2
:10000000603400207D020008850200088702000895
:10001000890200088B0200088D0200080000000021
:100020000000000000000000000000008F02000837
:1000300091020008000000009302000881200008DF
:10004000970200089702000897020008970200082C
:100050009702000897020008191B00089702000881
:10006000970200089702000897020008970200080C
:1000700097020008970200089702000897020008FC
:1000800097020008970200089702000897020008EC
:1000900097020008970200089702000897020008DC
:1000A00097020008970200089702000897020008CC
:1000B00097020008970200089702000897020008BC
:1000C00097020008970200089702000897020008AC
:1000D00097020008F1200008970200082D2100086F
:1000E00097020008970200089702000800F002F843
:1000F00000F0B4F80AA090E8000C82448344AAF10E
:100100000107DA4501D100F0A9F8AFF2090EBAE80B
:100110000F0013F0010F18BFFB1A43F0010318473B
:10012000743800009438000010F8013B0A4413F0C2
:10013000030408BF10F8014B1D1108BF10F8015B44
:10014000641E05D010F8016B641E01F8016BF9D133
:10015000002D15D010F8014B03F00C030C2BA1EB74
:1001600004040ABF10F8013BA4EB8314A4EB03249E
:1001700005F1010314F8016B5B1E01F8016BF9D561
:10018000914238BF10F8013BD1D3704700230024BF
:1001900000250026103A28BF78C1FBD8520728BF97
:1001A00030C148BF0B6070476E2900F03B81702959
:1001B00000F07D82662903F05583652903F05283A0
:1001C000672903F04F83612903F04E8303681B0AFC
:1001D00028BF41F08001692900F0E880642900F01F
:1001E000E580752900F0E2806F2900F00B82782904
:1001F00000F04982E92900F0A581E42900F0A281FC
:10020000F52900F09F81EF2900F00882F82900F01D
:1002100048820368DB0928BF41F08001632900F0B0
:100220004987732900F04E87E32900F05987F329A5
:1002300000F05E87002070471FB500F0ABFF0400A0
:100240000020002103F0F8FA401C6060002000212B
:1002500003F0DCFAE0601FBD10B510BD00F06CFFCC
:100260001146FFF7E9FF02F01FF901F045F803B46A
:10027000FFF7F2FF03BC01F08DF80000094880474A
:1002800009480047FEE7FEE7FEE7FEE7FEE7FEE778
:10029000FEE7FEE7FEE7FEE704480549054A064B90
:1002A0007047000091200008ED000008602E00203B
:1002B0006034002060300020603000201CB50C4607
:1002C000064B7B4469460090204600F0C4F8044683
:1002D0000020694600F0D2F820461CBDB70100009E
:1002E00070477047704770B5044685690068C1065D
:1002F00001D5302600E02026C00707D070BDD4E924
:10030000012130469047206A401C20626D1EF6D5C0
:1003100070BD70B5044685690078C00707D170BD0F
:10032000D4E9012120209047206A401C20626D1EE4
:10033000F6D570BD09684A0501D540B27047C905B8
:10034000FCD500B2704709684A0501D5C0B27047B4
:10035000C905FCD580B2704770B50C460546012A28
:1003600005D02878800600D5EA69002302E0012341
:1003700005E05B1C934202D2E05C0028F9D1A86939
:10038000E618C01AA861286A184428622846FFF7B0
:10039000AAFF04E0D5E9012114F8010B9047B4420B
:1003A000F8D32846FFF7B5FF70BD00002DE9F041F6
:1003B0000646002410687529314616A510D0FFF7AF
:1003C000B9FF002802DA404213A507E031688A0726
:1003D00001D512A502E0490704D511A5012401E0C9
:1003E000FFF7B1FF00210A2206F1240709E0B0FB64
:1003F000F2FCB0FBF2F302FB1C00303078541846DC
:10040000491C0028F3D123462A463046BDE8F04176
:1004100000F061BA000000002D0000002B00000079
:100420002000000011680268006A530501D50870B9
:100430000AE0D30501D5088006E0130603D5C217EC
:10044000C1E9000200E008600120704701694A1C10
:1004500002610878704700B58FB0CDE90131002105
:10046000059105497944CDE903101146684600F02D
:1004700029F90FB000BD0000E5FFFFFF0A6802F890
:10048000010B0A60704700002DE9FF5F15468A46A0
:100490000446DFF8AC80F8440027D8E900103E4657
:1004A000CDE9001010E03AF816106A4602A800F0F4
:1004B00023FE411C07D02178890603D5E26939184B
:1004C00091420DD80744761C2078800602D5E06959
:1004D000B84205DDAE42E6DB3AF816000028E2D16C
:1004E000A069C01BA0612046FFF7FDFED8E90010FF
:1004F000CDE90010002017E03AF818106A4602A86B
:1005000000F0FAFDB0F1FF3F81460BD000250DF160
:10051000080B05E0D4E901211BF8050090476D1C8C
:100520004D45F7D308F10100B0428046E4DB206A74
:10053000384420622046FFF7ECFEBDE8FF9F000034
:10054000FE3300002DE9F0418046D21D22F0070263
:100550000025D2E90002F52915A614D0011E72F17A
:10056000000106DA0023D0EB030063EB020211A6C0
:1005700008E0D8F800108B0701D50FA602E0490764
:1005800001D50EA601251146002408F1240704E038
:1005900000F05CF930323A55641C50EA0102F7D1A0
:1005A0002B46324621464046BDE8F04100F093B963
:1005B000000000002D0000002B00000020000000C3
:1005C00030B4002100F1240408E002F00705D2084D
:1005D000303542EA4372DB086554491C52EA030590
:1005E000F3D10468002310A2250708D504F02004E5
:1005F0000C4304D0C46901230CA2641EC46130BC46
:1006000000F069B910B5044621461068FFF79BFE5B
:1006100002462046BDE810400023D1E7D21D22F05B
:100620000701D1E90023CBE7000000003000000003
:10063000F0B40D460188090502D5214C7C4402E046
:100640001F4C7C440E34002100F1240608E002F027
:100650000F071209E75D42EA03721B097754491C30
:1006600052EA0307F3D102780023120704D5702D54
:1006700006D009B1022311342246F0BC00F02BB998
:1006800001231034F8E770B504460D462146106882
:10069000FFF759FE024629462046BDE87040002378
:1006A000C6E7D21D22F00703D3E90023C0E70368A1
:1006B000126843F0200303600823C3610023B7E7F7
:1006C000603200002DE9F05F894604464FF0000AD1
:1006D000DFF874B1FB44C0F820A02046E1688847E9
:1006E000002874D0252806D0D4E901219047206A3B
:1006F000401C2062F1E700265F462046E1688847FB
:100700002028054607DB312D05D2781910F8200C7A
:1007100008B10643F1E7B00701D526F00406C4F896
:100720001CA00027C4F818A02A2D09D0284601F0E3
:100730001CFE38B304EB8708303DC8F8185019E0A8
:1007400059F8041B204604EB87029161E168884751
:10075000012F054618D1E069002820DA26F020068E
:100760001DE0D8F8180000EB800005EB40003038A1
:10077000C8F818002046E1688847054601F0F5FDF5
:100780000028EED1012F0AD02E2D08D12046E16895
:1007900088477F1C0546022F46F02006C4DBA0696F
:1007A000002803DA404246F00106A061F00701D0BC
:1007B00026F010066C2D0BD0682D09D04C2D39D0A9
:1007C0006A2D35D0742D35D07A2D33D016E038E02F
:1007D000E1682F4620468847B842054609D16C2F6C
:1007E00026D04FF48060E1680643204688470546DE
:1007F00004E06C2F1AD04FF4807006430DB3A5F1BE
:100800004100192802D8203546F400664A46294698
:10081000204626604E46FFF7C7FC80B101280BD06A
:10082000F61D26F0070000F1080956E74020E4E72E
:100830008020D8E70020D6E706F104094DE72846D6
:1008400052E7206ABDE8F09FF031000030B5B0F10A
:100850000A024FEA900E71F100034EEA817EB0EB7E
:100860000E0061EB91014FEA101E4EEA017E10EB83
:100870000E0041EB11114FEA102E4EEA016E10EB03
:100880000E0041EB11214FEA104E4EEA014E10EBE3
:100890000E0041EB1141401841F100014FEAD00038
:1008A00040EA41704FEAD10110EB80054FEA810424
:1008B00044EA907444EB01046D1944EB0404521BA8
:1008C000A3414FF0000348BF0A3200D530BD401CA1
:1008D00041F1000130BD2DE9F0470D4699469246A1
:1008E000044600F124080168880604D5E06921F077
:1008F0001001216000E00120A84201DD471B00E05B
:100900000027A1697A1902EB0900081AA061207872
:10091000C00602D42046FFF7E6FC002608E0D4E932
:1009200001211AF806009047206A401C761C2062BC
:100930004E45F4DB2078C0060AD52046FFF7D3FCED
:1009400006E0D4E9012130209047206A401C206253
:10095000381EA7F10107F4DC07E0D4E9012118F8FB
:1009600005009047206A401C2062281EA5F1010561
:10097000F3DC2046FFF7CDFC2078000602D50220EC
:10098000BDE8F0870120FBE770472DE9FF4F0C46DB
:100990001E464FF0FF378BB0D2E90001DDF86080D2
:1009A0000A908A46C1F30A5505B93D46002108461A
:1009B0004FF00000BAF1000F00F4400005DA00EB40
:1009C00080004FF4400101EA50004FEA9059B9F11C
:1009D000010F00DDB9460A9850EA4A000ED044F6ED
:1009E0001050A5F2FF3545432F14B8F1000F1ED06B
:1009F0007542291E1EDDC9F100021CE0B8F1010F8D
:100A00004FF0000001D0302103E0F24305E0215413
:100A1000401CB042FBDB30460022002121540B99E0
:100A2000C1F80880C1E900200FB0BDE8F08FBD1B00
:100A30006D1CDEE74A4600DA694206A800F0EEFBCC
:100A400006AB93E8070003AB83E8070050460A991A
:100A500000F0A7FC8DE80700A0F500501F380090BB
:100A60000398002D09DD42F21F014A46084403A9FC
:100A70000390684600F006FF08E0A0F500504A46E3
:100A80001F3803A90390684600F010FF8DE80700A7
:100A90000004000C03D04FF0FF30410800E0104686
:100AA000B8F1000F03D00022009215461EE0751E1B
:100AB00005D4FFF7CBFE303262556D1EF9D5B34633
:100AC0000122084302D000227F1C04E02078302855
:100AD00001D100227F1E002A099786D01DE0112D2A
:100AE00007DAFFF7B3FE303262556D1C50EA01029F
:100AF000F5D1084302D00098C8B10EE00021681E6D
:100B000005E0235C625C63542254401E491C814210
:100B1000F7DBAB46A81B401E0990002004F80B0031
:100B20000B98099AC0F80880C0E9002B7CE71126D1
:100B30004FF0000859E72DE9F04F88460446D21DD2
:100B400022F0070191B0D1E90001CDE90A0101F0DD
:100B5000F8FB02460B98C00F01D02D2007E020685B
:100B6000810701D52B2002E0202101EAC000032AE1
:100B7000099001D0072A05DB03464146204600F0D4
:100B80000DFB0BE12078800601D5E06900E006202E
:100B9000B8F1650F814606D0B8F1660F18D0B8F1EC
:100BA000670F70D131E00020B9F1110F009001DB27
:100BB000112301E009F101030AAA01A90CA8FFF71A
:100BC000E4FEDDE90C70002609F10105834647E0EB
:100BD00001204B4600904FF000470AAA01A90CA83B
:100BE000FFF7D3FEDDE90DB00C995D46002610B984
:100BF00009F101000D18B9EB050003D4C0F1FF366F
:100C000009F10105A5EB09002BE0B9F1010F01DAAB
:100C10004FF001090020B9F1110F0090484601DDA5
:100C2000112300E003460AAA01A90CA8FFF7ADFEB4
:100C3000DDE90C704D4600268346207800070AD473
:100C4000AB4500DA5D4601A8012D04DD411911F81C
:100C5000011C302907D04F4502DA17F1040F04DADE
:100C6000012082460FE06D1EEEE7002F02DCED1B37
:100C70003E4403E0781CA84200DD7D1CB81B00F157
:100C8000010A4FF000472078000703D4AA4501DB92
:100C90004FF0FF3A0021B7F1004F0DF143088DF8F6
:100CA000431024D002202B23002F01DA7F422D2372
:100CB0000A21021EA0F1010000DC5FB197FBF1FCEC
:100CC00097FBF1F201FB1C7C17460CF1300C08F885
:100CD00001CDEEE7A8F1010003702188090501D5D7
:100CE000452100E06521A0F1010800F8011C0998E8
:100CF0000FA9A1EB0807FF1D00B10120411901EB6D
:100D0000EA70A1693844081A401EA0612078C00624
:100D100002D42046FFF7E7FA099828B1D4E9012167
:100D20009047206A401C20622078C00622D52046C9
:100D3000FFF7D9FA1EE0002E04DBB34502DD01A85F
:100D4000805D00E03020D4E901219047206A401CFA
:100D50002062761CAAF101005FEA000A0AD100F0C5
:100D600019FAC0680168405CD4E901219047206A03
:100D7000401C2062281EA5F10105DCDC07E0D4E957
:100D8000012118F8010B9047206A401C2062381E90
:100D9000A7F10107F3DC2046FFF7BBFA032011B0EF
:100DA00043E600002DE9F04F04460D46D21D22F027
:100DB000070089B0D0E900974846394601F0C1FAEA
:100DC0000246F80F01D02D2307E02068810701D5E6
:100DD0002B2302E0202101EAC0038DF820300BB163
:100DE000012000E00020032A824601D0072A04DB0C
:100DF0002946204600F0D2F93FE12078800601D450
:100E00000D2500E0E569C7F30A560D2D49DA0021EA
:100E10004FEA175B08464FF00000002F00F4400037
:100E200007DA00EB80004FF4400100EBD07001EADC
:100E300060008115012901DD4FF0FF3100224FEAEA
:100E4000850CBCF1180F06D31346ACF118004FF017
:100E50008052C24003E04FF4801323FA0CF30CF1EC
:100E60000C0CBCF1200F04D3ACF1200C09FA0CF0EF
:100E700001E007FA0CF000294FF0004801DD18B935
:100E80000FE00ED140450CD319EB02095F4121B9A7
:100E9000404502D19F4329EA0209BBEB175F00D00E
:100EA000761C2088000502D57B48784402E07A4809
:100EB0007844193808AA302302F80A30037C0AF172
:100EC0000101002E0AF1020A53546A4602DC4FF077
:100ED000300101E04FF031014FF001088DF80010B2
:100EE00002D0A6F2FF3603E059EA470100D06B4E6C
:100EF000002D02DC2178090704D54FF002082E21CD
:100F00008DF80110C44600210BE0C7F303433F01F5
:100F1000C35C491C6D1E02F80830052908F1010860
:100F200001DA002DF1DC00210CE000EB1973491C03
:100F30001B786D1E082902F808304FEA091908F1DC
:100F4000010801DA002DF0DC21688B0602D516E0DD
:100F5000A8F10108E04505DD02EB080313F8013CA8
:100F6000302BF5D0B8F1000F09DD02EB080313F8C0
:100F7000013C2E2B03D1090701D4A8F10108002D53
:100F800005DD3E2102F808106D1E08F10108407CC5
:100F9000002E02F8080008F1010804DA2D2076423C
:100FA00002F8080002E02B2002F808000A214FF4A2
:100FB0007A70864208F101080BDB96FBF0F33033C0
:100FC00002F8083096FBF0F308F1010800FB136605
:100FD00001E0642E0CDB642096FBF0F3303302F862
:100FE000083096FBF0F308F1010800FB136601E0FE
:100FF0000A2E06DB96FBF1F0303002F8080008F10B
:10100000010896FBF1F001FB1060303002F8080097
:10101000A16908F1010808EB050202EB0A00081AB1
:10102000A0612078C00602D42046FFF75CF9216A4F
:1010300008AE01EB0A00206204E0D4E9012116F8B1
:10104000010B9047BAF1010AF7D22078C00602D509
:101050002046FFF748F96E4609E016F8010B3E28D6
:101060000FD0D4E901219047206A401C2062B8F1DA
:101070000108F2D22046FFF74CF909B00320BDE881
:10108000F08F206A2844206203E0D4E90121302057
:1010900090476D1EEBD3F8E73E2A000002FCFFFFED
:1010A00010B5436913B1AFF3008001E0FFF754F9C5
:1010B000012010BD127800F124010A7000224A704C
:1010C0000122EDE711684FF0FF32E9E710B54369FF
:1010D00013B1AFF3008001E0FFF7D6F9012010BD96
:1010E000128800F1240182840022C2840122EDE7EB
:1010F00011684FF0FF32E9E770B516460C46054619
:1011000000F040F8036893F80101012806D0FF2C95
:101110000FD8185D68B101202C7070BDD3F807019D
:101120003246214603F2071303442846BDE87040C7
:1011300018474FF0FF3070BD754600F0E7F8AE4637
:1011400005006946534620F00700854618B020B5D3
:10115000FFF7A2F8BDE820404FF000064FF000076F
:101160004FF000084FF0000B21F00701AC46ACE84F
:10117000C009ACE8C009ACE8C009ACE8C0098D46BC
:101180007047000010B500F005F8001D10BD00BF4D
:10119000A926000000487047202E00202DE9F041CC
:1011A0001F46044603260168072A01F4006004DB99
:1011B00008B116A505E016A503E008B115A500E0E5
:1011C00015A521F010002060A069C01EA0610FB11C
:1011D000401EA0612046FFF786F84FB1D4E90121F7
:1011E00038469047206A401C2062C01C206206E0FE
:1011F000206AFAE7D4E9012115F8010B9047761E21
:10120000F8D22046FFF785F8BDE8F0814E414E0048
:101210006E616E00494E4600696E66002DE9F0472A
:10122000814616468AB0334878440DC88DE80D00D3
:1012300030487844801C03AC0DC884E80D0041F6AA
:101240009B300844372190FBF1F290FBF1F5A5F1BA
:10125000800501FB12041B3C02D56442012000E022
:101260000020DFF890A080460027FA44AAF1BE0AC9
:101270000DE0E00709D03246684607EB47010AEB6C
:10128000810100F013FB8DE8070064107F1C002C27
:10129000EFD1184F7F44AC3F18E0E80714D007EBBC
:1012A00004100DF1180A90E80E008AE80E00C068DC
:1012B000F04201D198190890324606A903A800F01F
:1012C000F5FA03AB83E807006D10641C002DE4D130
:1012D00032466946B8F1000F03A802D000F0D2FAF6
:1012E00001E000F0E3FAC9E90001C9F808200AB0FA
:1012F000BDE8F0875027000010B50446AFF300802A
:101300002046BDE81040FEF7B2BF0000004870471D
:10131000002E00204FF0013C50F8042B51F8043B04
:101320009A4221D1A2EB0C03934313EACC1317D1B9
:1013300050F8042B51F8043B9A4215D1A2EB0C0350
:10134000934313EACC130BD150F8042B51F8043B10
:101350009A4209D1A2EB0C03934313EACC13DBD0DE
:101360004FF00000704700BFD01A01BAB1FA81F106
:1013700001F0180122FA01F0CB40C1F12001DBB2EB
:10138000C0B2C01A2CFA01F3D11A914311EAC31169
:10139000E6D1704701491820ABBEFEE726000200E7
:1013A00070475FEA400C08BF91F0000F4FEA8C23B2
:1013B0004FEAC12243EA51514FEA1C5018BF00F5D1
:1013C000F0404FEA300018BF41F000415FEA6C5C2A
:1013D00000F02980BCF1FF3F08BF40F0804070471B
:1013E000130C06BF12044FF0100C4FF0000C130E3C
:1013F00004BF12020CF1080C130F04BF12010CF110
:10140000040C930F04BF92000CF1020CD30F04BF25
:1014100052000CF1010C11464FF00002A0F11F0028
:10142000A0EB0C00704711F0004F08BF704731F07F
:1014300000413FF4D5AF0B0C06BF09044FF0100C70
:101440004FF0000C0B0E04BF09020CF1080C0B0F3F
:1014500004BF09010CF1040C8B0F04BF89000CF1CF
:10146000020CCB0F04BF49000CF1010CCCF120039E
:10147000A0EB0C0022FA03F302FA0CF241EA03019A
:1014800000F10100704720F07F4C80EA030023F058
:101490007F47ACEB070303F57C5300F0004003F1FA
:1014A000FF032DE980494FEA154B09B44FEA144375
:1014B00025EA0B4E24EA03480FF2042606EB132715
:1014C00049083E785FEA320203FB0667C7F500076A
:1014D00007FB06F64FEA54374FEAD64606F10206F6
:1014E00007FB066CCCF1005C4FEA1C472CEA074C6A
:1014F00007FB06F40CFB06F504EB15464FEA9616BF
:1015000034BF00204FF000404FEAD13706FB07FC04
:101510004FEA1C4C0CFB0BF7D21B03FB0CF761EBE7
:1015200007010CFB0EF7B0EB074072EB17420CFB08
:1015300008F734BFA2EB0742B2EB074261EB174159
:101540004FEA0C444FEA910706FB07FC4FEA1C4C9C
:101550000CFB0BF7B0EBC74072EB573203FB0CF7F9
:1015600034BFA2EBC742B2EBC74261EB57310CFB71
:101570000EF7B0EBC70072EB57720CFB08F734BFE5
:10158000A2EBC702B2EBC70261EB5771039F4FEAB0
:10159000816141EA921104EBCC044FEAD1374FEA62
:1015A000826206FB07FC42EA90124FEA80604FEA33
:1015B0001C4C0CFB0BF7D21B03FB0CF761EB070178
:1015C0000CFB0EF7B0EB074072EB17420CFB08F771
:1015D00034BFA2EB0742B2EB074261EB17414FEA7F
:1015E0008C554FEA910704EB9C2406FB07FC4FEA5D
:1015F0001C4C0CFB0BF7B0EBC74072EB573203FBF4
:101600000CF734BFA2EBC742B2EBC74261EB5731D4
:101610000CFB0EF7B0EBC70072EB57720CFB08F730
:1016200034BFA2EBC702B2EBC70261EB577115EBF7
:101630004C254FEA816141EA92114FEA82624FEAFA
:10164000D13742EA901206FB07FC44F100044FEA4E
:1016500080604FEA1C4C0CFB0BF7D21B03FB0CF712
:1016600061EB07010CFB0EF7B0EB074072EB174282
:101670000CFB08F734BFA2EB0742B2EB074261EB69
:10168000174115EB1C154FEA813141EA92414FEAAF
:10169000823242EA90424FEA80304FEA0C7644F1BF
:1016A000000448EA03434EEA0B484FF0000EB2EB49
:1016B000080C71EB030724BF624639464EEB0E0E51
:1016C0004FF0000B0018524149414BEB0B0BB2EBB2
:1016D000080C71EB03077BF1000B24BF624639460F
:1016E0004EEB0E0E4FF0000B0018524149414BEBF0
:1016F0000B0BB2EB080C71EB03077BF1000B24BF63
:10170000624639464EEB0E0E51EA020718BF46F00C
:10171000010616EB0E7655F1000254F1000103D5D7
:10172000BDE88901BDE80088BDE88901BDE8004841
:10173000B619524141EB0101A3F1010370478080CA
:101740007F7E7D7C7B7A797877767675747372711B
:1017500071706F6E6E6D6C6C6B6A6A6968686766D3
:1017600066656464636362616160605F5F5E5E5D65
:101770005D5C5C5B5B5A5A595958585757565655D9
:1017800055555454535352525251515050504F4F3B
:101790004F4E4E4D4D4D4C4C4C4B4B4B4A4A4A498B
:1017A00049494848484747474746464645454544CE
:1017B0004444444343434342424242414141002B5B
:1017C00026D4770021D01CB54FEA370703B44FF079
:1017D00010004FF010014FF000000FBCBDE81040AA
:1017E0000BF1010BBBF1010F08BF5FEA170722BF26
:1017F00012F1010211F101014FF0004143F1000328
:1018000000F0004043EA00007047F9D35708DAE7D8
:1018100046EA064613F1400F4FEA16461FDD13F164
:10182000200FDFBF16430A46002120335B42C8D099
:10183000C3F1200746EA064602FA07F74FEA1646C2
:1018400046EA0706C3F1200722FA03F201FA07F776
:1018500021FA03F14FF0000342EA0702B1E746EA3A
:10186000020646EA06464FEA164646EA0106BCBFAD
:1018700046EA0646360C4FF000034FF000024FF0E8
:1018800000019EE72DE9C048934630B491E8380046
:1018900007C831EA400C48BF34EA430C03D5FFF7D0
:1018A000F2FDFFF78CFFF0BCBDE800882DE9C048D1
:1018B000934630B491E8380007C810F0804F08BF55
:1018C00013F0804F03D100F005F8FFF778FFF0BC6C
:1018D000BDE8008820F07F4780EA030023F07F4CBA
:1018E00007EB0C03A3F57C5300F00040A3F1FE03CB
:1018F00092F0000F00F0B38095F0000F00F07780B9
:101900002DE901494FEA11404FEA144621EA004807
:1019100000FB06FC24EA064708FB06F607FB08F86E
:1019200000FB07F718EB06484CEB164C4FEA124B3E
:1019300018EB07484FEA15464CEB174022EA0B4ECE
:101940000BFB06FC25EA06470EFB06F607FB0EFE20
:101950000BFB07F71EEB064E4CEB164C4FF0000648
:101960001EEB074E4CEB174B18EB0B0840F1000039
:1019700018EB0E0B58EB000840F100008F1A4FF0E7
:1019800000013CBFC943661B14BFB5EB040C00212A
:101990003CBFC943F61B4FEA17444EEA8E0E27EAB6
:1019A00004454FEA1C4704FB07622CEA074C05FB81
:1019B00007F70CFB05F604FB0CFC16EB074642EBA5
:1019C000174216EB0C4642EB1C421BEB060658EB8B
:1019D0000202414146EA9E0601D5BDE80189B619D9
:1019E000524141EB0101A3F10103BDE801894FEA36
:1019F00014454FEA114724EA054621EA074C05FB46
:101A000007F406FB07F70CFB06F105FB0CFC11EBDA
:101A1000074144EB17444FEA124711EB0C4144EBEA
:101A20001C4422EA074C05FB07F206FB07F70CFBF8
:101A300006F605FB0CFC16EB074642EB174216EBCD
:101A40000C4642EB1C456A1854F1000148BF704730
:101A5000B619524141EB0101A3F10103704795F022
:101A6000000F37D04FEA11424FEA144721EA0246ED
:101A700024EA074C02FB07F106FB07F70CFB06F410
:101A800002FB0CFC14EB074441EB17414FEA1547EE
:101A900014EB0C4441EB1C4125EA074C02FB07F513
:101AA00006FB07F70CFB06F602FB0CFC16EB0746E1
:101AB00045EB174516EB0C4645EB1C42121951F14C
:101AC000000148BF7047B619524141EB0101A3F133
:101AD000010370474FEA14454FEA114724EA0546CF
:101AE00021EA074C05FB07F106FB07F70CFB06F2A2
:101AF0004FF0000605FB0CFC12EB074241EB1741CF
:101B000012EB0C4251EB1C4148BF7047921841EB5D
:101B10000101A3F10103704710B5012000F02AF87C
:101B2000E8B10F48007868B920200E4948611020BC
:101B3000486101200A49087010200A4908612020E4
:101B4000086109E006480078012805D11020054900
:101B50004861022002490870012000F005F810BD1C
:101B60007920002000100140014908607047000002
:101B700014040140014600200022074B1B6803EAC1
:101B80000102054B14331B680B4013B10AB101204D
:101B900000E0002070470000000401402DE9F04102
:101BA000024600250026002000230024002791F88B
:101BB00003C00CF00F0591F803C00CF0100CBCF141
:101BC000000F03D091F802C04CEA050591F800C05F
:101BD000BCF1000F31D0146800202BE04FF0010C55
:101BE0000CFA00F3B1F800C00CEA03069E4220D1C3
:101BF00083004FF00F0C0CFA03F7BC4305FA03FC0B
:101C00004CEA040491F803C0BCF1280F06D14FF050
:101C1000010C0CFA00FCC2F814C00AE091F803C0F1
:101C2000BCF1480F05D14FF0010C0CFA00FCC2F8D2
:101C300010C0401C0828D1D31460B1F800C0BCF11A
:101C4000FF0F34DD546800202EE000F1080C4FF047
:101C5000010808FA0CF3B1F800C00CEA03069E4232
:101C600021D183004FF00F0C0CFA03F7BC4305FAA7
:101C700003FC4CEA040491F803C0BCF1280F05D121
:101C800000F1080C08FA0CF8C2F8148091F803C0AF
:101C9000BCF1480F07D100F1080C4FF0010808FA19
:101CA0000CF8C2F81080401C0828CED35460BDE860
:101CB000F0810000F0B50A46002300240021002531
:101CC00000F00046B6F1004F02D11D4EF16901E06F
:101CD0001B4E7168C0F3034583B200F44016B6F59D
:101CE000401F08D121F07061154E766826F07066AD
:101CF000134F7E6012E000F48016B6F5801F06D107
:101D0000032606FA05F4A14341F0706106E0460D92
:101D1000360103FA06F6B14341F0706122B1460D77
:101D2000360103FA06F6314300F00046B6F1004FE3
:101D300002D1034EF16101E0014E7160F0BD00007F
:101D4000000001400246002093680B400BB10120C7
:101D500000E000207047416170470161704700005A
:101D600070B5002100230F22C47804B3154C2468F9
:101D700004F4E064C4F5E064210AC1F10403CA403C
:101D8000447804FA03F184781440214309010E4C8D
:101D90000678A155047804F01F050124AC400578AD
:101DA0006D11AD0005F1E025C5F8004109E00478AA
:101DB00004F01F050124AC40044D0678761145F867
:101DC000264070BD0CED00E000E400E080E100E0A2
:101DD000024A0A400243024B1A60704780FFFF1F0D
:101DE00008ED00E029B1064AD2690243044BDA61EA
:101DF00004E0034AD2698243014BDA617047000074
:101E00000010024029B1064A92690243044B9A61CC
:101E100004E0034A92698243014B9A6170470000D3
:101E20000010024030B500210022002400232D4D77
:101E30006D6805F00C0121B1042905D0082923D1D2
:101E400005E0294D056022E0274D05601FE0254D86
:101E50006D6805F47012234D6D6805F48034022519
:101E600005EB92421CB9214D554305600BE01D4D19
:101E70006D6805F400351DB11C4D5543056002E049
:101E8000194D5543056002E0174D056000BF00BFC6
:101E9000144D6D6805F0F0010909154D6B5C05687E
:101EA000DD4045600F4D6D6805F4E061090A104D95
:101EB0006B5C4568DD4085600A4D6D6805F46051D6
:101EC000C90A0B4D6B5C4568DD40C560054D6D680A
:101ED00005F44041890B074D6B5CC568B5FBF3F514
:101EE000056130BD0010024000127A0000093D007B
:101EF000000000201000002021B1028842F40052AE
:101F0000028004E002884DF6FF731A400280704799
:101F100021B1028842F04002028004E002884FF6BC
:101F2000BF731A40028070470246002013890B409D
:101F30000BB1012000E000207047014688897047FE
:101F40008181704710B50022028802F441520B884B
:101F50004C8823438C882343CC8823430C89234318
:101F60004C8923438C892343CC8923431A43028021
:101F7000838B4FF2FF74234083830B8A038210BD4F
:101F800021B1828842F00402828004E082884FF608
:101F9000FB731A408280704710B500F001F810BD45
:101FA0000CB50020019000903348006840F4803068
:101FB0003149086000BF3048006800F400300090EC
:101FC0000198401C0190009818B90198B0F5A06FD5
:101FD000F1D12948006800F4003010B101200090D0
:101FE00001E0002000900098012843D123480068B8
:101FF00040F01000214908600846006820F0030006
:1020000008600846006840F0020008601A4840680E
:10201000194948600846406848600846406840F4EE
:10202000806048600846406820F47C10486008469C
:10203000406840F4E81048600846006840F080704E
:10204000086000BF0C48006800F000700028F9D05C
:102050000948406820F00300074948600846406886
:1020600040F00200486000BF0348406800F00C00E8
:102070000828F9D10CBD00000010024000200240E9
:1020800002480068401C0149086070472800002091
:1020900010B51348006840F0010011490860084677
:1020A0004068104908400E494860084600680E49DB
:1020B00008400B4908600846006820F4802008604A
:1020C0000846406820F4FE0048604FF41F00886016
:1020D000FFF762FF4FF000600449086010BD000088
:1020E000001002400000FFF8FFFFF6FE08ED00E0E0
:1020F00010B540F225510A4800F05EF878B1094861
:10210000007838B1064800F013F9C4B206480168F7
:102110002046884740F22551014800F025F810BDBF
:10212000003801405C0000205400002010B540F24F
:1021300025510A4800F040F878B10948407838B194
:10214000064800F0F5F8C4B20648416820468847C2
:1021500040F22551014800F007F810BD004800404A
:102160005C0000205400002010B50022002340F63F
:102170006A14A14200D100BF0A1201249440A3B204
:10218000DC43048010BD21B1828942F40052828177
:1021900004E082894DF6FF731A408281704702463F
:1021A0000020B1F5007F00D100BF13880B400BB1B8
:1021B000012000E00020704770B502460024002393
:1021C0000025002040F66A16B14200D100BFC1F3DD
:1021D000421501F01F03012606FA03F3012D02D177
:1021E0009689334006E0022D02D1168A334001E081
:1021F000968A33400C12012606FA04F416883440FD
:1022000013B10CB1012000E0002070BDF0B5034611
:10221000002400260025002040F66A17B94200D1AC
:1022200000BF1846C1F3421401F01F06012707FA48
:1022300006F5012C01D10C3004E0022C01D1103044
:1022400000E014301AB107682F43076002E0076806
:10225000AF430760F0BD00002DE9F04786B00546AA
:102260000E460024A24600BFA1460027B08900B157
:1022700000BF2F462C8A4CF6FF700440F0880443C0
:102280002C82AC894EF6F3100440B08831890843A3
:10229000718908430443AC81AC8A4FF6FF40044087
:1022A000B0890443AC8201A8FFF7BCFD1F488742F8
:1022B00002D1DDF810A001E0DDF80CA0A88900F43F
:1022C000004040B10AEBCA0000EB0A103168490037
:1022D000B0FBF1F807E00AEBCA0000EB0A10316826
:1022E0008900B0FBF1F86420B8FBF0F0040120098C
:1022F000642101FB1089A88900F4004040B132201C
:1023000000EBC900B0FBF1F000F00700044308E067
:10231000322000EB09106421B0FBF1F000F00F0057
:1023200004432C8106B0BDE8F0870000003801406E
:1023300001468888C0F308007047C1F30802828014
:102340007047490050EAC12018BF04204A0D18BF49
:1023500040F0010040F2FF72B2EB515F08BF40F065
:102360000200012808BF0520704730380A2801D232
:10237000012070470020704708B501211020FFF7A9
:1023800041FD03208DF8020048208DF803004FF432
:102390006040ADF8000069461548FFF7FFFB0020DC
:1023A00022E0144951F8201000EB8002124B43F850
:1023B0002210124931F8101000EB800203EB820268
:1023C0009180012100EB800203EB820291710021D8
:1023D00000EB800203EB8202D17100EB800203EB81
:1023E00082021172411CC8B20328DADB08BD00006A
:1023F0000010014030000020382100206C38000817
:1024000070B504460848007808B901F027F8074875
:10241000056806E005480068854202D00348056863
:10242000641E002CF6D170BD2C0000202800002076
:102430000548008805490988884202D10248008879
:1024400070470020FCE700005E00002060000020D4
:1024500001480078704700006600002002480078BC
:1024600000F010007047000067000020024B0ECB08
:1024700080E80E00704700007421002002480078B8
:1024800000F02000704700006700002000487047FF
:102490008021002000487047742300200148006814
:1024A000704700002800002088B000F0D7FF4FF4EC
:1024B000FC634FF6FF720021084600F009FBFFF7AE
:1024C0005BFF4FF4E131012001F010F84E4901208B
:1024D00001F0A2F800BF00BFFFF7E0FF054611E0E2
:1024E00000F082F9FFF7DAFF0446234647A20021F5
:1024F000084600F051FB46A20121002000F04CFBF1
:1025000000F07CFCFFF7CAFF05F10A018842E7D919
:1025100000F06AF942A20021084600F03DFB00F0FD
:102520006DFC00F061F943A20021084600F034FB85
:1025300000F064FC00F058F965E0FFF7AFFFA84237
:1025400061D0FFF7ABFF0546002000F089F868B9BD
:102550003DA103C9CDE903013DA103C9CDE90101B5
:10256000052201A903A800F0B7F800BF012000F080
:1025700077F820B944F62061481000F08DF8022069
:1025800000F06EF810B90F2000F07CF800240DE088
:10259000FFF780FF065DFFF779FF075DE1B23B467D
:1025A0002DA20020009600F0F7FA641CFFF740FF10
:1025B000A042EDDCFFF74CFF0446234613A20621A0
:1025C000002000F0E9FAFFF759FF044623460FA266
:1025D0000721002000F0E0FAFFF740FF0446234601
:1025E0000AA20821002000F0D7FA05A8FFF73EFF55
:1025F0000698009018A209210020059B00F0CCFA53
:1026000000F0FCFB00BF98E73D36000825640000A1
:102610004372797374616C2042726F6B656E000057
:102620004F563737323520696E6974206661696CA0
:10263000000000004F563737323520696E6974202C
:10264000646F6E65000000000102030405000000D5
:10265000060708090000000025642025640000002A
:1026600010B5044604EB8402054B03EB820291880B
:1026700004EB840253F82200FFF764FB10BD000056
:102680003821002070B50446B0252819C5B2294666
:10269000012001F0A5F870BD70B504460D46A021DB
:1026A000012001F09DF8C4F3C711012001F098F852
:1026B00004F07F01012001F093F8C5F3C711012058
:1026C00001F08EF805F07F01012001F089F8A121C9
:1026D000012001F085F870BD2DE9F04105460E4658
:1026E0001746F021012001F07BF800240AE0285D64
:1026F00040F04001012001F073F8315D012001F04C
:102700006FF8641CBC42F2DBF121012001F068F893
:10271000BDE8F08130B5024602EB82032C4C04EB9D
:1027200043035B5C02EB82042A4D05EB4404645CCA
:10273000A3421FD102EB8203274C04EB830333F83F
:10274000113002EB8204254D05EB840434F811406E
:10275000A3420FD102EB8203214C04EB830333F835
:10276000113002EB82041F4D05EB840434F8114054
:10277000A34201D0012300E00023184602EB8203AC
:10278000144C04EB43035B5C02EB8204104D05EB3D
:102790004404635402EB8203104C04EB830333F8CC
:1027A000113002EB82040C4D05EB840424F8113047
:1027B00002EB82030B4C04EB830333F8113002EB82
:1027C0008204074D05EB840424F8113030BD00006D
:1027D000302600206825002088280020F8260020C8
:1027E000A82B0020182A002010B5002404E0204661
:1027F00000F006F8601CC4B20A2CF8DB10BD000023
:1028000010B5014600201AE0202200EB80030D4C99
:1028100004EB43035A540C4A128800EB80030B4C20
:1028200004EB830323F81120094A128800EB80038C
:10283000084C04EB830323F81120421CD0B2142867
:10284000E2DB10BD682500206A100020F826002079
:1028500068100020182A002010B5012000F0AEFDFD
:102860000A20FFF7CDFD112000F0A8FD7820FFF72A
:10287000C7FDB12000F0A2FD012000F0C7FD2C2013
:1028800000F0C4FD2D2000F0C1FDB22000F096FD47
:10289000012000F0BBFD2C2000F0B8FD2D2000F041
:1028A000B5FDB32000F08AFD012000F0AFFD2C2023
:1028B00000F0ACFD2D2000F0A9FD012000F0A6FDE8
:1028C0002C2000F0A3FD2D2000F0A0FDB42000F08E
:1028D00075FD072000F09AFDC02000F06FFDA220DA
:1028E00000F094FD022000F091FD842000F08EFDA8
:1028F000C12000F063FDC52000F088FDC22000F07B
:102900005DFD0A2000F082FD002000F07FFDC32065
:1029100000F054FD8A2000F079FD2A2000F076FDB9
:10292000C42000F04BFD8A2000F070FDEE2000F086
:102930006DFDC52000F042FD0E2000F067FD362041
:1029400000F03CFDC82000F061FDE02000F036FD05
:10295000022000F05BFD1C2000F058FD072000F075
:1029600055FD122000F052FD372000F04FFD3220BF
:1029700000F04CFD292000F049FD2D2000F046FD1F
:10298000292000F043FD252000F040FD2B2000F021
:102990003DFD392000F03AFD002000F037FD012018
:1029A00000F034FD032000F031FD102000F02EFD7A
:1029B000E12000F003FD032000F028FD1D2000F0C1
:1029C00025FD072000F022FD062000F01FFD2E202F
:1029D00000F01CFD2C2000F019FD292000F016FD50
:1029E0002D2000F013FD2E2000F010FD2E2000F011
:1029F0000DFD372000F00AFD3F2000F007FD00200C
:102A000000F004FD002000F001FD022000F0FEFCBB
:102A1000102000F0FBFC2A2000F0D0FC002000F089
:102A2000F5FC002000F0F2FC002000F0EFFC7F201D
:102A300000F0ECFC2B2000F0C1FC002000F0E6FCD4
:102A4000002000F0E3FC002000F0E0FC9F2000F0FC
:102A5000DDFC3A2000F0B2FC052000F0D7FC292074
:102A600000F0ACFC0A20FFF7CBFC10BD70B50446AB
:102A70002A2000F0A3FC002000F0C8FC022000F097
:102A8000C5FC002000F0C2FC812000F0BFFC2B2020
:102A900000F094FC002000F0B9FC012000F0B6FC2E
:102AA000002000F0B3FCA02000F0B0FC2C2000F0CF
:102AB00085FC002507E0201200F0A8FCE0B200F041
:102AC000A5FC681C85B2B5F5A04FF4DB70BD000015
:102AD0002DE9F04780460E461746994600F02AF940
:102AE00000F0D6F8FFF7B8FE2C2000F067FC304667
:102AF00000F0E0F8384600F017F9484600F00EF90B
:102B00003046FFF7B3FF1D4880F80080002431E015
:102B100000252BE0202004EB8401194A02EB41013F
:102B2000485504EB8400174901EB800020F815702C
:102B300004EB8400144901EB800020F8156020208C
:102B400004EB8401114A02EB4101485504EB840077
:102B50000F4901EB800020F8157004EB84000D494B
:102B600001EB800020F81560681CC5B20A2DD1DB8E
:102B7000601CC4B2142CCBDBBDE8F0876E100020C3
:102B800068250020F8260020182A00203026002082
:102B900088280020A82B00200FB4F0B5C1B005464E
:102BA0000E460027002449A8009001A8009A4899E1
:102BB000FDF784FB0020009001AC55E020785B28F5
:102BC00006D114F8010C5C2802D00127641C4AE0ED
:102BD00020785D2806D114F8010C5C2802D000276B
:102BE000641C40E020780D2802D020780A2801D10A
:102BF000641C38E0142D01DC0A2E01DD641C33E076
:102C000020785C2806D160785B2802D060785D2847
:102C100000D1641C14F8010B05EB8501164A02EB88
:102C20004101885517B11548008801E01448008813
:102C300005EB8501134A02EB810121F816001248C9
:102C4000008805EB8501114A02EB810121F816008D
:102C5000142D03DB0025701CC6B201E0681CC5B250
:102C60000A2E00DB002600BF20780028A6D141B044
:102C7000F0BC5DF814FB0000682500206C100020FB
:102C80006A100020F826002068100020182A002072
:102C900010B504210648FFF75EF86420FFF7B0FB8B
:102CA00004210348FFF759F86420FFF7A9FB10BD82
:102CB00000080140014908807047000068100020AA
:102CC0002DE9F04104460D4616461F462A2000F025
:102CD00075FB002000F09AFBA11CC8B200F096FB27
:102CE000002000F093FBB11CC8B200F08FFB2B203A
:102CF00000F064FB002000F089FB691CC8B200F002
:102D000085FB002000F082FB791CC8B200F07EFB3E
:102D10002C2000F053FBBDE8F08100000149088041
:102D2000704700006C1000200149088070470000C7
:102D30006A10002000B587B001210420FFF762F877
:102D400001210846FFF75EF801210803FFF75AF852
:102D50000C20ADF8040010208DF8070001208DF83C
:102D6000060001A92348FEF719FFA020ADF80400D2
:102D700018208DF8070003208DF8060001A91D48D2
:102D8000FEF70CFF1020ADF804008DF807000320BB
:102D90008DF8060001A91748FEF700FF0020ADF8E6
:102DA00008004FF48270ADF80A000020ADF80C0066
:102DB0000220ADF80E000120ADF810004002ADF881
:102DC00012000820ADF814000020ADF8160002A98A
:102DD0000948FFF7B7F801210748FFF799F80021E4
:102DE0000548FFF789F800210348FFF7C9F807B045
:102DF00000BD000000080140003001402DE9F05FF7
:102E00000026FE48007808B9BDE8F09F002468E07D
:102E1000002562E005EB8500F94901EB800030F800
:102E2000140000F4004008B1402000E0002005EB51
:102E30008501F34A02EB810131F8141001F480613D
:102E400009B1202100E00021084305EB8501EC4A8F
:102E500002EB810111F8141001F0100109B11021E9
:102E600000E00021084305EB8501E64A02EB410141
:102E7000085505EB8500E44901EB800030F81400AB
:102E800000F4004008B1042000E0002005EB8501BB
:102E9000DC4A02EB4101095D084305EB8501DA4A92
:102EA00002EB810131F8141001F4806109B10221B3
:102EB00000E00021084305EB8501D34A02EB8101C4
:102EC00011F81410C1F30011084305EB8501CD4A38
:102ED00002EB41010855681C05B2102D9ADB601CFD
:102EE00004B20A2C94DBC948007830B101287CD0A8
:102EF00002287BD003287AD1BEE1002488E0002597
:102F000081E0E1B2E8B2FFF705FC002879D00126A4
:102F100005E0A819102800DB0BE0701C06B2A81908
:102F2000102806DAE1B2AA19D0B2FFF7F3FB0028A5
:102F3000EFD100BF04F1010C4FF0010ECEEB0C1CE1
:102F40000CF0FF0305EB060CCEEBCC0C0CF0FF02F3
:102F50004FEA047C4FEA1C614FEAC56C4FEA1C60E3
:102F6000FFF7AEFEA2464FF0000844E0002736E02F
:102F70003846F91707EB517105EBE1010FFA81F9BA
:102F8000F91707EB5171C910A7EBC102802111415C
:102F900009EB89029E4B03EB420212F80A2008EB70
:102FA00002129C4B9A5C114039B109EB8901944A99
:102FB00002EB810131F81A1006E009EB8901924A0F
:102FC00002EB810131F81A108B464FEA2B2000F0FA
:102FD0001DFA0BF0FF0000F019FA781C07B2B7EBEE
:102FE000C60FC5DB08F1010003E015E0A3E0D2E164
:102FF00007E00FFA80F8B8F1100FB7DB701E284415
:1030000005B2681C05B2102DFFF67BAF601C04B240
:103010000A2CFFF674AFBEE1002588E0072481E0AA
:10302000E1B2E8B2FFF776FB002879D0012604E090
:10303000A01B00D50AE0701C06B2A01B06D4A21B80
:10304000D1B2E8B2FFF766FB0028F1D100BF05F16D
:10305000010C4FF0010ECEEBCC0C0CF0FF03C4F1D1
:10306000070CB444CEEB0C1C0CF0FF024FEAC56C0D
:103070004FEA1C61C4F1070C4FEA0C7C4FEA1C605C
:10308000FFF71EFEA946002745E04FF000083DE08F
:1030900040464FEAE87108EB1171A4EB21110FFAD9
:1030A00081FA4FEAE87108EB11710911A8EB0112DE
:1030B00009EB8901564B03EB410111F80A1010236B
:1030C00003EB0111891A491E524A515C80223A4190
:1030D000114039B109EB8901494A02EB810131F80C
:1030E0001A1006E009EB8901474A02EB810131F829
:1030F0001A108B464FEA2B2000F088F90BF0FF00E6
:1031000000F084F908F101000FFA80F8B8EB061F0F
:10311000BEDB781C07B2082FB7DB701E201A04B282
:10312000601E04B2002CBFF67BAF681C05B2142DE4
:10313000FFF674AF2FE109249AE00F2593E0E1B286
:10314000E8B2FFF7E7FA002866D0012604E0A81BE2
:1031500000D50AE0701C06B2A81B06D4E1B2AA1B77
:10316000D0B2FFF7D7FA0028F1D100BFC4F10A0CA2
:103170004FF0010ECEEB0C1C0CF0FF03C5F10F0C51
:10318000B444CEEBCC0C0CF0FF02C4F1090C4FEAB6
:103190000C7C4FEA1C61C5F10F0C4FEACC6C4FEA76
:1031A0001C60FFF78DFDA2464FF0000853E000279A
:1031B0004AE03846F91707EB5171A5EBE1010FFA28
:1031C00081F9C8F10F0109EB8902114B03EB4202AF
:1031D00012F80A2001EB02110E4A515CFA1707EBB4
:1031E0005272D210A7EBC202C2F107028023134130
:1031F0001940B9B109EB8901014A0EE06F100020B6
:10320000F8260020382D0020182A00206E100020FB
:10321000682500206800002023E002EB810131F8DE
:103220001A1006E009EB89015F4A02EB810131F8CF
:103230001A108B464FEA2B2000F0E8F80BF0FF0045
:1032400000F0E4F8781C07B2B7EBC60FB1DB08F169
:1032500001000FFA80F8B8F1100FA8DB701E281AD1
:1032600005B2681E05B2002DBFF669AF601E04B23C
:10327000002CBFF662AF8EE0132588E0002481E0C9
:10328000E1B2E8B2FFF746FA78B3012605E0A019EB
:10329000082800DB0BE0701C06B2A019082806DA2B
:1032A000A219D1B2E8B2FFF735FA0028EFD100BF7A
:1032B000C5F1140C4FF0010ECEEBCC0C0CF0FF035B
:1032C00004EB060CCEEB0C1C0CF0FF02C5F1130C4A
:1032D0004FEACC6C4FEA1C614FEA047C4FEA1C6059
:1032E000FFF7EEFCA946002745E049E04FF0000853
:1032F0003CE040464FEAE87108EB117104EB211104
:103300000FFA81FA4FEAE87108EB11710911A8EB85
:10331000011209EB8901254B03EB410111F80A1059
:1033200002EB0111224A515CC7F1070280231341CD
:10333000194039B109EB89011E4A02EB810131F8CC
:103340001A1006E009EB8901174A02EB810131F8F6
:103350001A108B464FEA2B2000F058F80BF0FF00B4
:1033600000F054F808F101000FFA80F8B8EB061FDE
:10337000BFDB781C07B2082FB8DB701E204404B2F4
:10338000601C04B2082CFFF67BAF681E05B2002D4E
:10339000BFF674AF00BF00BF0748006810B1064811
:1033A0000068804700BF2FE5182A0020682500200C
:1033B00068000020F82600207410002010B5044694
:1033C00010211048FEF7C7FC08210E48FEF7C3FC89
:1033D00000BF02210C48FEF7A7FD0028F9D02146C6
:1033E0000948FEF7ADFD00BF01210748FEF79CFD2F
:1033F0000028F9D00448FEF7A0FD10210148FEF78F
:10340000ACFC10BD000801400030014010B504467E
:1034100010211048FEF79FFC08210E48FEF79DFC86
:1034200000BF02210C48FEF77FFD0028F9D021469D
:103430000948FEF785FD00BF01210748FEF774FD2E
:103440000028F9D00448FEF778FD10210148FEF766
:1034500084FC10BD000801400030014038B5002058
:103460008DF801008DF8020001208DF80300FF2087
:103470008DF800006846FEF773FC174800684FF4AB
:103480007A72B0FBF2F1B1F1807F00D31DE021F040
:103490007F40401E4FF0E022506150170F2200285D
:1034A00007DA13071D0E0D4B00F00F04241F1D55E6
:1034B00003E013071C0E0A4B1C5400BF00204FF002
:1034C000E02290610720106100BF012005490870CB
:1034D00000200549086038BD1400002018ED00E008
:1034E00000E400E02C0000202800002030B585B06A
:1034F00004460D462E4951F82410094341F00100BD
:103500000121FEF77FFC34B92A4951F8240001213A
:10351000FEF778FC05E0274951F824000121FEF769
:1035200061FC18208DF81300234830F81400ADF822
:10353000100003208DF81200204951F8240004A93E
:10354000FEF72CFB04208DF813001D4830F8140002
:10355000ADF810001B4951F8240004A9FEF71EFB2A
:1035600001211948FEF7A6FB00950020ADF80400E4
:10357000ADF80600ADF80800ADF80C000C20ADF871
:103580000A00124951F824006946FEF765FE0F490A
:1035900051F82400012240F22551FEF737FE0B4975
:1035A00051F824000121FEF7EEFD05B030BD00000A
:1035B0007C380008843800088C380008440000205B
:1035C000903800084C000020100014003C0000203F
:1035D00038B5044600214FF00060FEF7F9FB0C48B7
:1035E00010F814008DF8000001208DF801008DF80E
:1035F00002008DF803006846FEF7B2FB054951F85A
:103600002400012240F22551FEF700FE38BD0000E3
:10361000943800083C00002070B504460D4605486B
:1036200040F824500120044908552046FFF7D0FFF8
:1036300070BD0000540000205C00002010B504465E
:1036400004F08000002844D0FF2C03D120205B49E7
:103650000870B1E0F02C08D1802058490870002093
:103660005749088057490880A6E0F12C03D1002073
:1036700052490870A0E0A02C08D140204F490870A2
:103680000020514908805149088095E0A12C0AD1B9
:1036900000204A4908704C4800884D4908604B4852
:1036A0000088486088E0E02C03D11020434908706E
:1036B00082E004F0F000B02804D104F00F00454986
:1036C000087079E0C02C77D0C021012000F088F884
:1036D00072E03A48007800F08000D0B104F0400079
:1036E00058B104F03F003C49354A128888543448A8
:1036F0000088401C324908805EE004F03F013748F2
:10370000304A128881542F480088401C2D49088077
:1037100052E02A48007800F0400000284CD02748AA
:10372000007800F0030078B920464FF6FF7101EAF7
:10373000C010254909880144234A11801F4909788E
:10374000491C1E4A117037E01C48007800F0030045
:1037500001280BD120461C49098801441A4A1180CE
:1037600016490978491C154A117025E0134800785C
:1037700000F0030002280FD120464FF6FF7101EA46
:10378000C0100E490978491C0C4A11700F4909886C
:1037900001440E4A11800FE00848007800F0030051
:1037A000032809D12046094909880144074A1180A4
:1037B0000021024A117000BF10BD00006700002008
:1037C0005E000020600000206200002064000020F5
:1037D0007421002066000020802100207423002036
:1037E00070B504460D4600BF074951F8240040213A
:1037F000FEF7D5FC0028F7D0034951F824002946EC
:10380000FEF79BFD70BD00003C00002010B50029B4
:103810000AD00878002807D005487844FDF77AFDDB
:10382000002801D0002010BD0248784410BD0000DF
:103830009A0100009201000010B500290AD0087812
:10384000002807D005487844FDF764FD002801D022
:10385000002010BD0248784410BD00008A0100001D
:1038600082010000FDF767B9FDF79CBA0020004017
:1038700000800000040000001000000004000000B0
:1038800010000000004000000000040000020004DE
:1038900000040008250027000000000000000000D0
:1038A0003031323334353637383941424344454676
:1038B0004030580030313233343536373839616270
:1038C0006364656640307800040000080000000072
:1038D0000000000200010000103031323334353670
:1038E000373839616263646566787000303132332D
:1038F0003435363738394142434445465850000044
:1039000002400000000000A0000000000540000090
:10391000000000C8000000000C4000000000409CB7
:1039200000000000194000000020BCBE00000000A4
:1039300034400000BFC91B8E00000004B5400000E9
:10394000504BCFD06607E2CF010000006C41000071
:103950003E8251AADFEEA73401000000D9420000E8
:10396000DCB5A0E23A301F97FFFFFFFFB44500002F
:10397000FD25A0C8E9A3C14FFFFFFFFFFF3F0000E7
:103980000000008000000000FF3F000000000080F9
:1039900000000000E03A000800000020382100008C
:1039A0002801000884420008382100202813000064
:1039B0008C0100081C00000043000000F8FFFFFF1E
:1039C0000C0000000E0000000F0000002E000000A0
:1039D0001001000043000000F8FFFFFF00404040DE
:1039E00040404040404041414141414040404040D2
:1039F000404040404040404040404040400502027E
:103A0000020202020202020202020202022020203C
:103A10002020202020202002020202020202909098
:103A20009090909010101010101010101010101096
:103A300010101010101010100202020202028888EA
:103A400088888888080808080808080808080808F6
:103A500008080808080808080202020240000000DE
:103A60000000000000000000000000000000000056
:103A70000000000000000000000000000000000046
:103A80000000000000000000000000000000000036
:103A90000000000000000000000000000000000026
:103AA0000000000000000000000000000000000016
:103AB0000000000000000000000000000000000006
:103AC00000000000000000000000000000000000F6
:103AD00000000000000000000000000000000000E6
:103AE00012000120050102030404500E0607080914
:103AF0000204060800A24A04000161186110700562
:103B00000010014004123804500648004000081418
:103B10006108012301500B7E81A58181BD998181BE
:103B20007E105009FFDBFFFFC3E7FFFF1010050009
:103B3000006CFE0170047C38107BA3387C0F700A87
:103B4000183C3CE7E7E718183C10127E3D81104115
:103B50002342185E32FF0123E7C361210A316180ED
:103B6000073C664242663C205007C399BDBD99C3DD
:103B70002010071E0E1A3278CC0142788E133C6654
:103B800001133C1861419E10053F333F3001400452
:103B900070F0E06210057F637F6301500567E7E620
:103BA000C07D500718DB3CE73CDB30340C80C0E0C4
:103BB000F0F8FEF8F0E0C08048700C02060E1E3EE1
:103BC000FE3E1E0E0602BF60051818187EB14300A7
:103BD0006601110851602006DBDBDB7B1B01353FF2
:103BE000940D7CC660386CC6C66C380CC67C5625F5
:103BF00033D150A27E602101619F31018171111387
:103C000080040CFE0C0EA40800003060FE6030B48E
:103C10009005C0C0C0FE208406286CFE6C286E8013
:103C2000071038387C7CFE2115BD877C38BFD90051
:103C300015BF223C8D5520155DCA2421126C5E31C2
:103C400004454D640B7CC6C2C07C060686C67C82D9
:103C50004409C2C60C183060C686A01407386C6CC4
:103C60003876DCB04276BCB00430306070112C3154
:103C70000153180CDD33180C018218E2A006663CD3
:103C8000FF3C66A385EE91149131031100FED875B7
:103C900050230206A055F011A02405C6C6D6D6B200
:103CA000599C573878824D1003437CC62F73C6FE4B
:103CB000106406063C060606DF10070C1C3C6CCCA4
:103CC000FEB1561E5E158D92FC201338601012C690
:103CD00001511012FE4041F46160111B9120210C32
:103CE000127E60B30C78BA91F15110652031CE1577
:103CF000368E06C3033103653E311C212471709654
:103D00000CE031715006DEDEDEDCC0B02610112280
:103D1000FE91454B1AFCF12A7CF56EFC700312C231
:103D2000E25FC0C2A1034C0400F86C1203576CF8A8
:103D300000B00A6662687868606266FE109004608F
:103D400060F0404006DEC6C6663A40251B316F5122
:103D5000705E3C01036D40043A1E0E8DF00312E6C6
:103D60006B1378787542E68033F0600171709006CD
:103D7000C6EEFEFED6508007C6E6F6FEDECE103555
:103D80006C959031E08260A051207406D6DE7C0CE8
:103D90000E0021E476E6B0700560380C0640B004F1
:103DA0007E7E5AB0D2C660510E6E6C2105315D60C8
:103DB00006D6D6FEEE6C201E6C8E03637C6CA04D86
:103DC000CF0481502C04FEC6864F036AC2804E3C4D
:103DD0002F036F303060051DC2047C0470381CB0A6
:103DE000044E3C3F0364040C0C3CCE0D17EB054E17
:103DF000FF6F03FD03067C04780C7CB003240500F0
:103E0000E060606E152579601B7CC6E469E0121CD9
:103E10006A836CCC30395292FE202C0536323078D1
:103E2000920579D02F0076BF053404CC7C0CD311D9
:103E30006084046C7666601D7B04AA380030060638
:103E400006000E06013E661406113049015590DA4F
:103E50003830191317ECFE6182D6F85EDCB30581A9
:103E6000A09D700371207A7C0361A06DD303880448
:103E7000DC7666C05DE4057DDF052405103030FC8E
:103E80008F73361C7031DF95105901911029018212
:103E90006C20A4046C3838A849336C047E060C539B
:103EA000032ECC50055D40061E0E9B042E7030067E
:103EB000BE0E30067D4006211C21244718706CFE82
:103EC000DC0A053DE203614F1DB10432820181101D
:103ED00023D6AA028110A007868A8ADAF2B220606D
:103EE00005DEFAF6BA10CACC301D8A04B1101E38AD
:103EF0005805B950894031A219A1C930CAC640211C
:103F000050B120BB6600201E181A06A1102180A106
:103F1000108EC6D104518F2DE1047DE0041D580799
:103F20004DB1047D400429404C0736367ED8D86E0A
:103F300050081A3EDD26FED266CE3DC940CAC650A4
:103F400041B08110B8043078CC1021D0B92096C689
:103F5000F01D10037EC6A1044500CFC600B0042D9D
:103F60007107453E4DA0073C05386C646003055E53
:103F7000E6A0054D0D096A7E101C08F8CCCCF8C4EB
:103F8000CCDEA1034DD0052F0E1B5D081D82084A13
:103F9000D8202D1806A5B02D7807B5601120A1D026
:103FA0002110B1C019619D6003110E7D71055DF096
:103FB00005AC046C6C3E8F062D10089E001B091D7D
:103FC00008071D1308AEC090033D4407AEC03E096C
:103FD0002D01045DCE061C05E062666C0F031EDC3D
:103FE0001605823E10400566CE9A3F233DBB083D34
:103FF000C50871739006366CD86C364F110E4F6C35
:10400000D85B09C3114402C355AA02C3DD7702027B
:10401000141801D2F80E711042360152F60861866A
:10402000B2FE10E13073F60630E101550FC1207F7A
:10403000F606CD0351709EFE17093190DDFA05C1D9
:10404000B0B00418181F30EC041818FF2A06E1302D
:10405000CD7404E300FF40D12ED61F10B237C0BC90
:104060000437303F620AC33F3020C3F70090D004CA
:10407000FF00F740B6372082FF905140713051DE8B
:10408000C120E3363660E2FFE0D590B63F60861F80
:10409000403D800BF61F20D23F40C2FF90D530F646
:1040A00018B07540D2FF01AE00470D1111D2F001DA
:1040B000D20F01C1376D90075C06DCD8D8D8DC90F0
:1040C000042D5C0D1FD8CCA5086ECC80082DEE0702
:1040D000BD91032D000C4E6C000C2DA0081D610A33
:1040E0009DA0062D330E114F5ED860048D330D1D3B
:1040F00060074D820DAF76DCB0066F7E18C20D8D65
:10410000900B9EFE30073DAD0621715EEE100A1D3C
:10411000210C3E3E250981701D830D8DF10A13038C
:10412000061053F37E6D2C06001C306060E009DC45
:1041300004301C00010A9D2D0CAEFE330C5D5F0C9B
:104140006DF00E5D3F0B71105D6F0B61200C041262
:104150000E1B1B1204A5011E18920BADC00D1D25D0
:10416000057D97073D0F050D19AD0C61426DE80FF8
:104170003E0F0F0B4005EC6C6C3CD0AE6C57043D11
:104180003C0FCC050C18327ED20F41010D1AF50FF1
:104190000EFF0110100DFF10100DFF10100DFF107D
:1041A000100DFF10100DFF10100DFF10100DFF105F
:1041B000100DFF10100DFF10100DFF10100DFF104F
:1041C000100DFF10100DFF10100DFF10100DFE1040
:1041D000107D8E0D3CAC090311001246173F18509C
:1041E00019031A78320029502C782A00427F4D0991
:1041F00063E064BF650C66006700ACFFA00A13F0C3
:104200000DC10FC5142122FF23012434253C26A112
:104210002B006BAA13FF695D900A91019201930133
:10422000945F95539611971A983D995A9A1E9B0040
:104230009C25A765A8659E119F02A6067E0E7F1A83
:104240008031815A82698375847E8588868F8796BE
:1042500088A389AF8AC58BD78CE88D20A980AA80D6
:10426000ACFF33002299230348004A004913470852
:104270004B144C1746050CD00EF5AB061600150076
:0442800055DF2000E6
:04000005080000ED02
:00000001FF
