:020000040800F2
:10000000884F00207D020008850200088702000852
:10001000890200088B0200088D0200080000000021
:100020000000000000000000000000008F02000837
:1000300091020008000000009302000889240008D3
:10004000970200089702000897020008970200082C
:1000500097020008970200086D1C0008970200082C
:10006000970200089702000897020008970200080C
:1000700097020008970200089702000897020008FC
:1000800097020008970200089702000897020008EC
:1000900097020008970200089702000897020008DC
:1000A00097020008970200089702000897020008CC
:1000B00097020008970200089702000897020008BC
:1000C00097020008970200089702000897020008AC
:1000D000970200085D25000897020008992500088E
:1000E00097020008970200089702000800F002F843
:1000F00000F0B4F80AA090E8000C82448344AAF10E
:100100000107DA4501D100F0A9F8AFF2090EBAE80B
:100110000F0013F0010F18BFFB1A43F0010318473B
:10012000645100008451000010F8013B0A4413F0B0
:10013000030408BF10F8014B1D1108BF10F8015B44
:10014000641E05D010F8016B641E01F8016BF9D133
:10015000002D15D010F8014B03F00C030C2BA1EB74
:1001600004040ABF10F8013BA4EB8314A4EB03249E
:1001700005F1010314F8016B5B1E01F8016BF9D561
:10018000914238BF10F8013BD1D3704700230024BF
:1001900000250026103A28BF78C1FBD8520728BF97
:1001A00030C148BF0B6070476E2900F0E5817029AF
:1001B00000F02783662904F0CD87652904F0CA87FB
:1001C000672904F0C787612904F0C68703681B0A02
:1001D00028BF41F08001692900F09281642900F074
:1001E0008F81752900F08C816F2900F0B582782904
:1001F00000F0F382E92900F04F82E42900F04C82FC
:10020000F52900F04982EF2900F0B282F82900F0C8
:10021000F2820368DB0928BF41F08001632900F006
:10022000F387732900F0F887E32901F00380F329AD
:1002300001F00880002070471FB501F055F8040058
:100240000020002104F0F2FE401C6060002000212C
:1002500004F0D6FEE0601FBD10B510BD01F016F829
:100260001146FFF7E9FF03F0C1F801F0EFF803B41E
:10027000FFF7F2FF03BC01F037F90000094880479F
:1002800009480047FEE7FEE7FEE7FEE7FEE7FEE778
:10029000FEE7FEE7FEE7FEE704480549054A064B90
:1002A0007047000099240008ED00000888490020EC
:1002B000884F0020884B0020884B002053EA020C16
:1002C00000F069802DE9F04B4FF00006002B1FBFB6
:1002D000B3FA83F503FA05F424FA05F65E4012BF7B
:1002E0001643B2FA82F502FA05F4C5F120051EBFE5
:1002F00022FA05FC44EA0C04203556EA044C4FEA85
:10030000144418BF641C4FF000084FF000099042DD
:1003100071EB030C39D3002919BFB1FA81F701FA47
:1003200007F6B0FA80F700FA07F6C7F120071EBFFC
:1003300020FA07FC46EA0C062037B6FBF4FCA7EBD4
:100340000507103F07F01F0BCBF120060CFA0BFB43
:100350002CFA06F644BFB3460026202FA4BF5E4603
:100360004FF0000B5BEA060C08BF4FF0010B19EBD6
:100370000B09ABFB027C48EB0608C01B06FB02CC5A
:100380000BFB03CC71EB0C01C1E70B460246414667
:100390004846BDE8F08B13B54FF000004FF0000168
:1003A000AFF30080BDE81C40704700001CB50C4650
:1003B000064B7B4469460090204600F0F6F8044660
:1003C0000020694600F004F920461CBD1B02000015
:1003D00010B5203AC0F00B80B1E81850203AA0E8E0
:1003E0001850B1E81850A0E81850BFF4F5AF5FEA14
:1003F000027C24BFB1E81850A0E8185044BF18C9C7
:1004000018C0BDE810405FEA827C24BF51F8043B6D
:1004100040F8043B08BF7047D20728BF31F8023BC1
:1004200048BF11F8012B28BF20F8023B48BF00F855
:10043000012B704770477047704770B50446856957
:100440000068C10601D5302600E02026C00707D08D
:1004500070BDD4E9012130469047206A401C2062DB
:100460006D1EF6D570BD70B5044685690078C0076D
:1004700007D170BDD4E9012120209047206A401C9B
:1004800020626D1EF6D570BD09684A0501D540B2DF
:100490007047C905FCD500B2704709684A0501D507
:1004A000C0B27047C905FCD580B2704770B50C4624
:1004B0000546012A05D02878800600D5EA69002380
:1004C00002E0012305E05B1C934202D2E05C0028BD
:1004D000F9D1A869E618C01AA861286A18442862E8
:1004E0002846FFF7AAFF04E0D5E9012114F8010B23
:1004F0009047B442F8D32846FFF7B5FF70BD00001F
:100500002DE9F0410646002410687529314616A5EC
:1005100010D0FFF7B9FF002802DA404213A507E028
:1005200031688A0701D512A502E0490704D511A553
:10053000012401E0FFF7B1FF00210A2206F12407A0
:1005400009E0B0FBF2FCB0FBF2F302FB1C00303020
:1005500078541846491C0028F3D123462A463046D1
:10056000BDE8F04100F061BA000000002D0000007D
:100570002B0000002000000011680268006A53058B
:1005800001D508700AE0D30501D5088006E01306FE
:1005900003D5C217C1E9000200E0086001207047DE
:1005A00001694A1C02610878704700B58FB0CDE937
:1005B00001310021059105497944CDE90310114627
:1005C000684600F029F90FB000BD0000E5FFFFFF0D
:1005D0000A6802F8010B0A60704700002DE9FF5F0E
:1005E00015468A460446DFF8AC80F8440027D8E96F
:1005F00000103E46CDE9001010E03AF816106A46A9
:1006000002A800F023FE411C07D02178890603D5FB
:10061000E269391891420DD80744761C207880068B
:1006200002D5E069B84205DDAE42E6DB3AF81600D5
:100630000028E2D1A069C01BA0612046FFF7FDFEA3
:10064000D8E90010CDE90010002017E03AF81810A2
:100650006A4602A800F0FAFDB0F1FF3F81460BD0D8
:1006600000250DF1080B05E0D4E901211BF8050078
:1006700090476D1C4D45F7D308F10100B04280460C
:10068000E4DB206A384420622046FFF7ECFEBDE838
:10069000FF9F00009A4B00002DE9F0418046D21DDB
:1006A00022F007020025D2E90002F52915A614D090
:1006B000011E72F1000106DA0023D0EB030063EBA8
:1006C000020211A608E0D8F800108B0701D50FA68A
:1006D00002E0490701D50EA601251146002408F1C4
:1006E000240704E000F05CF930323A55641C50EA0B
:1006F0000102F7D12B46324621464046BDE8F04183
:1007000000F093B9000000002D0000002B00000055
:100710002000000030B4002100F1240408E002F0C1
:100720000705D208303542EA4372DB086554491C9C
:1007300052EA0305F3D10468002310A2250708D567
:1007400004F020040C4304D0C46901230CA2641EED
:10075000C46130BC00F069B910B504462146106888
:10076000FFF79BFE02462046BDE810400023D1E77C
:10077000D21D22F00701D1E90023CBE700000000E1
:1007800030000000F0B40D460188090502D5214C67
:100790007C4402E01F4C7C440E34002100F124060E
:1007A00008E002F00F071209E75D42EA03721B0935
:1007B0007754491C52EA0307F3D102780023120749
:1007C00004D5702D06D009B1022311342246F0BCA5
:1007D00000F02BB901231034F8E770B504460D463C
:1007E00021461068FFF759FE024629462046BDE81B
:1007F00070400023C6E7D21D22F00703D3E900238F
:10080000C0E70368126843F0200303600823C36154
:100810000023B7E7FC4900002DE9F05F8946044654
:100820004FF0000ADFF874B1FB44C0F820A0204666
:10083000E1688847002874D0252806D0D4E9012132
:100840009047206A401C2062F1E700265F46204660
:10085000E16888472028054607DB312D05D2781945
:1008600010F8200C08B10643F1E7B00701D526F0D7
:100870000406C4F81CA00027C4F818A02A2D09D02B
:10088000284601F0A8FF38B304EB8708303DC8F8CC
:10089000185019E059F8041B204604EB87029161B7
:1008A000E1688847012F054618D1E069002820DA61
:1008B00026F020061DE0D8F8180000EB800005EBBC
:1008C00040003038C8F818002046E16888470546DF
:1008D00001F081FF0028EED1012F0AD02E2D08D182
:1008E0002046E16888477F1C0546022F46F0200617
:1008F000C4DBA069002803DA404246F00106A0618B
:10090000F00701D026F010066C2D0BD0682D09D011
:100910004C2D39D06A2D35D0742D35D07A2D33D069
:1009200016E038E0E1682F4620468847B842054681
:1009300009D16C2F26D04FF48060E1680643204631
:100940008847054604E06C2F1AD04FF480700643A8
:100950000DB3A5F14100192802D8203546F40066F0
:100960004A462946204626604E46FFF71DFC80B1C8
:1009700001280BD0F61D26F0070000F1080956E704
:100980004020E4E78020D8E70020D6E706F10409FC
:100990004DE7284652E7206ABDE8F09F8C490000E9
:1009A00030B5B0F10A024FEA900E71F100034EEA41
:1009B000817EB0EB0E0061EB91014FEA101E4EEA12
:1009C000017E10EB0E0041EB11114FEA102E4EEAA2
:1009D000016E10EB0E0041EB11214FEA104E4EEA72
:1009E000014E10EB0E0041EB1141401841F10001A6
:1009F0004FEAD00040EA41704FEAD10110EB800588
:100A00004FEA810444EA907444EB01046D1944EB0D
:100A10000404521BA3414FF0000348BF0A3200D523
:100A200030BD401C41F1000130BD2DE9F0470D46BD
:100A300099469246044600F124080168880604D5C8
:100A4000E06921F01001216000E00120A84201DDF1
:100A5000471B00E00027A1697A1902EB0900081A78
:100A6000A0612078C00602D42046FFF7E6FC0026ED
:100A700008E0D4E901211AF806009047206A401CDA
:100A8000761C20624E45F4DB2078C0060AD520464D
:100A9000FFF7D3FC06E0D4E9012130209047206A1B
:100AA000401C2062381EA7F10107F4DC07E0D4E9FE
:100AB000012118F805009047206A401C2062281E7A
:100AC000A5F10105F3DC2046FFF7CDFC20780006F8
:100AD00002D50220BDE8F0870120FBE770472DE931
:100AE000FF4F0C461E464FF0FF378BB0D2E9000196
:100AF000DDF860800A908A46C1F30A5505B93D4683
:100B0000002108464FF00000BAF1000F00F4400049
:100B100005DA00EB80004FF4400101EA50004FEA93
:100B20009059B9F1010F00DDB9460A9850EA4A0020
:100B30000ED044F61050A5F2FF3545432F14B8F1FE
:100B4000000F1ED07542291E1EDDC9F100021CE0F7
:100B5000B8F1010F4FF0000001D0302103E0F24363
:100B600005E02154401CB042FBDB3046002200214E
:100B700021540B99C1F80880C1E900200FB0BDE8ED
:100B8000F08FBD1B6D1CDEE74A4600DA694206A8FD
:100B900000F0EEFB06AB93E8070003AB83E8070029
:100BA00050460A9900F0A7FC8DE80700A0F5005018
:100BB0001F3800900398002D09DD42F21F014A46BC
:100BC000084403A90390684600F006FF08E0A0F57A
:100BD00000504A461F3803A90390684600F010FFF2
:100BE0008DE807000004000C03D04FF0FF304108EF
:100BF00000E01046B8F1000F03D000220092154625
:100C00001EE0751E05D4FFF7CBFE303262556D1E17
:100C1000F9D5B3460122084302D000227F1C04E02C
:100C20002078302801D100227F1E002A099786D023
:100C30001DE0112D07DAFFF7B3FE303262556D1C4F
:100C400050EA0102F5D1084302D00098C8B10EE085
:100C50000021681E05E0235C625C63542254401E40
:100C6000491C8142F7DBAB46A81B401E09900020BF
:100C700004F80B000B98099AC0F80880C0E9002B13
:100C80007CE711264FF0000859E72DE9F04F884620
:100C90000446D21D22F0070191B0D1E90001CDE94F
:100CA0000A0101F084FD02460B98C00F01D02D20EF
:100CB00007E02068810701D52B2002E0202101EA0E
:100CC000C000032A099001D0072A05DB03464146EC
:100CD000204600F00DFB0BE12078800601D5E0698D
:100CE00000E00620B8F1650F814606D0B8F1660F26
:100CF00018D0B8F1670F70D131E00020B9F1110FB1
:100D0000009001DB112301E009F101030AAA01A906
:100D10000CA8FFF7E4FEDDE90C70002609F10105DF
:100D2000834647E001204B4600904FF000470AAA57
:100D300001A90CA8FFF7D3FEDDE90DB00C995D46C3
:100D4000002610B909F101000D18B9EB050003D414
:100D5000C0F1FF3609F10105A5EB09002BE0B9F15F
:100D6000010F01DA4FF001090020B9F1110F0090D5
:100D7000484601DD112300E003460AAA01A90CA898
:100D8000FFF7ADFEDDE90C704D4600268346207866
:100D900000070AD4AB4500DA5D4601A8012D04DD49
:100DA000411911F8011C302907D04F4502DA17F11B
:100DB000040F04DA012082460FE06D1EEEE7002FDB
:100DC00002DCED1B3E4403E0781CA84200DD7D1CE4
:100DD000B81B00F1010A4FF000472078000703D448
:100DE000AA4501DB4FF0FF3A0021B7F1004F0DF1AA
:100DF00043088DF8431024D002202B23002F01DA62
:100E00007F422D230A21021EA0F1010000DC5FB108
:100E100097FBF1FC97FBF1F201FB1C7C17460CF1F0
:100E2000300C08F801CDEEE7A8F10100037021882D
:100E3000090501D5452100E06521A0F1010800F870
:100E4000011C09980FA9A1EB0807FF1D00B10120A3
:100E5000411901EBEA70A1693844081A401EA061EB
:100E60002078C00602D42046FFF7E7FA099828B197
:100E7000D4E901219047206A401C20622078C006F6
:100E800022D52046FFF7D9FA1EE0002E04DBB34539
:100E900002DD01A8805D00E03020D4E90121904707
:100EA000206A401C2062761CAAF101005FEA000A59
:100EB0000AD100F019FAC0680168405CD4E9012148
:100EC0009047206A401C2062281EA5F10105DCDC49
:100ED00007E0D4E9012118F8010B9047206A401C73
:100EE0002062381EA7F10107F3DC2046FFF7BBFAAA
:100EF000032011B043E600002DE9F04F04460D46F3
:100F0000D21D22F0070089B0D0E900974846394643
:100F100001F04DFC0246F80F01D02D2307E02068B8
:100F2000810701D52B2302E0202101EAC0038DF8BF
:100F300020300BB1012000E00020032A824601D0BE
:100F4000072A04DB2946204600F0D2F93FE1207849
:100F5000800601D40D2500E0E569C7F30A560D2D82
:100F600049DA00214FEA175B08464FF00000002FD6
:100F700000F4400007DA00EB80004FF4400100EB82
:100F8000D07001EA60008115012901DD4FF0FF31C9
:100F900000224FEA850CBCF1180F06D31346ACF1C2
:100FA00018004FF08052C24003E04FF4801323FA40
:100FB0000CF30CF10C0CBCF1200F04D3ACF1200CA1
:100FC00009FA0CF001E007FA0CF000294FF0004894
:100FD00001DD18B90FE00ED140450CD319EB020921
:100FE0005F4121B9404502D19F4329EA0209BBEB89
:100FF000175F00D0761C2088000502D57B48784416
:1010000002E07A487844193808AA302302F80A30F6
:10101000037C0AF10101002E0AF1020A53546A46C8
:1010200002DC4FF0300101E04FF031014FF00108D8
:101030008DF8001002D0A6F2FF3603E059EA47010E
:1010400000D06B4E002D02DC2178090704D54FF04B
:1010500002082E218DF80110C44600210BE0C7F3D1
:1010600003433F01C35C491C6D1E02F8083005298B
:1010700008F1010801DA002DF1DC00210CE000EBA1
:101080001973491C1B786D1E082902F808304FEAB5
:10109000091908F1010801DA002DF0DC21688B063E
:1010A00002D516E0A8F10108E04505DD02EB0803D2
:1010B00013F8013C302BF5D0B8F1000F09DD02EB3D
:1010C000080313F8013C2E2B03D1090701D4A8F122
:1010D0000108002D05DD3E2102F808106D1E08F103
:1010E0000108407C002E02F8080008F1010804DA2B
:1010F0002D20764202F8080002E02B2002F80800BA
:101100000A214FF47A70864208F101080BDB96FB46
:10111000F0F3303302F8083096FBF0F308F10108E1
:1011200000FB136601E0642E0CDB642096FBF0F3F9
:10113000303302F8083096FBF0F308F1010800FBA9
:10114000136601E00A2E06DB96FBF1F0303002F860
:10115000080008F1010896FBF1F001FB1060303047
:1011600002F80800A16908F1010808EB050202EB8A
:101170000A00081AA0612078C00602D42046FFF7B2
:101180005CF9216A08AE01EB0A00206204E0D4E9B0
:10119000012116F8010B9047BAF1010AF7D2207825
:1011A000C00602D52046FFF748F96E4609E016F85A
:1011B000010B3E280FD0D4E901219047206A401C42
:1011C0002062B8F10108F2D22046FFF74CF909B0CD
:1011D0000320BDE8F08F206A2844206203E0D4E9B0
:1011E0000121302090476D1EEBD3F8E7DA41000073
:1011F00002FCFFFF10B5436913B1AFF3008001E0BB
:10120000FFF754F9012010BD127800F124010A7093
:1012100000224A700122EDE711684FF0FF32E9E742
:1012200010B5436913B1AFF3008001E0FFF7D6F9C1
:10123000012010BD128800F1240182840022C284A2
:101240000122EDE711684FF0FF32E9E770B516466D
:101250000C46054600F040F8036893F801010128A8
:1012600006D0FF2C0FD8185D68B101202C7070BD1E
:10127000D3F807013246214603F2071303442846F8
:10128000BDE8704018474FF0FF3070BD754600F064
:10129000E7F8AE4605006946534620F0070085464C
:1012A00018B020B5FEF7F8FFBDE820404FF000066B
:1012B0004FF000074FF000084FF0000B21F007013E
:1012C000AC46ACE8C009ACE8C009ACE8C009ACE881
:1012D000C0098D467047000010B500F005F8001DEC
:1012E00010BD00BF493D0000004870474449002040
:1012F0002DE9F0411F46044603260168072A01F440
:10130000006004DB08B116A505E016A503E008B1EE
:1013100015A500E015A521F010002060A069C01EF1
:10132000A0610FB1401EA0612046FFF786F84FB1C3
:10133000D4E9012138469047206A401C2062C01C35
:10134000206206E0206AFAE7D4E9012115F8010BD2
:101350009047761EF8D22046FFF785F8BDE8F08169
:101360004E414E006E616E00494E4600696E660049
:101370002DE9F047814616468AB0334878440DC8B7
:101380008DE80D0030487844801C03AC0DC884E81B
:101390000D0041F69B300844372190FBF1F290FBA1
:1013A000F1F5A5F1800501FB12041B3C02D5644256
:1013B000012000E00020DFF890A080460027FA44DA
:1013C000AAF1BE0A0DE0E00709D03246684607EBF5
:1013D00047010AEB810100F013FB8DE80700641060
:1013E0007F1C002CEFD1184F7F44AC3F18E0E8077A
:1013F00014D007EB04100DF1180A90E80E008AE8EB
:101400000E00C068F04201D198190890324606A932
:1014100003A800F0F5FA03AB83E807006D10641C25
:10142000002DE4D132466946B8F1000F03A802D07E
:1014300000F0D2FA01E000F0E3FAC9E90001C9F8CE
:1014400008200AB0BDE8F087EC3E000010B5044665
:10145000AFF300802046BDE81040FEF708BF000053
:1014600000487047244900204FF0013C50F8042BFD
:1014700051F8043B9A4221D1A2EB0C03934313EAA7
:10148000CC1317D150F8042B51F8043B9A4215D1D4
:10149000A2EB0C03934313EACC130BD150F8042BAB
:1014A00051F8043B9A4209D1A2EB0C03934313EA8F
:1014B000CC13DBD04FF00000704700BFD01A01BA48
:1014C000B1FA81F101F0180122FA01F0CB40C1F12B
:1014D0002001DBB2C0B2C01A2CFA01F3D11A914339
:1014E00011EAC311E6D1704701491820ABBEFEE7EF
:1014F0002600020070475FEA400C08BF91F0000F21
:101500004FEA8C234FEAC12243EA51514FEA1C5063
:1015100018BF00F5F0404FEA300018BF41F000411D
:101520005FEA6C5C00F02980BCF1FF3F08BF40F02F
:1015300080407047130C06BF12044FF0100C4FF0A0
:10154000000C130E04BF12020CF1080C130F04BFA1
:1015500012010CF1040C930F04BF92000CF1020C69
:10156000D30F04BF52000CF1010C11464FF00002E2
:10157000A0F11F00A0EB0C00704711F0004F08BF56
:10158000704731F000413FF4D5AF0B0C06BF0904A2
:101590004FF0100C4FF0000C0B0E04BF09020CF1C1
:1015A000080C0B0F04BF09010CF1040C8B0F04BFD6
:1015B00089000CF1020CCB0F04BF49000CF1010CA7
:1015C000CCF12003A0EB0C0022FA03F302FA0CF298
:1015D00041EA030100F10100704720F07F4C80EAEE
:1015E000030023F07F47ACEB070303F57C5300F0C7
:1015F000004003F1FF032DE980494FEA154B09B480
:101600004FEA144325EA0B4E24EA03480FF204265E
:1016100006EB132749083E785FEA320203FB0667B0
:10162000C7F5000707FB06F64FEA54374FEAD646E0
:1016300006F1020607FB066CCCF1005C4FEA1C4782
:101640002CEA074C07FB06F40CFB06F504EB1546E9
:101650004FEA961634BF00204FF000404FEAD137D2
:1016600006FB07FC4FEA1C4C0CFB0BF7D21B03FBE1
:101670000CF761EB07010CFB0EF7B0EB074072EBC8
:1016800017420CFB08F734BFA2EB0742B2EB07424C
:1016900061EB17414FEA0C444FEA910706FB07FC48
:1016A0004FEA1C4C0CFB0BF7B0EBC74072EB573208
:1016B00003FB0CF734BFA2EBC742B2EBC74261EBAE
:1016C00057310CFB0EF7B0EBC70072EB57720CFBF7
:1016D00008F734BFA2EBC702B2EBC70261EB577148
:1016E000039F4FEA816141EA921104EBCC044FEA77
:1016F000D1374FEA826206FB07FC42EA90124FEABA
:1017000080604FEA1C4C0CFB0BF7D21B03FB0CF761
:1017100061EB07010CFB0EF7B0EB074072EB1742D1
:101720000CFB08F734BFA2EB0742B2EB074261EBB8
:1017300017414FEA8C554FEA910704EB9C2406FBB6
:1017400007FC4FEA1C4C0CFB0BF7B0EBC74072EBED
:10175000573203FB0CF734BFA2EBC742B2EBC742D0
:1017600061EB57310CFB0EF7B0EBC70072EB577211
:101770000CFB08F734BFA2EBC702B2EBC70261EB68
:10178000577115EB4C254FEA816141EA92114FEAFE
:1017900082624FEAD13742EA901206FB07FC44F11D
:1017A00000044FEA80604FEA1C4C0CFB0BF7D21B85
:1017B00003FB0CF761EB07010CFB0EF7B0EB0740E6
:1017C00072EB17420CFB08F734BFA2EB0742B2EBF7
:1017D000074261EB174115EB1C154FEA813141EAD5
:1017E00092414FEA823242EA90424FEA80304FEA19
:1017F0000C7644F1000448EA03434EEA0B484FF0EC
:10180000000EB2EB080C71EB030724BF62463946A9
:101810004EEB0E0E4FF0000B0018524149414BEBBE
:101820000B0BB2EB080C71EB03077BF1000B24BF31
:10183000624639464EEB0E0E4FF0000B0018524137
:1018400049414BEB0B0BB2EB080C71EB03077BF13F
:10185000000B24BF624639464EEB0E0E51EA0207DA
:1018600018BF46F0010616EB0E7655F1000254F152
:10187000000103D5BDE88901BDE80088BDE8890104
:10188000BDE80048B619524141EB0101A3F1010343
:10189000704780807F7E7D7C7B7A797877767675DD
:1018A0007473727171706F6E6E6D6C6C6B6A6A6955
:1018B0006868676666656464636362616160605FEF
:1018C0005F5E5E5D5D5C5C5B5B5A5A595958585768
:1018D00057565655555554545353525252515150D0
:1018E00050504F4F4F4E4E4D4D4D4C4C4C4B4B4B23
:1018F0004A4A4A4949494848484747474746464669
:1019000045454544444444434343434242424241A3
:101910004141002B26D4770021D01CB54FEA370770
:1019200003B44FF010004FF010014FF000000FBC57
:10193000BDE810400BF1010BBBF1010F08BF5FEADE
:10194000170722BF12F1010211F101014FF000410E
:1019500043F1000300F0004043EA00007047F9D370
:101960005708DAE746EA064613F1400F4FEA1646F3
:101970001FDD13F1200FDFBF16430A46002120337D
:101980005B42C8D0C3F1200746EA064602FA07F7D1
:101990004FEA164646EA0706C3F1200722FA03F289
:1019A00001FA07F721FA03F14FF0000342EA0702B8
:1019B000B1E746EA020646EA06464FEA164646EA16
:1019C0000106BCBF46EA0646360C4FF000034FF056
:1019D00000024FF000019EE72DE9C048934630B465
:1019E00091E8380007C831EA400C48BF34EA430C9C
:1019F00003D5FFF7F2FDFFF78CFFF0BCBDE80088D0
:101A00002DE9C048934630B491E8380007C810F07B
:101A1000804F08BF13F0804F03D100F005F8FFF7A7
:101A200078FFF0BCBDE8008820F07F4780EA030023
:101A300023F07F4C07EB0C03A3F57C5300F0004030
:101A4000A3F1FE0392F0000F00F0B38095F0000FB9
:101A500000F077802DE901494FEA11404FEA144622
:101A600021EA004800FB06FC24EA064708FB06F6CC
:101A700007FB08F800FB07F718EB06484CEB164C81
:101A80004FEA124B18EB07484FEA15464CEB17404C
:101A900022EA0B4E0BFB06FC25EA06470EFB06F678
:101AA00007FB0EFE0BFB07F71EEB064E4CEB164C2E
:101AB0004FF000061EEB074E4CEB174B18EB0B08D4
:101AC00040F1000018EB0E0B58EB000840F100004D
:101AD0008F1A4FF000013CBFC943661B14BFB5EB22
:101AE000040C00213CBFC943F61B4FEA17444EEAE1
:101AF0008E0E27EA04454FEA1C4704FB07622CEAD6
:101B0000074C05FB07F70CFB05F604FB0CFC16EB7A
:101B1000074642EB174216EB0C4642EB1C421BEB0E
:101B2000060658EB0202414146EA9E0601D5BDE891
:101B30000189B619524141EB0101A3F10103BDE84E
:101B400001894FEA14454FEA114724EA054621EA84
:101B5000074C05FB07F406FB07F70CFB06F105FB3A
:101B60000CFC11EB074144EB17444FEA124711EB11
:101B70000C4144EB1C4422EA074C05FB07F206FB30
:101B800007F70CFB06F605FB0CFC16EB074642EBD1
:101B9000174216EB0C4642EB1C456A1854F1000143
:101BA00048BF7047B619524141EB0101A3F101034F
:101BB000704795F0000F37D04FEA11424FEA1447B3
:101BC00021EA024624EA074C02FB07F106FB07F76D
:101BD0000CFB06F402FB0CFC14EB074441EB174131
:101BE0004FEA154714EB0C4441EB1C4125EA074C26
:101BF00002FB07F506FB07F70CFB06F602FB0CFCE5
:101C000016EB074645EB174516EB0C4645EB1C4219
:101C1000121951F1000148BF7047B619524141EB0A
:101C20000101A3F1010370474FEA14454FEA114740
:101C300024EA054621EA074C05FB07F106FB07F7F6
:101C40000CFB06F24FF0000605FB0CFC12EB074202
:101C500041EB174112EB0C4251EB1C4148BF70475E
:101C6000921841EB0101A3F10103704710B5012067
:101C700000F032F8E8B10F48007868B920200E492A
:101C800048611020486101200A49087010200A4963
:101C900008612020086109E006480078012805D184
:101CA000102005494861022002490870012000F017
:101CB00005F810BD7D20002000100140014908609A
:101CC0007047000014040140024909680143014AB9
:101CD0001160704710040140014600200022074BAC
:101CE0001B6803EA0102054B14331B680B4013B158
:101CF0000AB1012000E0002070470000000401400C
:101D0000002123498279002A3AD00A4612680368E2
:101D10009A430B461A600A1D126803689A430B1D0A
:101D20001A60027911440A6803681A430A60184A63
:101D30000832126803689A43154B08331A601A1D5B
:101D4000126803689A43124B0C331A604279102AC6
:101D50000ED11A1F126803681A430D4B08331A601C
:101D60001A1D126803681A43094B0C331A600DE000
:101D70000749427911440A6803681A430A6005E07A
:101D8000027911440A6803689A430A6070470000A8
:101D9000000401400149C860704700000020024073
:101DA00030B5044604254FF4302000F06FF80546A6
:101DB000042D17D10C48006940F002000A4908615F
:101DC00008464461006940F0400008614FF430204B
:101DD00000F05CF805460448006941F6FD710840D2
:101DE00001490861284630BD0020024004200B490B
:101DF000C96801F0010109B101200EE00749C96875
:101E000001F0040109B1022007E00449C96801F0AA
:101E1000100109B1032000E00420704700200240B7
:101E20000348006940F080000149086170470000E4
:101E30000020024070B504460D460426F00200F072
:101E400025F80646042E11D10948006940F001002A
:101E5000074908612580F00200F018F8064604489A
:101E6000006941F6FE71084001490861304670BDC5
:101E70000020024002480349486003484860704718
:101E80002301674500200240AB89EFCD00B5024633
:101E90000423FFF7ABFF034603E0FFF7A7FF03466A
:101EA000521E012B01D1002AF7D102B90523184691
:101EB00000BD000030B500228B071C0F0F2303FA72
:101EC00004F20B4B8C1053F824309343084C8D10C4
:101ED00044F8253023468C1053F824308C07240F07
:101EE00000FA04F42343024C8D1044F8253030BD31
:101EF000080001402DE9F04102460025002600209F
:101F000000230024002791F803C00CF00F0591F87E
:101F100003C00CF0100CBCF1000F03D091F802C00C
:101F20004CEA050591F800C0BCF1000F31D01468EF
:101F300000202BE04FF0010C0CFA00F3B1F800C0C8
:101F40000CEA03069E4220D183004FF00F0C0CFADE
:101F500003F7BC4305FA03FC4CEA040491F803C000
:101F6000BCF1280F06D14FF0010C0CFA00FCC2F8AE
:101F700014C00AE091F803C0BCF1480F05D14FF03E
:101F8000010C0CFA00FCC2F810C0401C0828D1D388
:101F90001460B1F800C0BCF1FF0F34DD54680020BC
:101FA0002EE000F1080C4FF0010808FA0CF3B1F82C
:101FB00000C00CEA03069E4221D183004FF00F0CB3
:101FC0000CFA03F7BC4305FA03FC4CEA040491F84D
:101FD00003C0BCF1280F05D100F1080C08FA0CF879
:101FE000C2F8148091F803C0BCF1480F07D100F18A
:101FF000080C4FF0010808FA0CF8C2F81080401CD9
:102000000828CED35460BDE8F0810000F0B50A4640
:10201000002300240021002500F00046B6F1004F07
:1020200002D11D4EF16901E01B4E7168C0F30345FA
:1020300083B200F44016B6F5401F08D121F070615C
:10204000154E766826F07066134F7E6012E000F43D
:102050008016B6F5801F06D1032606FA05F4A143C3
:1020600041F0706106E0460D360103FA06F6B14311
:1020700041F0706122B1460D360103FA06F6314394
:1020800000F00046B6F1004F02D1034EF16101E0CD
:10209000014E7160F0BD00000000014002460020CA
:1020A00093680B400BB1012000E0002070474161B4
:1020B000704701617047000070B5002100230F22B6
:1020C000C47804B3154C246804F4E064C4F5E064F7
:1020D000210AC1F10403CA40447804FA03F1847868
:1020E0001440214309010E4C0678A155047804F0F0
:1020F0001F050124AC4005786D11AD0005F1E02508
:10210000C5F8004109E0047804F01F050124AC4043
:10211000044D0678761145F8264070BD0CED00E0C0
:1021200000E400E080E100E002490143024A11605E
:10213000704700000000FA050CED00E0024A0A407A
:102140000243024B1A60704780FFFF1F08ED00E05A
:1021500029B1064AD2690243044BDA6104E0034A1A
:10216000D2698243014BDA617047000000100240DF
:1021700029B1064A92690243044B9A6104E0034A7A
:1021800092698243014B9A6170470000001002403F
:1021900030B500210022002400232D4D6D6805F08C
:1021A0000C0121B1042905D0082923D105E0294DCE
:1021B000056022E0274D05601FE0254D6D6805F4A0
:1021C0007012234D6D6805F48034022505EB9242B0
:1021D0001CB9214D554305600BE01D4D6D6805F49C
:1021E00000351DB11C4D5543056002E0194D5543A6
:1021F000056002E0174D056000BF00BF144D6D681B
:1022000005F0F0010909154D6B5C0568DD4045607E
:102210000F4D6D6805F4E061090A104D6B5C45686F
:10222000DD4085600A4D6D6805F46051C90A0B4DAB
:102230006B5C4568DD40C560054D6D6805F4404147
:10224000890B074D6B5CC568B5FBF3F5056130BDC7
:102250000010024000127A0000093D00000000203A
:102260001000002021B1028842F40052028004E0F4
:1022700002884DF6FF731A400280704721B1028830
:1022800042F04002028004E002884FF6BF731A4019
:10229000028070470246002013890B400BB10120D9
:1022A00000E00020704701468889704781817047AF
:1022B00010B50022028802F441520B884C88234357
:1022C0008C882343CC8823430C8923434C892343A4
:1022D0008C892343CC8923431A430280838B4FF29A
:1022E000FF74234083830B8A038210BD21B182884F
:1022F00042F00402828004E082884FF6FB731A40A9
:102300008280704710B500F001F810BD0CB50020B8
:10231000019000903348006840F4803031490860F3
:1023200000BF3048006800F4003000900198401C65
:102330000190009818B90198B0F5A06FF1D1294823
:10234000006800F4003010B10120009001E000208E
:1023500000900098012843D12348006840F0100005
:10236000214908600846006820F00300086008461C
:10237000006840F0020008601A4840681949486047
:102380000846406848600846406840F480604860FD
:102390000846406820F47C1048600846406840F4D5
:1023A000E81048600846006840F08070086000BF90
:1023B0000C48006800F000700028F9D00948406817
:1023C00020F00300074948600846406840F00200DA
:1023D000486000BF0348406800F00C000828F9D1AD
:1023E0000CBD000000100240002002402DE9F8431F
:1023F0000446002C01DA604200E0204604462046F4
:1024000002F04AFE00901F49009801EB5000009036
:10241000009802F021FE00904FF4804084FB007091
:102420000146DDF800C0624600233846FDF746FF4E
:10243000009A821841F10000551C40F1000102226F
:1024400000232846FDF73AFF00904FF4804084FBBC
:1024500000700146DDF800C0624600233846FDF7F3
:102460002DFF009A821841F10001551C41F1000135
:10247000022200232846FDF721FF00900098BDE8C6
:10248000F883000000403B2302480068401C0149DB
:10249000086070472800002010B51348006840F01D
:1024A00001001149086008464068104908400E497B
:1024B0004860084600680E4908400B490860084615
:1024C000006820F4802008600846406820F4FE0080
:1024D00048604FF41F008860FFF714FF4FF0006062
:1024E0000449086010BD0000001002400000FFF821
:1024F000FFFFF6FE08ED00E010B53A201449086031
:102500001E204860012088604FF48270C86021213D
:102510000F4801610121416130200D4988619621F8
:102520000B48C1610121016240F21B100849486259
:102530009821074881620121C16240F2AA500549F1
:10254000088040F266300449088000F055FC10BD58
:1025500058480020882000208A20002010B540F232
:1025600025510A4800F05EF878B10948007838B182
:10257000064800F013F9C4B20648016820468847AF
:1025800040F22551014800F025F810BD0038014007
:10259000600000205800002010B540F225510A4884
:1025A00000F040F878B10948407838B1064800F0AA
:1025B000F5F8C4B2064841682046884740F22551E4
:1025C000014800F007F810BD0048004060000020FE
:1025D0005800002010B50022002340F66A14A142E2
:1025E00000D100BF0A1201249440A3B2DC4304804E
:1025F00010BD21B1828942F40052828104E08289B7
:102600004DF6FF731A408281704702460020B1F5F3
:10261000007F00D100BF13880B400BB1012000E008
:102620000020704770B502460024002300250020DA
:1026300040F66A16B14200D100BFC1F3421501F065
:102640001F03012606FA03F3012D02D196893340B8
:1026500006E0022D02D1168A334001E0968A33400B
:102660000C12012606FA04F41688344013B10CB19A
:10267000012000E0002070BDF0B5034600240026D4
:102680000025002040F66A17B94200D100BF184665
:10269000C1F3421401F01F06012707FA06F5012CC9
:1026A00001D10C3004E0022C01D1103000E01430D4
:1026B0001AB107682F43076002E00768AF4307605D
:1026C000F0BD00002DE9F04786B005460E46002417
:1026D000A24600BFA1460027B08900B100BF2F4627
:1026E0002C8A4CF6FF700440F08804432C82AC899D
:1026F0004EF6F3100440B0883189084371890843CD
:102700000443AC81AC8A4FF6FF400440B0890443D7
:10271000AC8201A8FFF73CFD1F48874202D1DDF8DB
:1027200010A001E0DDF80CA0A88900F4004040B141
:102730000AEBCA0000EB0A1031684900B0FBF1F85F
:1027400007E00AEBCA0000EB0A1031688900B0FB11
:10275000F1F86420B8FBF0F004012009642101FBCA
:102760001089A88900F4004040B1322000EBC90074
:10277000B0FBF1F000F00700044308E0322000EB6A
:1027800009106421B0FBF1F000F00F0004432C812C
:1027900006B0BDE8F0870000003801400146888897
:1027A000C0F308007047C1F30802828070474900F7
:1027B00050EAC12018BF04204A0D18BF40F00100A4
:1027C00040F2FF72B2EB515F08BF40F002000128F7
:1027D00008BF0520704730380A2801D20120704711
:1027E000002070471FB5069C019940F82410E11C99
:1027F000029A40F82120A11D039A40F821201FBD14
:1028000008B501210820FFF7B3FC03208DF8020072
:1028100048208DF80300D020ADF800006946164826
:10282000FFF768FB01211020FFF7A2FC03208DF8C1
:10283000020048208DF803008020ADF800006946B2
:102840000E48FFF757FB002012E00D4951F8201009
:102850000C4A42F830100C4931F8101002EBC0025B
:1028600091800121074A02EBC0029171411CC8B25C
:102870000428EADB08BD0000000C01400010014004
:1028800030000020482100205C5100081FB504469C
:1028900034B1012C04D0022C02D0002004B010BDB1
:1028A000204600F08BF808B90020F7E701211D2031
:1028B000FFF75EFC01213B48FFF7A8FB10208DF8D5
:1028C0000F0003208DF80E004FF40040ADF80C000F
:1028D00003A93548FFF70EFB4FF48050ADF80C000C
:1028E00003A93148FFF706FB0220ADF80C0003A94D
:1028F0002E48FFF7FFFA2020ADF80C0003A92C4862
:10290000FFF7F8FA1020ADF80C0003A92848FFF7EC
:10291000F1FA4FF47F40ADF80C0004208DF80F0061
:1029200003A92248FFF7E6FA0120ADF80C0003A93D
:102930001E48FFF7DFFA4FF4C060FFF7F5FB0620F3
:102940008DF8080000208DF8090001208DF80A009C
:102950008DF80B0002A8FFF7AFFB00210120FFF765
:10296000A9FA0120009000208DF804000C208DF8B9
:10297000050001208DF806006846FFF7C1F9012027
:10298000FFF7A2F94FF40040074914310860102006
:1029900007490861002007490870074804700120B2
:1029A0007CE700000002300000080140000C0140FC
:1029B000001001407D2000207C2000207CB50546D1
:1029C00001210420FFF7D4FB0320ADF804008DF8AB
:1029D000060014208DF8070001A91F48FFF78AFAA6
:1029E000002000908621122001F03EF808B9002056
:1029F0007CBD0A220121684600F036FF08B900209C
:102A0000F6E79DF80000772801D00020F0E70B22C0
:102A10000121684600F028FF08B90020E8E79DF88A
:102A20000000212801D00020E2E700240DE00B4A3D
:102A300002EB44025178094A12F8140001F014F82C
:102A400008B90020D4E7601C84B2054800788442AD
:102A5000EDDB0120CCE700000008014098200020B9
:102A6000422100202DE9F0414621122000F0FCFF18
:102A70004F48007840B900BF0020FFF707FF00284B
:102A8000FAD001204A4908704A480078022870D1DB
:102A900000BFC00248490860022048490860091F79
:102AA0000860C0024449091F0860022043490860C9
:102AB000091F086000BF2B2001F07EFF002001F0FD
:102AC000A3FF192001F0A0FF002001F09DFF6A2064
:102AD00001F09AFF2A2001F06FFF002001F094FF1F
:102AE000012001F091FF002001F08EFF6B2001F02A
:102AF0008BFF2C2001F060FF002400F033FB074621
:102B000000254AE0002643E0032096FBF0F100FB9D
:102B1000116078BB032095FBF0F100FB115048BB1E
:102B200000BF002402202549086024480C380068B2
:102B300000F47F440220091F0860091D08601F4837
:102B40000C380068C0F3072004430220091F086006
:102B500000BFF82101EAC401C4F3022241EA0200E5
:102B600001F052FF04F0E00141EAE42001F04CFFE3
:102B70000CE01AE0FFE700BF022010490860091FBF
:102B80000860091D0860091F086000BF701C86B23C
:102B9000B6F5A07FB8DB681C85B2F02DB2DB01F082
:102BA0002BFC00200349087000BFBDE8F081000045
:102BB000432100207D20002014080140140C014016
:102BC0002DE9F04FADF21C4D01F01CF801F00AF9AF
:102BD000854AD2E90610126ACDE9010200918248C5
:102BE0000EC80AA802F085F90AA807C802F078F909
:102BF0007E490988C90190FBF1F01FFA80F97A4AF1
:102C00000C3207CA8DE8070077480EC803A802F007
:102C100070F903A807C80AAB07C30AA807C802F0DF
:102C20005FF973490988C90190FBF1F01FFA80FA36
:102C3000002009908046002558E0002651E00696C5
:102C4000079501200890684B06A807C800F090FA85
:102C5000E8B32946304600F00BFD80462946304651
:102C600000F02EFDB8EB000002D54FF0000807E0A1
:102C70002946304600F024FDA8EB000000F0FF08D4
:102C8000B8F1050F2BDB58484068281A90FBF9F083
:102C900000EBC00101EB00100DA901EB400052490F
:102CA0000968711A91FBFAF130F81100401C4E4985
:102CB0004968691A91FBF9F101EBC10202EB0111BC
:102CC0000DAA02EB4101484A1268B21A00E004E082
:102CD00092FBFAF221F8120001E04FF00008701C9C
:102CE00086B2B6F5A07FAADB681C85B2F02DA4DB06
:102CF00000243E480078401E00F0FF0B00275EE0F5
:102D0000FF25FF26002011E000EBC00101EB0011C0
:102D10000DAA02EB410131F817100F2904DDE94338
:102D200009B9054600E00646411CC8B22F4909888A
:102D30008842E9DBE84300283FD0F04300B92E4643
:102D4000701900EBD071BBEB610F1ADA002D01DDB9
:102D5000681EC5B225480088401EB04201DD701CC7
:102D6000C6B200F0F7F9075500F0F8F9055500F084
:102D7000F1F9611C475400F0F1F9611C4654B34667
:102D800019E0002D01DD681EC5B218480088401EFC
:102D9000B04201DD701CC6B200F0DCF9075500F04E
:102DA000DDF9065500F0D6F9611C475400F0D6F95C
:102DB000611C4554AB46A01C84B2781CC7B20C48B9
:102DC000008887429CDB00F0C9F9054600F0C2F993
:102DD00006462246294600F071FE0020054908708B
:102DE0000DF21C4DBDE8F08F5848002096200020C1
:102DF000942000207D20002000B5BFB0A848416885
:102E00000069814204DAA6488088A649088003E068
:102E1000A348008AA3490880A148C169806A814209
:102E200004DD9F48808B9F49488003E09C48008DCB
:102E30009C4948809A48006899498969884204DA1F
:102E4000974800889849088003E09548008B964988
:102E50000880934800699249496A884204DD904895
:102E600080899149488003E08D48808C8E49488054
:102E7000002000908A480EC82DA8FFF7B3FC01205F
:102E80000090874818300EC82DA8FFF7ABFC022031
:102E9000009083480C300EC82DA8FFF7A3FC00203B
:102EA0002A902B9001202C900020009036A82AA96F
:102EB0000EC9FFF797FC7D48B0F900002B90012068
:102EC000009036A82AA90EC9FFF78CFC7848B0F903
:102ED00000002A9000202B900220009036A82AA9FA
:102EE0000EC9FFF77FFC182230A96846FDF770FA7B
:102EF0000FA82DA90EC900F0FEF924220FA921A8C0
:102F0000FDF766FA182239A96846FDF761FA0FA89D
:102F100036A90EC900F0EFF924220FA918A8FDF771
:102F200057FA242221A906A8FDF752FA182239A936
:102F30006846FDF74DFA0FA836A90EC900F01EFB32
:102F400024220FA95B48FDF743FA4FF480505949FA
:102F50000862242218A906A8FDF73AFA182230A917
:102F60006846FDF735FA0FA82DA90EC900F006FB3B
:102F700024220FA95048FDF72BFA4FF480504E49F8
:102F8000086200200090464824300EC82DA8FFF7A4
:102F900029FC4648B0F900002B900020009036A88C
:102FA0002AA90EC9FFF71EFC182230A96846FDF7B2
:102FB0000FFA0FA82DA90EC900F09DF924220FA920
:102FC00021A8FDF705FA182239A96846FDF700FA8D
:102FD0000FA836A90EC900F08EF924220FA918A84F
:102FE000FDF7F6F9242221A906A8FDF7F1F9182228
:102FF00039A96846FDF7ECF90FA836A90EC900F00B
:10300000BDFA24220FA92D48FDF7E2F94FF48050B4
:103010002A490862242218A906A8FDF7D9F918221E
:1030200030A96846FDF7D4F90FA82DA90EC900F004
:10303000A5FA24220FA92248FDF7CAF94FF48050BF
:103040001F4908621648C1690069081A000314493B
:103050008969134AD268891A90FBF1F0194908600E
:103060000F488069096848430D49C969C0EB0130C0
:10307000154908600E48B0F9000040004FF4A071F7
:1030800090FBF1F0114908800848B0F900004000B9
:103090004FF48C7190FBF1F00D4908803FB000BDFA
:1030A0005848002084200020802000208A20002012
:1030B0008820002094480020DC480020B8480020E8
:1030C000004900208C200020902000209420002027
:1030D000962000203FB583B00446DDE90B23DDE9EF
:1030E000050100F02FF800900C9B0A9A06990498AD
:1030F00000F028F840420190DDE90A23DDE90401EF
:1031000000F020F802909DE8070084E8070007B06F
:1031100030BD000070B504460848007808B901F0D9
:103120009BFC0748056806E005480068854202D018
:1031300003480568641E002CF6D170BD2C000020E9
:103140002800002010B5044604FB03F001FB120028
:1031500010BD0000004870477421002000487047EF
:103160006823002001480068704700002800002004
:103170001FB58FB01C4694E807008DE8070003A830
:10318000D4E90723A16901F0B4FE03A807C80CAB7A
:1031900007C394E807008DE8070003A80FA90EC92C
:1031A00001F0A7FE03A807C809AB07C309A807C811
:1031B0008DE8070003A80CA90EC9FFF78BFF03A831
:1031C00007C806AB07C30898002802DB002013B02D
:1031D00010BDD4E90402E168CDE90102009103A821
:1031E00094E80E0001F085FE03A807C80CAB07C3E6
:1031F000D4E90412E0688DE8070003A80FA90EC9FE
:1032000001F077FE03A807C809AB07C309A807C8E0
:103210008DE8070003A80CA90EC9FFF75BFF03A800
:1032200007C806AB07C30898002801DB0020CEE7DB
:10323000D4E90702A169CDE90102009103A8D4E90C
:103240000A23616A01F055FE03A807C80CAB07C347
:10325000D4E90702A169CDE90102009103A80FA9F1
:103260000EC901F046FE03A807C809AB07C309A8A9
:1032700007C88DE8070003A80CA90EC9FFF72AFFAD
:1032800003A807C806AB07C30898002801DB002085
:103290009DE7D4E90A02616ACDE90102009103A821
:1032A000D4E90423E16801F024FE03A807C80CABAD
:1032B00007C3D4E90A12606A8DE8070003A80FA9C2
:1032C0000EC901F016FE03A807C809AB07C309A879
:1032D00007C88DE8070003A80CA90EC9FFF7FAFE7E
:1032E00003A807C806AB07C30898002801DB002025
:1032F0006DE701206BE70FB470B598B00546142256
:1033000021A96846FDF764F81DA80FC800F016F95A
:10331000044644B924221DA92846FDF759F818B0DF
:1033200070BC5DF814FBDDE92423DDE92101FFF722
:1033300009FF0F90259BDDE922122098FFF702FF7D
:1033400040421090DDE92323DDE92001FFF7FAFE7A
:103350001190DDE92423DDE91E01FFF7F3FE404271
:103360001290259B239A1F991D98FFF7EBFE13904F
:10337000DDE92323DDE91D01FFF7E4FE404214905F
:10338000DDE92123DDE91E01FFF7DCFE1590229B1C
:10339000DDE91F121D98FFF7D5FE40421690DDE9CA
:1033A0002023DDE91D01FFF7CDFE17900FA94FF493
:1033B000805000F0FCF90FA9204600F0D3F9182244
:1033C00012A96846FDF704F806A80FA90EC901F076
:1033D0008BFB242206A90FA8FCF7FAFF24220FA9D1
:1033E0002846FCF7F5FF00BF99E7000001F034FB29
:1033F0004FF4FC634FF6FF720021084600F066FEB2
:10340000FFF7FEF94FF4E131002001F0B1FB3C4938
:10341000002001F043FC002600BFFFF7A3FE054695
:1034200011E000F0DFFCFFF79DFE07463B4635A2AA
:103430000021084600F0AEFE33A20121002000F07A
:10344000A9FE00F0D9FFFFF78DFE05F10A018842C1
:10345000E7D900F0C7FC30A20021084600F09AFE30
:1034600000F0CAFF00BF0120FFF710FA0028FAD0D1
:1034700000F0B8FC2CA20021084600F08BFE00F002
:10348000BBFF00243BE0FFF737F8FFF76BFEA842D5
:1034900035D0FFF767FE05466420B5FBF0F100FB71
:1034A0001150012800D100E000200EB9012100E0F8
:1034B0000021084028B1FFF7D5FA00F09DFF00F089
:1034C00091FC002000F024F938B1601C84B20F2C6C
:1034D00000DD0024E0B200F0E7FA012000F018F966
:1034E00008B100F009FB022000F012F908B101F068
:1034F0001BFB032000F00CF908B1FFF761FBC2E7EA
:10350000C14C0008256400004372797374616C201B
:1035100042726F6B656E000043616D657261206978
:103520006E6974696E67200043616D657261206920
:103530006E697420646F6E65000000000FB430B5D2
:10354000DDE90A23DDE90701FFF7FCFD039900FB34
:1035500001F40B9BDDE908120698FFF7F3FD0499CF
:1035600001FB1044DDE90923DDE90601FFF7EAFD6F
:10357000059901FB004030BC5DF814FB0FB410B599
:103580008AB0044616990D984843199A0E9901FB82
:1035900002001C9A0F9901FB0200019017990D98E7
:1035A00048431A9A0E9901FB02001D9A0F9901FBDC
:1035B0000200029018990D9848431B9A0E9901FB3E
:1035C00002001E9A0F9901FB0200039016991098B1
:1035D0004843199A119901FB02001C9A129901FBA8
:1035E000020004901799109848431A9A119901FB08
:1035F00002001D9A129901FB02000590189910987B
:1036000048431B9A119901FB02001E9A129901FB73
:1036100002000690169913984843199A149901FBD1
:1036200002001C9A159901FB020007901799139844
:1036300048431A9A149901FB02001D9A159901FB3F
:10364000020008901899139848431B9A149901FB9B
:1036500002001E9A159901FB02000990242201A97B
:103660002046FCF7B5FE0AB010BC5DF814FB000064
:1036700010B50246062091FBF0F0C302062091FB34
:10368000F0F400FB141081B2104602EBD074641009
:10369000A2EB440444B909484FF4A07404FB0100B0
:1036A0001044C05A001210BD04484FF4A07404FB2B
:1036B00001001844104410F8010CF4E700900008D1
:1036C00010B50246062091FBF0F0C302062091FBE4
:1036D000F0F400FB141081B2104602EBD0746410B9
:1036E000A2EB440444B909484FF4A07404FB010060
:1036F0001044C05A001210BD04484FF4A07404FBDB
:1037000001001844104410F8010CF4E700D001083F
:1037100010B50446124A02EBC4029188104A52F8CE
:103720003400FEF7BBFC0E4901EBC40189798842E5
:1037300013D00B4A02EBC4029188094A52F83400B4
:10374000FEF7ACFC064901EBC4018871044800EBAC
:10375000C40081790120884310BD0020FCE70000EF
:10376000482100200A6892FBF0F20A604A6892FB46
:10377000F0F24A608A6892FBF0F28A60CA6892FBB3
:10378000F0F2CA600A6992FBF0F20A614A6992FBA0
:10379000F0F24A618A6992FBF0F28A61CA6992FB8F
:1037A000F0F2CA610A6A92FBF0F20A6270470A6894
:1037B00042430A604A6842434A608A6842438A60D8
:1037C000CA684243CA600A6942430A614A6942437D
:1037D0004A618A6942438A61CA694243CA610A6A84
:1037E00042430A627047000010B501210B48FEF702
:1037F0005EFC00F015F802210848FEF758FC00F0C6
:103800000FF801210548FEF754FC00F009F80121EA
:103810000248FEF74CFC00F003F810BD0008014020
:103820004FF4C87001E0411E88B20028FBD17047F8
:1038300010B501210B48FEF73AFCFFF7F1FF02211A
:103840000848FEF736FCFFF7EBFF01210548FEF7BD
:1038500030FCFFF7E5FF01210248FEF728FCFFF7E7
:10386000DFFF10BD0008014070B505460C46164646
:1038700000F08EF808B9002070BD422000F05CF81E
:1038800000F0CCF818B900F0ADF80020F4E73046AD
:1038900000F052F800F0C2F800F0A4F800F078F858
:1038A00008B90020E8E7432000F046F800F0B6F839
:1038B00018B900F097F80020DEE70CE000F012F8ED
:1038C0002870012C02D1FFF7B3FF01E0FFF78CFF56
:1038D0006D1C601E84B2002CF0D100F083F8012032
:1038E000CAE7000070B50825002402211148FEF740
:1038F000E0FB14E06006040E01210E48FEF7D7FB42
:10390000FFF78EFF01210B48FEF7D3FBFFF788FF7F
:1039100002210848FEF7C2FB08B144F00104281E4A
:10392000A5F10101CDB2E5D101210248FEF7BFFBAF
:10393000204670BD0008014070B5044608251BE014
:1039400001211248FEF7B3FBFFF76AFF04F0800085
:1039500020B102210D48FEF7ACFB03E002210B4829
:10396000FEF7A5FB6006040EFFF75AFF012107488A
:10397000FEF79FFBFFF754FF281EA5F10101CDB212
:10398000DED101210148FEF792FB70BD0008014025
:1039900010B502211248FEF78CFB01211048FEF7FA
:1039A00088FBFFF73DFF02210D48FEF777FB08B9C2
:1039B000002010BD02210A48FEF779FBFFF730FF17
:1039C00002210748FEF76AFB08B10020F1E7022157
:1039D0000348FEF76CFBFFF723FF0120E9E7000037
:1039E0000008014010B501210B48FEF760FBFFF70E
:1039F00017FF02210848FEF75AFBFFF711FF0121CC
:103A00000548FEF756FBFFF70BFF02210248FEF7C1
:103A100050FBFFF705FF10BD0008014010B5012164
:103A20001048FEF744FBFFF7FBFE02210D48FEF7AE
:103A300040FBFFF7F5FE01210A48FEF73AFBFFF7CE
:103A4000EFFE02210748FEF729FB28B101210548B6
:103A5000FEF72DFB002010BD01210248FEF727FBD9
:103A60000120F8E70008014070B504460D46FFF755
:103A70008FFF08B9002070BD4220FFF75DFFFFF700
:103A8000CDFF18B9FFF7AEFF0020F4E7E0B2FFF773
:103A900053FFFFF7C3FF2846FFF74EFFFFF7BEFFB8
:103AA000FFF7A0FF0120E6E770B50446B02528190E
:103AB000C5B22946002001F0FDF970BD2DE9F041A5
:103AC00005460E461746F021002001F0F3F90024C8
:103AD0000AE0285D40F04001002001F0EBF9315D83
:103AE000002001F0E7F9641CBC42F2DBF121002068
:103AF00001F0E0F9BDE8F0812DE9F041402112200C
:103B0000FFF7B2FF00203B49087000266AE000BFC3
:103B1000384800780228FBD100BFC002364908604F
:103B2000022036490860091F0860C0023249091F97
:103B30000860022031490860091F086000BF0027A3
:103B4000002448E0002535E000BF02202B49086032
:103B50002A480C380068C0F307270220091F0860B4
:103B6000091D0860091F086000BF76B9032097FB94
:103B7000F0F0062194FBF1F201FB124101EB81010F
:103B800005EB81111E4A505412E0032097FBF0F818
:103B900021462846FFF76CFD4044062194FBF1F2D4
:103BA00001FB124101EB810105EB8111144A5054D4
:103BB000681C85B2B5F5A07FC6DB062094FBF0F14A
:103BC00000FB1140052804D1601F81B20C4801F0B0
:103BD000A5F9601C84B2F02CB4DB00200549087004
:103BE000701CC6B2032E92DB46211220FFF73CFF69
:103BF000BDE8F0817D20002014080140140C014034
:103C0000F42D00202DE9F04140211220FFF72CFF78
:103C100000203B49087000266AE000BF3848007861
:103C20000228FBD100BFC002364908600220364995
:103C30000860091F0860C0023249091F086002209D
:103C400031490860091F086000BF0027002448E0D0
:103C5000002535E000BF02202B4908602A480C38B7
:103C60000068C0F307270220091F0860091D0860CB
:103C7000091F086000BF76B9032097FBF0F006210A
:103C800094FBF1F201FB124101EB810105EB811183
:103C90001E4A505412E0032097FBF0F821462846B4
:103CA000FFF70EFD4044062194FBF1F201FB1241A7
:103CB00001EB810105EB8111144A5054681C85B257
:103CC000B5F5A07FC6DB062094FBF0F100FB1140A8
:103CD000052804D1601F81B20C4801F057F9601C1F
:103CE00084B2F02CB4DB002005490870701CC6B209
:103CF000032E92DB46211220FFF7B6FEBDE8F081CD
:103D00007D20002014080140140C0140F42D0020F7
:103D100030B5024602EB82032C4C04EB43035B5CA0
:103D200002EB82042A4D05EB4404645CA3421FD1DC
:103D300002EB8203274C04EB830333F8113002EBD0
:103D40008204254D05EB840434F81140A3420FD1C1
:103D500002EB8203214C04EB830333F8113002EBB6
:103D600082041F4D05EB840434F81140A34201D0B6
:103D7000012300E00023184602EB8203144C04EBFD
:103D800043035B5C02EB8204104D05EB4404635477
:103D900002EB8203104C04EB830333F8113002EB87
:103DA00082040C4D05EB840424F8113002EB8203ED
:103DB0000B4C04EB830333F8113002EB8204074D04
:103DC00005EB840424F8113030BD000024260020C7
:103DD0005C2500207C280020EC2600209C2B002065
:103DE0000C2A002010B5002404E0204600F006F85C
:103DF000601CC4B20A2CF8DB10BD000010B50146EF
:103E000000201AE0202200EB80030D4C04EB43035A
:103E10005A540C4A128800EB80030B4C04EB8303CA
:103E200023F81120094A128800EB8003084C04EBA8
:103E3000830323F81120421CD0B21428E2DB10BD0A
:103E40005C2500206E100020EC2600206C10002065
:103E50000C2A002010B5012000F0AEFD0A20FFF76B
:103E600059F9112000F0A8FD7820FFF753F9B1208F
:103E700000F0A2FD012000F0C7FD2C2000F0C4FDE1
:103E80002D2000F0C1FDB22000F096FD012000F0D1
:103E9000BBFD2C2000F0B8FD2D2000F0B5FDB320B7
:103EA00000F08AFD012000F0AFFD2C2000F0ACFDF9
:103EB0002D2000F0A9FD012000F0A6FD2C2000F02F
:103EC000A3FD2D2000F0A0FDB42000F075FD07201B
:103ED00000F09AFDC02000F06FFDA22000F094FDDC
:103EE000022000F091FD842000F08EFDC12000F042
:103EF00063FDC52000F088FDC22000F05DFD0A20B2
:103F000000F082FD002000F07FFDC32000F054FD92
:103F10008A2000F079FD2A2000F076FDC42000F010
:103F20004BFD8A2000F070FDEE2000F06DFDC520F5
:103F300000F042FD0E2000F067FD362000F03CFD51
:103F4000C82000F061FDE02000F036FD022000F006
:103F50005BFD1C2000F058FD072000F055FD1220ED
:103F600000F052FD372000F04FFD322000F04CFDF4
:103F7000292000F049FD2D2000F046FD292000F009
:103F800043FD252000F040FD2B2000F03DFD3920B1
:103F900000F03AFD002000F037FD012000F034FD74
:103FA000032000F031FD102000F02EFDE12000F094
:103FB00003FD032000F028FD1D2000F025FD072053
:103FC00000F022FD062000F01FFD2E2000F01CFD59
:103FD0002C2000F019FD292000F016FD2D2000F006
:103FE00013FD2E2000F010FD2E2000F00DFD3720D7
:103FF00000F00AFD3F2000F007FD002000F004FD66
:10400000002000F001FD022000F0FEFC102000F076
:10401000FBFC2A2000F0D0FC002000F0F5FC002082
:1040200000F0F2FC002000F0EFFC7F2000F0ECFC40
:104030002B2000F0C1FC002000F0E6FC002000F086
:10404000E3FC002000F0E0FC9F2000F0DDFC3A20C3
:1040500000F0B2FC052000F0D7FC292000F0ACFCF9
:104060000A20FFF757F810BD70B504462A2000F06B
:10407000A3FC002000F0C8FC022000F0C5FC0020DA
:1040800000F0C2FC812000F0BFFC2B2000F094FC6B
:10409000002000F0B9FC012000F0B6FC002000F088
:1040A000B3FCA02000F0B0FC2C2000F085FC002523
:1040B00007E0201200F0A8FCE0B200F0A5FC681CAC
:1040C00085B2B5F5A04FF4DB70BD00002DE9F047D7
:1040D00080460E461746994600F02AF900F0D6F8B9
:1040E000FFF7B8FE2C2000F067FC304600F0E0F847
:1040F000384600F017F9484600F00EF93046FFF751
:10410000B3FF1D4880F80080002431E000252BE03B
:10411000202004EB8401194A02EB4101485504EBCD
:104120008400174901EB800020F8157004EB84002F
:10413000144901EB800020F81560202004EB840175
:10414000114A02EB4101485504EB84000F4901EB91
:10415000800020F8157004EB84000D4901EB80000D
:1041600020F81560681CC5B20A2DD1DB601CC4B2F2
:10417000142CCBDBBDE8F087721000205C250020FA
:10418000EC2600200C2A0020242600207C28002079
:104190009C2B00200FB4F0B5C1B005460E46002799
:1041A000002449A8009001A8009A4899FCF7FEF85D
:1041B0000020009001AC55E020785B2806D114F86F
:1041C000010C5C2802D00127641C4AE020785D289D
:1041D00006D114F8010C5C2802D00027641C40E0D2
:1041E00020780D2802D020780A2801D1641C38E0FC
:1041F000142D01DC0A2E01DD641C33E020785C28DC
:1042000006D160785B2802D060785D2800D1641CFC
:1042100014F8010B05EB8501164A02EB41018855A4
:1042200017B11548008801E01448008805EB8501A6
:10423000134A02EB810121F816001248008805EBB1
:104240008501114A02EB810121F81600142D03DBD0
:104250000025701CC6B201E0681CC5B20A2E00DB46
:10426000002600BF20780028A6D141B0F0BC5DF840
:1042700014FB00005C250020701000206E10002050
:10428000EC2600206C1000200C2A002010B5042120
:104290000648FDF70CFF6420FEF73CFF04210348AD
:1042A000FDF707FF6420FEF735FF10BD0008014051
:1042B00001490880704700006C1000202DE9F04192
:1042C00004460D4616461F462A2000F075FB0020C6
:1042D00000F09AFBA11CC8B200F096FB002000F091
:1042E00093FBB11CC8B200F08FFB2B2000F064FBE5
:1042F000002000F089FB691CC8B200F085FB00209B
:1043000000F082FB791CC8B200F07EFB2C2000F08C
:1043100053FBBDE8F08100000149088070470000B0
:104320007010002001490880704700006E100020C6
:1043300000B587B001210420FDF71AFF01210846CE
:10434000FDF716FF01210803FDF712FF0C20ADF861
:10435000040010208DF8070001208DF8060001A947
:104360002348FDF7C7FDA020ADF8040018208DF804
:10437000070003208DF8060001A91D48FDF7BAFDCE
:104380001020ADF804008DF8070003208DF806001A
:1043900001A91748FDF7AEFD0020ADF808004FF465
:1043A0008270ADF80A000020ADF80C000220ADF8D4
:1043B0000E000120ADF810004002ADF812000820F8
:1043C000ADF814000020ADF8160002A90948FDF769
:1043D0006FFF01210748FDF751FF00210548FDF758
:1043E00041FF00210348FDF781FF07B000BD000039
:1043F00000080140003001402DE9F05F0026FE4832
:10440000007808B9BDE8F09F002468E0002562E06C
:1044100005EB8500F94901EB800030F8140000F449
:10442000004008B1402000E0002005EB8501F34A80
:1044300002EB810131F8141001F4806109B12021EF
:1044400000E00021084305EB8501EC4A02EB810105
:1044500011F8141001F0100109B1102100E0002141
:10446000084305EB8501E64A02EB4101085505EBDF
:104470008500E44901EB800030F8140000F40040AE
:1044800008B1042000E0002005EB8501DC4A02EBC6
:104490004101095D084305EB8501DA4A02EB810120
:1044A00031F8141001F4806109B1022100E000210B
:1044B000084305EB8501D34A02EB810111F8141082
:1044C000C1F30011084305EB8501CD4A02EB410120
:1044D0000855681C05B2102D9ADB601C04B20A2C2A
:1044E00094DBC948007830B101287CD002287BD009
:1044F00003287AD1BEE1002488E0002581E0E1B202
:10450000E8B2FFF705FC002879D0012605E0A819DC
:10451000102800DB0BE0701C06B2A819102806DA80
:10452000E1B2AA19D0B2FFF7F3FB0028EFD100BF28
:1045300004F1010C4FF0010ECEEB0C1C0CF0FF034C
:1045400005EB060CCEEBCC0C0CF0FF024FEA047C22
:104550004FEA1C614FEAC56C4FEA1C60FFF7AEFEE4
:10456000A2464FF0000844E0002736E03846F9172D
:1045700007EB517105EBE1010FFA81F9F91707EB30
:104580005171C910A7EBC1028021114109EB8902C9
:104590009E4B03EB420212F80A2008EB02129C4BDE
:1045A0009A5C114039B109EB8901944A02EB81010F
:1045B00031F81A1006E009EB8901924A02EB8101F9
:1045C00031F81A108B464FEA2B2000F01DFA0BF041
:1045D000FF0000F019FA781C07B2B7EBC60FC5DB75
:1045E00008F1010003E015E0A3E0D2E107E00FFAD3
:1045F00080F8B8F1100FB7DB701E284405B2681CB4
:1046000005B2102DFFF67BAF601C04B20A2CFFF63A
:1046100074AFBEE1002588E0072481E0E1B2E8B292
:10462000FFF776FB002879D0012604E0A01B00D517
:104630000AE0701C06B2A01B06D4A21BD1B2E8B2DD
:10464000FFF766FB0028F1D100BF05F1010C4FF028
:10465000010ECEEBCC0C0CF0FF03C4F1070CB444FC
:10466000CEEB0C1C0CF0FF024FEAC56C4FEA1C614C
:10467000C4F1070C4FEA0C7C4FEA1C60FFF71EFEEA
:10468000A946002745E04FF000083DE040464FEACC
:10469000E87108EB1171A4EB21110FFA81FA4FEACE
:1046A000E87108EB11710911A8EB011209EB8901FE
:1046B000564B03EB410111F80A10102303EB0111D3
:1046C000891A491E524A515C80223A41114039B13F
:1046D00009EB8901494A02EB810131F81A1006E021
:1046E00009EB8901474A02EB810131F81A108B4628
:1046F0004FEA2B2000F088F90BF0FF0000F084F95E
:1047000008F101000FFA80F8B8EB061FBEDB781C39
:1047100007B2082FB7DB701E201A04B2601E04B265
:10472000002CBFF67BAF681C05B2142DFFF674AFEA
:104730002FE109249AE00F2593E0E1B2E8B2FFF7F8
:10474000E7FA002866D0012604E0A81B00D50AE09D
:10475000701C06B2A81B06D4E1B2AA1BD0B2FFF7A8
:10476000D7FA0028F1D100BFC4F10A0C4FF0010EB6
:10477000CEEB0C1C0CF0FF03C5F10F0CB444CEEBD8
:10478000CC0C0CF0FF02C4F1090C4FEA0C7C4FEA90
:104790001C61C5F10F0C4FEACC6C4FEA1C60FFF7AF
:1047A0008DFDA2464FF0000853E000274AE038464E
:1047B000F91707EB5171A5EBE1010FFA81F9C8F187
:1047C0000F0109EB8902114B03EB420212F80A2098
:1047D00001EB02110E4A515CFA1707EB5272D2102C
:1047E000A7EBC202C2F10702802313411940B9B1FD
:1047F00009EB8901014A0EE073100020EC2600202D
:104800002C2D00200C2A0020721000205C25002096
:104810006C00002023E002EB810131F81A1006E061
:1048200009EB89015F4A02EB810131F81A108B46CE
:104830004FEA2B2000F0E8F80BF0FF0000F0E4F85E
:10484000781C07B2B7EBC60FB1DB08F101000FFA15
:1048500080F8B8F1100FA8DB701E281A05B2681E88
:1048600005B2002DBFF669AF601E04B2002CBFF682
:1048700062AF8EE0132588E0002481E0E1B2E8B267
:10488000FFF746FA78B3012605E0A019082800DBF7
:104890000BE0701C06B2A019082806DAA219D1B2E2
:1048A000E8B2FFF735FA0028EFD100BFC5F1140CCC
:1048B0004FF0010ECEEBCC0C0CF0FF0304EB060C1A
:1048C000CEEB0C1C0CF0FF02C5F1130C4FEACC6CC4
:1048D0004FEA1C614FEA047C4FEA1C60FFF7EEFCD4
:1048E000A946002745E049E04FF000083CE040467B
:1048F0004FEAE87108EB117104EB21110FFA81FA0C
:104900004FEAE87108EB11710911A8EB011209EBEC
:104910008901254B03EB410111F80A1002EB01114B
:10492000224A515CC7F1070280231341194039B173
:1049300009EB89011E4A02EB810131F81A1006E0E9
:1049400009EB8901174A02EB810131F81A108B46F5
:104950004FEA2B2000F058F80BF0FF0000F054F85D
:1049600008F101000FFA80F8B8EB061FBFDB781CD6
:1049700007B2082FB8DB701E204404B2601C04B2DA
:10498000082CFFF67BAF681E05B2002DBFF674AF92
:1049900000BF00BF0748006810B1064800688047A4
:1049A00000BF2FE50C2A00205C2500206C000020B1
:1049B000EC2600207810002010B504461021104885
:1049C000FDF775FB08210E48FDF771FB00BF0221C2
:1049D0000C48FDF75FFC0028F9D021460948FDF797
:1049E00065FC00BF01210748FDF754FC0028F9D001
:1049F0000448FDF758FC10210148FDF75AFB10BD93
:104A0000000801400030014010B504461021104854
:104A1000FDF74DFB08210E48FDF74BFB00BF0221BF
:104A20000C48FDF737FC0028F9D021460948FDF76E
:104A30003DFC00BF01210748FDF72CFC0028F9D000
:104A40000448FDF730FC10210148FDF732FB10BD92
:104A5000000801400030014038B500208DF8010009
:104A60008DF8020001208DF80300FF208DF8000072
:104A70006846FDF721FB174800684FF47A72B0FBD7
:104A8000F2F1B1F1807F00D31DE021F07F40401EA4
:104A90004FF0E022506150170F22002807DA130769
:104AA0001D0E0D4B00F00F04241F1D5503E01307CE
:104AB0001C0E0A4B1C5400BF00204FF0E0229061F6
:104AC0000720106100BF012005490870002005493A
:104AD000086038BD1400002018ED00E000E400E09C
:104AE0002C000020280000200FB410B58AB0044626
:104AF0000D98019010980290139803900E980490CE
:104B000011980590149806900F98079012980890A5
:104B100015980990242201A92046FBF759FC0AB0F8
:104B200010BC5DF814FB000070B50026002418E0EE
:104B3000002511E021462846FEF79AFD064606F0BC
:104B40000F0000F14003402000EB161206A10020E8
:104B500000F094F9681C85B2B5F5A07FEADB601C13
:104B600084B2F02CE4DB70BD2563256300000000F7
:104B700030B585B004460D462E4951F8241009433E
:104B800041F001000121FDF7F3FA34B92A4951F847
:104B900024000121FDF7ECFA05E0274951F8240033
:104BA0000121FDF7D5FA18208DF81300234830F8BD
:104BB0001400ADF8100003208DF81200204951F8C0
:104BC000240004A9FDF796F904208DF813001D4870
:104BD00030F81400ADF810001B4951F8240004A966
:104BE000FDF788F901211948FDF710FA009500201A
:104BF000ADF80400ADF80600ADF80800ADF80C0003
:104C00000C20ADF80A00124951F824006946FDF75E
:104C100059FD0F4951F82400012240F22551FDF7BA
:104C20002BFD0B4951F824000121FDF7E2FC05B0F2
:104C300030BD00006C510008745100087C51000820
:104C4000480000208051000850000020100014008F
:104C50004000002038B5044600214FF00060FDF709
:104C60006DFA0C4810F814008DF8000001208DF842
:104C700001008DF802008DF803006846FDF71CFA6C
:104C8000054951F82400012240F22551FDF7F4FCBA
:104C900038BD0000845100084000002070B5044673
:104CA0000D46054840F82450012004490855204687
:104CB000FFF7D0FF70BD000058000020600000200A
:104CC00010B5044604F08000002850D0FF2C03D11A
:104CD000202061490870BDE0F02C08D180205E4999
:104CE000087000205D4908805D490880B2E0F12C21
:104CF00003D1002058490870ACE0A02C08D1402016
:104D00005549087000205749088057490880A1E09C
:104D1000A12C0AD1002050490870524800885349FC
:104D2000086051480088486094E0E02C03D11020CE
:104D3000494908708EE004F0F000B02804D104F076
:104D40000F004B49087085E0C02CC4D0902C03D1D3
:104D50000820414908707DE0D02C03D104203E4951
:104D6000087077E0C021002000F0A4F872E03A4813
:104D7000007800F08000D0B104F0400058B104F099
:104D80003F003C49354A1288885434480088401C0A
:104D9000324908805EE004F03F003749304A12880B
:104DA00088542F480088401C2D49088052E02A482A
:104DB000007800F0400000284CD02748007800F030
:104DC000030078B920464FF6FF7101EAC01025496B
:104DD00009880144234A11801F490978491C1E4A49
:104DE000117037E01C48007800F0030001280BD157
:104DF00020461C49098801441A4A1180164909783D
:104E0000491C154A117025E01348007800F0030092
:104E100002280FD120464FF6FF7101EAC0100E495B
:104E20000978491C0C4A11700F49098801440E4A3F
:104E300011800FE00848007800F00300032809D132
:104E40002046094909880144074A11800021024A85
:104E5000117000BF10BD00006B0000206200002038
:104E60006400002066000020680000206821002007
:104E70006A00002074210020682300200FB430B5A0
:104E8000C1B0054646A840906846409A4599FBF750
:104E90008DFA002040906C4604E014F8011B28466F
:104EA00000F008F820780028F7D141B030BC5DF858
:104EB00014FB000070B504460D4600BF074951F8C9
:104EC00024004021FDF7A1FB0028F7D0034951F849
:104ED00024002946FDF767FC70BD0000400000205B
:104EE00007B500994943019A02FB0210FDF77EFACB
:104EF0000EBD0FB583B0089A0499891A0091099ADA
:104F00000599891A01910A9A0699891A02919DE8D0
:104F10000E0080E80E0007B000BD00002DE9F04152
:104F200006460D46062095FBF0F100FB115008B136
:104F3000BDE8F081062095FBF0F085B2FCF79AFF02
:104F40003420FCF727FF10490A1402FB0510FCF778
:104F500027FF002411E0012000EB4400305C16F82C
:104F6000141040EA012708490A1402FB051101EB5D
:104F700044003946FCF75EFF641CB4F5707FEADB41
:104F8000FCF74EFF00BFD3E7009000082DE9F04189
:104F900006460D46062095FBF0F100FB115008B1C6
:104FA000BDE8F081062095FBF0F085B2FCF762FFCA
:104FB0003420FCF7EFFE11494FF4006202FB0510AC
:104FC000FCF7EEFE002412E0012000EB4400305C10
:104FD00016F8141040EA012708494FF4006202FB5A
:104FE000051101EB44003946FCF724FF641CB4F5BD
:104FF000707FE9DBFCF714FF00BFD1E700D00108A8
:1050000010B500290AD00878002807D00548784450
:10501000FCF72AFA002801D0002010BD024878448D
:1050200010BD0000960200008E02000010B500299D
:105030000AD00878002807D005487844FCF714FA0D
:10504000002801D0002010BD0248784410BD0000A7
:10505000860200007E020000C10DD1F19E0206DB37
:105060004FEA002343F0004323FA02F07047004266
:1050700007D54FEA4001B1F1FE4F02D24FF00000D8
:10508000704710B500F020F8499224800020704746
:105090006FEA20007047000010F0004148BF404216
:1050A000B0FA80F310FA03F2C3F19D030BD051EA7A
:1050B000C35101EB1220530638BF704700F10100C5
:1050C00008BF20F0010070470EF1020E2EF0030E13
:1050D0005EF8044B244204D44FEA4102B2F17F4F00
:1050E00011D84FEA4003B3F17F4F0CD80ED14FEAED
:1050F000D07CB2F17F4F0CEB4C0C0CF1020C08BFD2
:105100004CEBD17C04E04FF0080C01E04FEAD17C7D
:105110000CEB4C0324FA03F404F00704B4F1040C80
:1051200006D20EEB840CBDE810404CF0010C604739
:10513000DFE80CF0070802024FF00040A0F5800005
:1051400010BD0846420018BFD2F1807288BF00F03F
:10515000004010BDFBF799BDFBF7CEBE40008000BC
:105160001000800004000000100000000400000097
:1051700010000000004000000000040000020004D5
:1051800000040008250027000000000000000000C7
:10519000303132333435363738394142434445466D
:1051A0004030580030313233343536373839616267
:1051B0006364656640307800040000080000000069
:1051C0000000000200010000103031323334353667
:1051D0003738396162636465667870003031323324
:1051E000343536373839414243444546585000003B
:1051F00002400000000000A0000000000540000088
:10520000000000C8000000000C4000000000409CAE
:1052100000000000194000000020BCBE000000009B
:1052200034400000BFC91B8E00000004B5400000E0
:10523000504BCFD06607E2CF010000006C41000068
:105240003E8251AADFEEA73401000000D9420000DF
:10525000DCB5A0E23A301F97FFFFFFFFB445000026
:10526000FD25A0C8E9A3C14FFFFFFFFFFF3F0000DE
:105270000000008000000000FF3F000000000080F0
:1052800000000000D053000800000020482100006A
:10529000280100087C5B000848210020402E000007
:1052A0008C0100081C00000043000000F8FFFFFF15
:1052B0000C0000000E0000000F0000002E00000097
:1052C0001001000043000000F8FFFFFF00404040D5
:1052D00040404040404041414141414040404040C9
:1052E0004040404040404040404040404005020275
:1052F0000202020202020202020202020220202034
:10530000202020202020200202020202020290908F
:10531000909090901010101010101010101010108D
:1053200010101010101010100202020202028888E1
:1053300088888888080808080808080808080808ED
:1053400008080808080808080202020240000000D5
:10535000000000000000000000000000000000004D
:10536000000000000000000000000000000000003D
:10537000000000000000000000000000000000002D
:10538000000000000000000000000000000000001D
:10539000000000000000000000000000000000000D
:1053A00000000000000000000000000000000000FD
:1053B00000000000000000000000000000000000ED
:1053C00000000000000000000000000000000000DD
:1053D00012000120050102030404500E060708090B
:1053E0000204060800A24A04000161186110700559
:1053F000000C01400412100412380450064800400A
:105400000008106108012301500B7E81A58181BD38
:105410009981817E105009FFDBFFFFC3E7FFFF107A
:10542000100500006CFE0160047C381010A0041010
:10543000387C0F700A183C3CE7E7E718183C10125C
:105440007E3D8110412342185E32FF0123E7C36194
:10545000210A316180073C664242663C205007C306
:1054600099BDBD99C32010071E0E1A3278CC014297
:10547000788E133C6601133C1861419E10053F3342
:105480003F3001400470F0E06210057F637F6301EC
:10549000500567E7E6C07D500718DB3CE73CDB3092
:1054A000340C80C0E0F0F8FEF8F0E0C0804C700CE6
:1054B00002060E1E3EFE3E1E0E0602BF60051818B6
:1054C000187EB143006601110851602006DBDBDB6A
:1054D0007B1B01353F940D7CC660386CC6C66C38AA
:1054E0000CC67C562533D150A27E602101619F31CC
:1054F000018171111380040CFE0C0EA40800003011
:1055000060FE6030B49005C0C0C0FE208406286CE8
:10551000FE6C286E80071038387C7CFE2115BD8714
:105520007C38BFD90015BF223C8D5520155DCA249B
:1055300021126C5E3104454D640B7CC6C2C07C06F2
:105540000686C67C824409C2C60C183060C686A096
:105550001407386C6C3876DCB04276BCB00430305E
:105560006070112C310153180CDD33180C018218B6
:10557000E2A006663CFF3C66A385EE9114913103E0
:105580001100FED87550230206A055F011A0240585
:10559000C6C6D6D6B2599C573878824D1003437C84
:1055A000C62F73C6FE106406063C060606DF10070B
:1055B0000C1C3C6CCCFEB1561E5E158D92FC20136B
:1055C00038601012C601511012FE4041F4616011A2
:1055D0001B9120210C127E60B30C78BA91F151100E
:1055E000652031CE15368E06C3033103653E311C6E
:1055F00021247170960CE031715006DEDEDEDCC0D5
:10560000B026101122FE91454B1AFCF12A7CF56E52
:10561000FC700312C2E25FC0C2A1034C0400F86C2C
:105620001203576CF800B00A6662687868606266B8
:10563000FE1090046060F0404006DEC6C6663A4048
:10564000251B316F51705E3C01036D40043A1E0E04
:105650008DF00312E66B1378787542E68033F060C4
:105660000171709006C6EEFEFED6508007C6E6F6C3
:10567000FEDECE10356C959031E08260A051207432
:1056800006D6DE7C0C0E0021E476E6B070056038AC
:105690000C0640B0047E7E5AB0D2C660510E6E6CCD
:1056A0002105315D6006D6D6FEEE6C201E6C8E03A1
:1056B000637C6CA04DCF0481502C04FEC6864F0342
:1056C0006AC2804E3C2F036F303060051DC2047CDF
:1056D0000470381CB0044E3C3F0364040C0C3CCEF8
:1056E0000D17EB054EFF6F03FD03067C04780C7C61
:1056F000B003240500E060606E152579601B7CC650
:10570000E469E0121C6A836CCC30395292FE202C82
:105710000536323078920579D02F0076BF053404F3
:10572000CC7C0CD3116084046C7666601D7B04AA6B
:10573000380030060606000E06013E6614061130DB
:1057400049015590DA3830191317ECFE6182D6F80A
:105750005EDCB30581A09D700371207A7C0361A09B
:105760006DD3038804DC7666C05DE4057DDF052427
:1057700005103030FC8F73361C7031DF95105901E5
:1057800091102901826C20A4046C3838A849336C2C
:10579000047E060C53032ECC50055D40061E0E9B66
:1057A000042E703006BE0E30067D4006211C2124DA
:1057B0004718706CFEDC0A053DE203614F1DB10421
:1057C000328201811023D6AA028110A007868A8A1C
:1057D000DAF2B2206005DEFAF6BA10CACC301D8AC1
:1057E00004B1101E385805B950894031A219A1C919
:1057F00030CAC6402150B120BB6600201E181A06D0
:10580000A1102180A1108EC6D104518F2DE1047DFD
:10581000E0041D58074DB1047D400429404C073673
:10582000367ED8D86E50081A3EDD26FED266CE3DB2
:10583000C940CAC65041B08110B8043078CC10219C
:10584000D0B92096C6F01D10037EC6A1044500CF36
:10585000C600B0042D7107453E4DA0073C05386CCD
:10586000646003055EE6A0054D0D096A7E101C0804
:10587000F8CCCCF8C4CCDEA1034DD0052F0E1B5DB7
:10588000081D82084AD8202D1806A5B02D7807B526
:10589000601120A1D02110B1C019619D6003110ECB
:1058A0007D71055DF005AC046C6C3E8F062D100813
:1058B0009E001B091D08071D1308AEC090033D4440
:1058C00007AEC03E092D01045DCE061C05E06266F0
:1058D0006C0F031EDC1605823E10400566CE9A3F13
:1058E000233DBB083DC50871739006366CD86C36F5
:1058F0004F110E4F6CD85B09C3114402C355AA0265
:10590000C3DD770202141801D2F80E71104236017D
:1059100052F6086186B2FE10E13073F60630E101FE
:10592000550FC1207FF606CD0351709EFE17093139
:1059300090DDFA05C1B0B00418181F30EC04181837
:10594000FF2A06E130CD7404E300FF40D12ED61FBC
:1059500010B237C0BC0437303F620AC33F3020C3A7
:10596000F70090D004FF00F740B6372082FF905137
:1059700040713051DEC120E3363660E2FFE0D59061
:10598000B63F60861F403D800BF61F20D23F40C2CD
:10599000FF90D530F618B07540D2FF01AE00470D2C
:1059A0001111D2F001D20F01C1376D90075C06DCF6
:1059B000D8D8D8DC90042D5C0D1FD8CCA5086ECCAF
:1059C00080082DEE07BD91032D000C4E6C000C2DB0
:1059D000A0081D610A9DA0062D330E114F5ED860F0
:1059E000048D330D1D60074D820DAF76DCB0066F60
:1059F0007E18C20D8D900B9EFE30073DAD062171C5
:105A00005EEE100A1D210C3E3E250981701D830D9E
:105A10008DF10A1303061053F37E6D2C06001C3023
:105A20006060E009DC04301C00010A9D2D0CAEFE14
:105A3000330C5D5F0C6DF00E5D3F0B71105D6F0BF5
:105A400061200C04120E1B1B1204A5011E18920BE0
:105A5000ADC00D1D25057D97073D0F050D19AD0C3A
:105A600061426DCD0D3E0F0F0B4005EC6C6C3CD0D0
:105A7000AE6C57043D3C0FCC050C18327ED20F4162
:105A8000010D1AF50F0EFF0110100DFF10100DFF84
:105A900010100DFF10100DFF10100DFF10100DFF56
:105AA00010100DFF10100DFF10100DFF10100DFF46
:105AB00010100DFF10100DFF10100DFF10100DFF36
:105AC00010100DFE10100D130A0E30AC090311005A
:105AD0001246173F185019031A78320029502C78B3
