:020000040800F2
:10000000A06400207D020008850200088702000825
:10001000890200088B0200088D0200080000000021
:100020000000000000000000000000008F02000837
:10003000910200080000000093020008B13500089A
:10004000970200089702000897020008970200082C
:100050009702000897020008C51F000897020008D1
:10006000970200089702000897020008970200080C
:1000700097020008970200089702000897020008FC
:1000800097020008970200089702000897020008EC
:1000900097020008970200089702000897020008DC
:1000A00097020008970200089702000897020008CC
:1000B00097020008970200089702000897020008BC
:1000C00097020008970200089702000897020008AC
:1000D0009702000821360008970200085D360008E4
:1000E00097020008970200089702000800F002F843
:1000F00000F0B4F80AA090E8000C82448344AAF10E
:100100000107DA4501D100F0A9F8AFF2090EBAE80B
:100110000F0013F0010F18BFFB1A43F0010318473B
:10012000B86F0000D86F000010F8013B0A4413F0CC
:10013000030408BF10F8014B1D1108BF10F8015B44
:10014000641E05D010F8016B641E01F8016BF9D133
:10015000002D15D010F8014B03F00C030C2BA1EB74
:1001600004040ABF10F8013BA4EB8314A4EB03249E
:1001700005F1010314F8016B5B1E01F8016BF9D561
:10018000914238BF10F8013BD1D3704700230024BF
:1001900000250026103A28BF78C1FBD8520728BF97
:1001A00030C148BF0B6070476E2900F0E5817029AF
:1001B00000F02783662906F0F786652906F0F486A5
:1001C000672906F0F186612906F0F08603681B0AAC
:1001D00028BF41F08001692900F09281642900F074
:1001E0008F81752900F08C816F2900F0B582782904
:1001F00000F0F382E92900F04F82E42900F04C82FC
:10020000F52900F04982EF2900F0B282F82900F0C8
:10021000F2820368DB0928BF41F08001632900F006
:10022000F387732900F0F887E32901F00380F329AD
:1002300001F00880002070471FB501F055F8040058
:100240000020002106F01CFE401C60600020002100
:1002500006F000FEE0601FBD10B510BD01F016F8FD
:100260001146FFF7E9FF04F0A5FB01F0EFF803B436
:10027000FFF7F2FF03BC01F037F90000094880479F
:1002800009480047FEE7FEE7FEE7FEE7FEE7FEE778
:10029000FEE7FEE7FEE7FEE704480549054A064B90
:1002A00070470000C1350008ED000008A05E002086
:1002B000A0640020A0600020A060002053EA020C8F
:1002C00000F069802DE9F04B4FF00006002B1FBFB6
:1002D000B3FA83F503FA05F424FA05F65E4012BF7B
:1002E0001643B2FA82F502FA05F4C5F120051EBFE5
:1002F00022FA05FC44EA0C04203556EA044C4FEA85
:10030000144418BF641C4FF000084FF000099042DD
:1003100071EB030C39D3002919BFB1FA81F701FA47
:1003200007F6B0FA80F700FA07F6C7F120071EBFFC
:1003300020FA07FC46EA0C062037B6FBF4FCA7EBD4
:100340000507103F07F01F0BCBF120060CFA0BFB43
:100350002CFA06F644BFB3460026202FA4BF5E4603
:100360004FF0000B5BEA060C08BF4FF0010B19EBD6
:100370000B09ABFB027C48EB0608C01B06FB02CC5A
:100380000BFB03CC71EB0C01C1E70B460246414667
:100390004846BDE8F08B13B54FF000004FF0000168
:1003A000AFF30080BDE81C40704700001CB50C4650
:1003B000064B7B4469460090204600F0F6F8044660
:1003C0000020694600F004F920461CBD1B02000015
:1003D00010B5203AC0F00B80B1E81850203AA0E8E0
:1003E0001850B1E81850A0E81850BFF4F5AF5FEA14
:1003F000027C24BFB1E81850A0E8185044BF18C9C7
:1004000018C0BDE810405FEA827C24BF51F8043B6D
:1004100040F8043B08BF7047D20728BF31F8023BC1
:1004200048BF11F8012B28BF20F8023B48BF00F855
:10043000012B704770477047704770B50446856957
:100440000068C10601D5302600E02026C00707D08D
:1004500070BDD4E9012130469047206A401C2062DB
:100460006D1EF6D570BD70B5044685690078C0076D
:1004700007D170BDD4E9012120209047206A401C9B
:1004800020626D1EF6D570BD09684A0501D540B2DF
:100490007047C905FCD500B2704709684A0501D507
:1004A000C0B27047C905FCD580B2704770B50C4624
:1004B0000546012A05D02878800600D5EA69002380
:1004C00002E0012305E05B1C934202D2E05C0028BD
:1004D000F9D1A869E618C01AA861286A18442862E8
:1004E0002846FFF7AAFF04E0D5E9012114F8010B23
:1004F0009047B442F8D32846FFF7B5FF70BD00001F
:100500002DE9F0410646002410687529314616A5EC
:1005100010D0FFF7B9FF002802DA404213A507E028
:1005200031688A0701D512A502E0490704D511A553
:10053000012401E0FFF7B1FF00210A2206F12407A0
:1005400009E0B0FBF2FCB0FBF2F302FB1C00303020
:1005500078541846491C0028F3D123462A463046D1
:10056000BDE8F04100F061BA000000002D0000007D
:100570002B0000002000000011680268006A53058B
:1005800001D508700AE0D30501D5088006E01306FE
:1005900003D5C217C1E9000200E0086001207047DE
:1005A00001694A1C02610878704700B58FB0CDE937
:1005B00001310021059105497944CDE90310114627
:1005C000684600F029F90FB000BD0000E5FFFFFF0D
:1005D0000A6802F8010B0A60704700002DE9FF5F0E
:1005E00015468A460446DFF8AC80F8440027D8E96F
:1005F00000103E46CDE9001010E03AF816106A46A9
:1006000002A800F023FE411C07D02178890603D5FB
:10061000E269391891420DD80744761C207880068B
:1006200002D5E069B84205DDAE42E6DB3AF81600D5
:100630000028E2D1A069C01BA0612046FFF7FDFEA3
:10064000D8E90010CDE90010002017E03AF81810A2
:100650006A4602A800F0FAFDB0F1FF3F81460BD0D8
:1006600000250DF1080B05E0D4E901211BF8050078
:1006700090476D1C4D45F7D308F10100B04280460C
:10068000E4DB206A384420622046FFF7ECFEBDE838
:10069000FF9F0000EE6900002DE9F0418046D21D69
:1006A00022F007020025D2E90002F52915A614D090
:1006B000011E72F1000106DA0023D0EB030063EBA8
:1006C000020211A608E0D8F800108B0701D50FA68A
:1006D00002E0490701D50EA601251146002408F1C4
:1006E000240704E000F05CF930323A55641C50EA0B
:1006F0000102F7D12B46324621464046BDE8F04183
:1007000000F093B9000000002D0000002B00000055
:100710002000000030B4002100F1240408E002F0C1
:100720000705D208303542EA4372DB086554491C9C
:1007300052EA0305F3D10468002310A2250708D567
:1007400004F020040C4304D0C46901230CA2641EED
:10075000C46130BC00F069B910B504462146106888
:10076000FFF79BFE02462046BDE810400023D1E77C
:10077000D21D22F00701D1E90023CBE700000000E1
:1007800030000000F0B40D460188090502D5214C67
:100790007C4402E01F4C7C440E34002100F124060E
:1007A00008E002F00F071209E75D42EA03721B0935
:1007B0007754491C52EA0307F3D102780023120749
:1007C00004D5702D06D009B1022311342246F0BCA5
:1007D00000F02BB901231034F8E770B504460D463C
:1007E00021461068FFF759FE024629462046BDE81B
:1007F00070400023C6E7D21D22F00703D3E900238F
:10080000C0E70368126843F0200303600823C36154
:100810000023B7E7506800002DE9F05F89460446E1
:100820004FF0000ADFF874B1FB44C0F820A0204666
:10083000E1688847002874D0252806D0D4E9012132
:100840009047206A401C2062F1E700265F46204660
:10085000E16888472028054607DB312D05D2781945
:1008600010F8200C08B10643F1E7B00701D526F0D7
:100870000406C4F81CA00027C4F818A02A2D09D02B
:10088000284603F06DF838B304EB8708303DC8F80C
:10089000185019E059F8041B204604EB87029161B7
:1008A000E1688847012F054618D1E069002820DA61
:1008B00026F020061DE0D8F8180000EB800005EBBC
:1008C00040003038C8F818002046E16888470546DF
:1008D00003F046F80028EED1012F0AD02E2D08D1C2
:1008E0002046E16888477F1C0546022F46F0200617
:1008F000C4DBA069002803DA404246F00106A0618B
:10090000F00701D026F010066C2D0BD0682D09D011
:100910004C2D39D06A2D35D0742D35D07A2D33D069
:1009200016E038E0E1682F4620468847B842054681
:1009300009D16C2F26D04FF48060E1680643204631
:100940008847054604E06C2F1AD04FF480700643A8
:100950000DB3A5F14100192802D8203546F40066F0
:100960004A462946204626604E46FFF71DFC80B1C8
:1009700001280BD0F61D26F0070000F1080956E704
:100980004020E4E78020D8E70020D6E706F10409FC
:100990004DE7284652E7206ABDE8F09FE067000077
:1009A00030B5B0F10A024FEA900E71F100034EEA41
:1009B000817EB0EB0E0061EB91014FEA101E4EEA12
:1009C000017E10EB0E0041EB11114FEA102E4EEAA2
:1009D000016E10EB0E0041EB11214FEA104E4EEA72
:1009E000014E10EB0E0041EB1141401841F10001A6
:1009F0004FEAD00040EA41704FEAD10110EB800588
:100A00004FEA810444EA907444EB01046D1944EB0D
:100A10000404521BA3414FF0000348BF0A3200D523
:100A200030BD401C41F1000130BD2DE9F0470D46BD
:100A300099469246044600F124080168880604D5C8
:100A4000E06921F01001216000E00120A84201DDF1
:100A5000471B00E00027A1697A1902EB0900081A78
:100A6000A0612078C00602D42046FFF7E6FC0026ED
:100A700008E0D4E901211AF806009047206A401CDA
:100A8000761C20624E45F4DB2078C0060AD520464D
:100A9000FFF7D3FC06E0D4E9012130209047206A1B
:100AA000401C2062381EA7F10107F4DC07E0D4E9FE
:100AB000012118F805009047206A401C2062281E7A
:100AC000A5F10105F3DC2046FFF7CDFC20780006F8
:100AD00002D50220BDE8F0870120FBE770472DE931
:100AE000FF4F0C461E464FF0FF378BB0D2E9000196
:100AF000DDF860800A908A46C1F30A5505B93D4683
:100B0000002108464FF00000BAF1000F00F4400049
:100B100005DA00EB80004FF4400101EA50004FEA93
:100B20009059B9F1010F00DDB9460A9850EA4A0020
:100B30000ED044F61050A5F2FF3545432F14B8F1FE
:100B4000000F1ED07542291E1EDDC9F100021CE0F7
:100B5000B8F1010F4FF0000001D0302103E0F24363
:100B600005E02154401CB042FBDB3046002200214E
:100B700021540B99C1F80880C1E900200FB0BDE8ED
:100B8000F08FBD1B6D1CDEE74A4600DA694206A8FD
:100B900000F0EEFB06AB93E8070003AB83E8070029
:100BA00050460A9900F0A7FC8DE80700A0F5005018
:100BB0001F3800900398002D09DD42F21F014A46BC
:100BC000084403A90390684600F006FF08E0A0F57A
:100BD00000504A461F3803A90390684600F010FFF2
:100BE0008DE807000004000C03D04FF0FF304108EF
:100BF00000E01046B8F1000F03D000220092154625
:100C00001EE0751E05D4FFF7CBFE303262556D1E17
:100C1000F9D5B3460122084302D000227F1C04E02C
:100C20002078302801D100227F1E002A099786D023
:100C30001DE0112D07DAFFF7B3FE303262556D1C4F
:100C400050EA0102F5D1084302D00098C8B10EE085
:100C50000021681E05E0235C625C63542254401E40
:100C6000491C8142F7DBAB46A81B401E09900020BF
:100C700004F80B000B98099AC0F80880C0E9002B13
:100C80007CE711264FF0000859E72DE9F04F884620
:100C90000446D21D22F0070191B0D1E90001CDE94F
:100CA0000A0102F049FE02460B98C00F01D02D2028
:100CB00007E02068810701D52B2002E0202101EA0E
:100CC000C000032A099001D0072A05DB03464146EC
:100CD000204600F00DFB0BE12078800601D5E0698D
:100CE00000E00620B8F1650F814606D0B8F1660F26
:100CF00018D0B8F1670F70D131E00020B9F1110FB1
:100D0000009001DB112301E009F101030AAA01A906
:100D10000CA8FFF7E4FEDDE90C70002609F10105DF
:100D2000834647E001204B4600904FF000470AAA57
:100D300001A90CA8FFF7D3FEDDE90DB00C995D46C3
:100D4000002610B909F101000D18B9EB050003D414
:100D5000C0F1FF3609F10105A5EB09002BE0B9F15F
:100D6000010F01DA4FF001090020B9F1110F0090D5
:100D7000484601DD112300E003460AAA01A90CA898
:100D8000FFF7ADFEDDE90C704D4600268346207866
:100D900000070AD4AB4500DA5D4601A8012D04DD49
:100DA000411911F8011C302907D04F4502DA17F11B
:100DB000040F04DA012082460FE06D1EEEE7002FDB
:100DC00002DCED1B3E4403E0781CA84200DD7D1CE4
:100DD000B81B00F1010A4FF000472078000703D448
:100DE000AA4501DB4FF0FF3A0021B7F1004F0DF1AA
:100DF00043088DF8431024D002202B23002F01DA62
:100E00007F422D230A21021EA0F1010000DC5FB108
:100E100097FBF1FC97FBF1F201FB1C7C17460CF1F0
:100E2000300C08F801CDEEE7A8F10100037021882D
:100E3000090501D5452100E06521A0F1010800F870
:100E4000011C09980FA9A1EB0807FF1D00B10120A3
:100E5000411901EBEA70A1693844081A401EA061EB
:100E60002078C00602D42046FFF7E7FA099828B197
:100E7000D4E901219047206A401C20622078C006F6
:100E800022D52046FFF7D9FA1EE0002E04DBB34539
:100E900002DD01A8805D00E03020D4E90121904707
:100EA000206A401C2062761CAAF101005FEA000A59
:100EB0000AD100F019FAC0680168405CD4E9012148
:100EC0009047206A401C2062281EA5F10105DCDC49
:100ED00007E0D4E9012118F8010B9047206A401C73
:100EE0002062381EA7F10107F3DC2046FFF7BBFAAA
:100EF000032011B043E600002DE9F04F04460D46F3
:100F0000D21D22F0070089B0D0E900974846394643
:100F100002F012FD0246F80F01D02D2307E02068F1
:100F2000810701D52B2302E0202101EAC0038DF8BF
:100F300020300BB1012000E00020032A824601D0BE
:100F4000072A04DB2946204600F0D2F93FE1207849
:100F5000800601D40D2500E0E569C7F30A560D2D82
:100F600049DA00214FEA175B08464FF00000002FD6
:100F700000F4400007DA00EB80004FF4400100EB82
:100F8000D07001EA60008115012901DD4FF0FF31C9
:100F900000224FEA850CBCF1180F06D31346ACF1C2
:100FA00018004FF08052C24003E04FF4801323FA40
:100FB0000CF30CF10C0CBCF1200F04D3ACF1200CA1
:100FC00009FA0CF001E007FA0CF000294FF0004894
:100FD00001DD18B90FE00ED140450CD319EB020921
:100FE0005F4121B9404502D19F4329EA0209BBEB89
:100FF000175F00D0761C2088000502D57B48784416
:1010000002E07A487844193808AA302302F80A30F6
:10101000037C0AF10101002E0AF1020A53546A46C8
:1010200002DC4FF0300101E04FF031014FF00108D8
:101030008DF8001002D0A6F2FF3603E059EA47010E
:1010400000D06B4E002D02DC2178090704D54FF04B
:1010500002082E218DF80110C44600210BE0C7F3D1
:1010600003433F01C35C491C6D1E02F8083005298B
:1010700008F1010801DA002DF1DC00210CE000EBA1
:101080001973491C1B786D1E082902F808304FEAB5
:10109000091908F1010801DA002DF0DC21688B063E
:1010A00002D516E0A8F10108E04505DD02EB0803D2
:1010B00013F8013C302BF5D0B8F1000F09DD02EB3D
:1010C000080313F8013C2E2B03D1090701D4A8F122
:1010D0000108002D05DD3E2102F808106D1E08F103
:1010E0000108407C002E02F8080008F1010804DA2B
:1010F0002D20764202F8080002E02B2002F80800BA
:101100000A214FF47A70864208F101080BDB96FB46
:10111000F0F3303302F8083096FBF0F308F10108E1
:1011200000FB136601E0642E0CDB642096FBF0F3F9
:10113000303302F8083096FBF0F308F1010800FBA9
:10114000136601E00A2E06DB96FBF1F0303002F860
:10115000080008F1010896FBF1F001FB1060303047
:1011600002F80800A16908F1010808EB050202EB8A
:101170000A00081AA0612078C00602D42046FFF7B2
:101180005CF9216A08AE01EB0A00206204E0D4E9B0
:10119000012116F8010B9047BAF1010AF7D2207825
:1011A000C00602D52046FFF748F96E4609E016F85A
:1011B000010B3E280FD0D4E901219047206A401C42
:1011C0002062B8F10108F2D22046FFF74CF909B0CD
:1011D0000320BDE8F08F206A2844206203E0D4E9B0
:1011E0000121302090476D1EEBD3F8E72E60000000
:1011F00002FCFFFF10B5436913B1AFF3008001E0BB
:10120000FFF754F9012010BD127800F124010A7093
:1012100000224A700122EDE711684FF0FF32E9E742
:1012200010B5436913B1AFF3008001E0FFF7D6F9C1
:10123000012010BD128800F1240182840022C284A2
:101240000122EDE711684FF0FF32E9E770B516466D
:101250000C46054600F040F8036893F801010128A8
:1012600006D0FF2C0FD8185D68B101202C7070BD1E
:10127000D3F807013246214603F2071303442846F8
:10128000BDE8704018474FF0FF3070BD754600F064
:10129000E7F8AE4605006946534620F0070085464C
:1012A00018B020B5FEF7F8FFBDE820404FF000066B
:1012B0004FF000074FF000084FF0000B21F007013E
:1012C000AC46ACE8C009ACE8C009ACE8C009ACE881
:1012D000C0098D467047000010B500F005F8001DEC
:1012E00010BD00BF9D5B0000004870475C5E0020A1
:1012F0002DE9F0411F46044603260168072A01F440
:10130000006004DB08B116A505E016A503E008B1EE
:1013100015A500E015A521F010002060A069C01EF1
:10132000A0610FB1401EA0612046FFF786F84FB1C3
:10133000D4E9012138469047206A401C2062C01C35
:10134000206206E0206AFAE7D4E9012115F8010BD2
:101350009047761EF8D22046FFF785F8BDE8F08169
:101360004E414E006E616E00494E4600696E660049
:101370002DE9F047814616468AB0334878440DC8B7
:101380008DE80D0030487844801C03AC0DC884E81B
:101390000D0041F69B300844372190FBF1F290FBA1
:1013A000F1F5A5F1800501FB12041B3C02D5644256
:1013B000012000E00020DFF890A080460027FA44DA
:1013C000AAF1BE0A0DE0E00709D03246684607EBF5
:1013D00047010AEB810100F013FB8DE80700641060
:1013E0007F1C002CEFD1184F7F44AC3F18E0E8077A
:1013F00014D007EB04100DF1180A90E80E008AE8EB
:101400000E00C068F04201D198190890324606A932
:1014100003A800F0F5FA03AB83E807006D10641C25
:10142000002DE4D132466946B8F1000F03A802D07E
:1014300000F0D2FA01E000F0E3FAC9E90001C9F8CE
:1014400008200AB0BDE8F087405D000010B50446F2
:10145000AFF300802046BDE81040FEF708BF000053
:10146000004870473C5E00204FF0013C50F8042BD0
:1014700051F8043B9A4221D1A2EB0C03934313EAA7
:10148000CC1317D150F8042B51F8043B9A4215D1D4
:10149000A2EB0C03934313EACC130BD150F8042BAB
:1014A00051F8043B9A4209D1A2EB0C03934313EA8F
:1014B000CC13DBD04FF00000704700BFD01A01BA48
:1014C000B1FA81F101F0180122FA01F0CB40C1F12B
:1014D0002001DBB2C0B2C01A2CFA01F3D11A914339
:1014E00011EAC311E6D1704701491820ABBEFEE7EF
:1014F0002600020070475FEA400C08BF91F0000F21
:101500004FEA8C234FEAC12243EA51514FEA1C5063
:1015100018BF00F5F0404FEA300018BF41F000411D
:101520005FEA6C5C00F02980BCF1FF3F08BF40F02F
:1015300080407047130C06BF12044FF0100C4FF0A0
:10154000000C130E04BF12020CF1080C130F04BFA1
:1015500012010CF1040C930F04BF92000CF1020C69
:10156000D30F04BF52000CF1010C11464FF00002E2
:10157000A0F11F00A0EB0C00704711F0004F08BF56
:10158000704731F000413FF4D5AF0B0C06BF0904A2
:101590004FF0100C4FF0000C0B0E04BF09020CF1C1
:1015A000080C0B0F04BF09010CF1040C8B0F04BFD6
:1015B00089000CF1020CCB0F04BF49000CF1010CA7
:1015C000CCF12003A0EB0C0022FA03F302FA0CF298
:1015D00041EA030100F10100704720F07F4C80EAEE
:1015E000030023F07F47ACEB070303F57C5300F0C7
:1015F000004003F1FF032DE980494FEA154B09B480
:101600004FEA144325EA0B4E24EA03480FF204265E
:1016100006EB132749083E785FEA320203FB0667B0
:10162000C7F5000707FB06F64FEA54374FEAD646E0
:1016300006F1020607FB066CCCF1005C4FEA1C4782
:101640002CEA074C07FB06F40CFB06F504EB1546E9
:101650004FEA961634BF00204FF000404FEAD137D2
:1016600006FB07FC4FEA1C4C0CFB0BF7D21B03FBE1
:101670000CF761EB07010CFB0EF7B0EB074072EBC8
:1016800017420CFB08F734BFA2EB0742B2EB07424C
:1016900061EB17414FEA0C444FEA910706FB07FC48
:1016A0004FEA1C4C0CFB0BF7B0EBC74072EB573208
:1016B00003FB0CF734BFA2EBC742B2EBC74261EBAE
:1016C00057310CFB0EF7B0EBC70072EB57720CFBF7
:1016D00008F734BFA2EBC702B2EBC70261EB577148
:1016E000039F4FEA816141EA921104EBCC044FEA77
:1016F000D1374FEA826206FB07FC42EA90124FEABA
:1017000080604FEA1C4C0CFB0BF7D21B03FB0CF761
:1017100061EB07010CFB0EF7B0EB074072EB1742D1
:101720000CFB08F734BFA2EB0742B2EB074261EBB8
:1017300017414FEA8C554FEA910704EB9C2406FBB6
:1017400007FC4FEA1C4C0CFB0BF7B0EBC74072EBED
:10175000573203FB0CF734BFA2EBC742B2EBC742D0
:1017600061EB57310CFB0EF7B0EBC70072EB577211
:101770000CFB08F734BFA2EBC702B2EBC70261EB68
:10178000577115EB4C254FEA816141EA92114FEAFE
:1017900082624FEAD13742EA901206FB07FC44F11D
:1017A00000044FEA80604FEA1C4C0CFB0BF7D21B85
:1017B00003FB0CF761EB07010CFB0EF7B0EB0740E6
:1017C00072EB17420CFB08F734BFA2EB0742B2EBF7
:1017D000074261EB174115EB1C154FEA813141EAD5
:1017E00092414FEA823242EA90424FEA80304FEA19
:1017F0000C7644F1000448EA03434EEA0B484FF0EC
:10180000000EB2EB080C71EB030724BF62463946A9
:101810004EEB0E0E4FF0000B0018524149414BEBBE
:101820000B0BB2EB080C71EB03077BF1000B24BF31
:10183000624639464EEB0E0E4FF0000B0018524137
:1018400049414BEB0B0BB2EB080C71EB03077BF13F
:10185000000B24BF624639464EEB0E0E51EA0207DA
:1018600018BF46F0010616EB0E7655F1000254F152
:10187000000103D5BDE88901BDE80088BDE8890104
:10188000BDE80048B619524141EB0101A3F1010343
:10189000704780807F7E7D7C7B7A797877767675DD
:1018A0007473727171706F6E6E6D6C6C6B6A6A6955
:1018B0006868676666656464636362616160605FEF
:1018C0005F5E5E5D5D5C5C5B5B5A5A595958585768
:1018D00057565655555554545353525252515150D0
:1018E00050504F4F4F4E4E4D4D4D4C4C4C4B4B4B23
:1018F0004A4A4A4949494848484747474746464669
:1019000045454544444444434343434242424241A3
:101910004141002B26D4770021D01CB54FEA370770
:1019200003B44FF010004FF010014FF000000FBC57
:10193000BDE810400BF1010BBBF1010F08BF5FEADE
:10194000170722BF12F1010211F101014FF000410E
:1019500043F1000300F0004043EA00007047F9D370
:101960005708DAE746EA064613F1400F4FEA1646F3
:101970001FDD13F1200FDFBF16430A46002120337D
:101980005B42C8D0C3F1200746EA064602FA07F7D1
:101990004FEA164646EA0706C3F1200722FA03F289
:1019A00001FA07F721FA03F14FF0000342EA0702B8
:1019B000B1E746EA020646EA06464FEA164646EA16
:1019C0000106BCBF46EA0646360C4FF000034FF056
:1019D00000024FF000019EE72DE9C048934630B465
:1019E00091E8380007C831EA400C48BF34EA430C9C
:1019F00003D5FFF7F2FDFFF78CFFF0BCBDE80088D0
:101A00002DE9C048934630B491E8380007C810F07B
:101A1000804F08BF13F0804F03D100F005F8FFF7A7
:101A200078FFF0BCBDE8008820F07F4780EA030023
:101A300023F07F4C07EB0C03A3F57C5300F0004030
:101A4000A3F1FE0392F0000F00F0B38095F0000FB9
:101A500000F077802DE901494FEA11404FEA144622
:101A600021EA004800FB06FC24EA064708FB06F6CC
:101A700007FB08F800FB07F718EB06484CEB164C81
:101A80004FEA124B18EB07484FEA15464CEB17404C
:101A900022EA0B4E0BFB06FC25EA06470EFB06F678
:101AA00007FB0EFE0BFB07F71EEB064E4CEB164C2E
:101AB0004FF000061EEB074E4CEB174B18EB0B08D4
:101AC00040F1000018EB0E0B58EB000840F100004D
:101AD0008F1A4FF000013CBFC943661B14BFB5EB22
:101AE000040C00213CBFC943F61B4FEA17444EEAE1
:101AF0008E0E27EA04454FEA1C4704FB07622CEAD6
:101B0000074C05FB07F70CFB05F604FB0CFC16EB7A
:101B1000074642EB174216EB0C4642EB1C421BEB0E
:101B2000060658EB0202414146EA9E0601D5BDE891
:101B30000189B619524141EB0101A3F10103BDE84E
:101B400001894FEA14454FEA114724EA054621EA84
:101B5000074C05FB07F406FB07F70CFB06F105FB3A
:101B60000CFC11EB074144EB17444FEA124711EB11
:101B70000C4144EB1C4422EA074C05FB07F206FB30
:101B800007F70CFB06F605FB0CFC16EB074642EBD1
:101B9000174216EB0C4642EB1C456A1854F1000143
:101BA00048BF7047B619524141EB0101A3F101034F
:101BB000704795F0000F37D04FEA11424FEA1447B3
:101BC00021EA024624EA074C02FB07F106FB07F76D
:101BD0000CFB06F402FB0CFC14EB074441EB174131
:101BE0004FEA154714EB0C4441EB1C4125EA074C26
:101BF00002FB07F506FB07F70CFB06F602FB0CFCE5
:101C000016EB074645EB174516EB0C4645EB1C4219
:101C1000121951F1000148BF7047B619524141EB0A
:101C20000101A3F1010370474FEA14454FEA114740
:101C300024EA054621EA074C05FB07F106FB07F7F6
:101C40000CFB06F24FF0000605FB0CFC12EB074202
:101C500041EB174112EB0C4251EB1C4148BF70475E
:101C6000921841EB0101A3F1010370471FB590B039
:101C70000446DDE9110102F00DFEC0B111A807C84C
:101C800006AB07C318221B496846FEF7A1FB19489B
:101C90000C380EC80AA803F022F90AA807C80DAB31
:101CA00007C315A20921002004F072F917E011A85A
:101CB00007C806AB07C3182211496846FEF788FB20
:101CC0000F480C380EC80AA803F009F90AA807C87B
:101CD0000DAB07C30BA20921002004F059F90DA98F
:101CE0004FF4805003F03FFC0DA807C884E80700BC
:101CF00014B010BDE85800205570706572000000E7
:101D00000C5900204C6F77657200000070B50025FB
:101D10004FF4803400E0641E24B1802000F048FEBF
:101D20000028F8D014B90325284670BD40F2FF50B2
:101D300000F002FE2846F8E7014600BF0748406B66
:101D400000F045000028F9D040F2FF50034A9063AC
:101D50001046406908221040C0B270470080014020
:101D600070B500251048446B01E00F48446B04F047
:101D700045000028F9D004F0040028B10325042010
:101D800000F0DAFD284670BD04F0010028B10125FD
:101D9000012000F0D1FD2846F5E740F2FF5000F0A9
:101DA000CBFD2846EFE700000080014070B500251C
:101DB0000B48446B01E00A48446B04F045000028DE
:101DC000F9D004F0040028B10325042000F0B4FD8C
:101DD000284670BD40F2FF5000F0AEFD2846F8E7FF
:101DE000008001402DE9F04106460F464FF0000803
:101DF0002248456B01E02148456B05F0450000286D
:101E0000F9D005F0040038B14FF00308042000F0C9
:101E100093FD4046BDE8F08105F0010030B14FF080
:101E20000108012000F088FD4046F3E700F0BAFD0C
:101E3000B04203D04FF010084046EBE740F2FF50AD
:101E400000F07AFD002000F0C7FD044604F4604075
:101E500018B9200C38804046DCE704F4005008B183
:101E60001320D7E704F4804008B11020D2E704F42F
:101E7000004008B10F20CDE74046CBE7008001408D
:101E800070B500264FF480350F48446B02E06D1E9C
:101E90000D48446B04F0450008B9002DF7D115B189
:101EA00004F0040028B10326042000F045FD30466C
:101EB00070BD04F0400028B10026402000F03CFD39
:101EC0003046F5E73046F3E70080014030B589B091
:101ED00004460D46039404950120059003F080FE0E
:101EE000684603A90EC9FFF7C1FE9DE8070006ABCF
:101EF00007C32148046045602049B1F900104FF044
:101F0000FF32079802FB001007901D48007848B97F
:101F10001C49069808600798486019480078401CDA
:101F200017490870174906980968401A069015491C
:101F300007984968401A07900698002801DA00209F
:101F400006900798002801DA00200790079A91B2BE
:101F5000069A90B203F08AFC0BA207210020069B90
:101F600004F016F80AA208210020079B04F010F8DC
:101F700004F040F909B030BDD05800208C2000207A
:101F8000982000206C590020783A25640000000059
:101F9000793A25640000000001460020002201F08B
:101FA000805313B1054B1A6801E0054B1A6802EA29
:101FB00001030BB1012000E0002070470004024043
:101FC0000000024010B5012000F032F8E8B10F48DF
:101FD000007868B920200E4948611020486101202E
:101FE0000A49087010200A4908612020086109E0A8
:101FF00006480078012805D11020054948610220D3
:1020000002490870012000F005F810BD7D20002075
:1020100000100140014908607047000014040140AD
:10202000024909680143014A1160704710040140E8
:10203000014600200022074B1B6803EA0102054B02
:1020400014331B680B4013B10AB1012000E00020DB
:102050007047000000040140002123498279002AD2
:102060003AD00A46126803689A430B461A600A1D62
:10207000126803689A430B1D1A60027911440A68BA
:1020800003681A430A60184A0832126803689A43C0
:10209000154B08331A601A1D126803689A43124BD5
:1020A0000C331A604279102A0ED11A1F1268036885
:1020B0001A430D4B08331A601A1D126803681A433D
:1020C000094B0C331A600DE00749427911440A6844
:1020D00003681A430A6005E0027911440A6803683C
:1020E0009A430A6070470000000401400149C8603B
:1020F000704700000020024030B5044604254FF42C
:10210000302000F06FF80546042D17D10C48006907
:1021100040F002000A49086108464461006940F045
:10212000400008614FF4302000F05CF80546044898
:10213000006941F6FD71084001490861284630BD3B
:102140000020024004200B49C96801F0010109B1D7
:1021500001200EE00749C96801F0040109B102201D
:1021600007E00449C96801F0100109B1032000E04B
:1021700004207047002002400348006940F08000BE
:1021800001490861704700000020024070B5044614
:102190000D460426F00200F025F80646042E11D163
:1021A0000948006940F00100074908612580F002F4
:1021B00000F018F806460448006941F6FE71084030
:1021C00001490861304670BD0020024002480349C1
:1021D000486003484860704723016745002002407B
:1021E000AB89EFCD00B502460423FFF7ABFF0346F2
:1021F00003E0FFF7A7FF0346521E012B01D1002A7F
:10220000F7D102B90523184600BD00002DE9FC41B5
:1022100007460D460026002400200090019008206B
:102220005D49086010204860402088600020C86038
:102230004FF480600861084600F0F8FB1020FFF7BB
:102240007BFD044614B12046BDE8FC81534800885C
:102250000004514908603720486040208860002011
:10226000C8604FF480600861084600F0DFFB37204B
:10227000FFF762FD04460CB12046E5E74FF0FF3062
:102280004749086008204860302088600220C86004
:102290000020086101204861084600F059FB002039
:1022A0003D49086033204860402088600020C860B5
:1022B0004FF480600861084600F0B8FB3320FFF758
:1022C0003BFD04460CB12046BEE70CE04FF4001085
:1022D00000F06EFB38B100F0A3FB4DF82600761C31
:1022E000012E00D906E02F48406B40F22A610840D9
:1022F0000028EBD000BF082000F05AFB28B10820CE
:1023000000F01AFB042420469EE7022000F050FB58
:1023100028B1022000F010FB0224204694E7202080
:1023200000F046FB28B1202000F006FB06242046E2
:102330008AE74FF4007000F03BFB30B14FF40070BF
:1023400000F0FAFA072420467EE740F2FF5000F042
:10235000F3FA00980006009901F47F4140EA012059
:10236000009901F47F0140EA1120009940EA1160D0
:10237000686001980006019901F47F4140EA01205C
:10238000019901F47F0140EA1120019940EA1160AE
:102390002860204658E70000105E002050310020E1
:1023A000245E00200080014008B50121302000F0AB
:1023B000BBF94FF4F850ADF8000003208DF802008F
:1023C00018208DF803006946094800F035F804200C
:1023D000ADF800006946074800F02EF80121880298
:1023E00000F082F90121022000F07EF908BD000012
:1023F000001001400014014030B500228B071C0F73
:102400000F2303FA04F20B4B8C1053F82430934340
:10241000084C8D1044F8253023468C1053F8243096
:102420008C07240F00FA04F42343024C8D1044F867
:10243000253030BD080001402DE9F041024600255D
:102440000026002000230024002791F803C00CF090
:102450000F0591F803C00CF0100CBCF1000F03D075
:1024600091F802C04CEA050591F800C0BCF1000FDC
:1024700031D0146800202BE04FF0010C0CFA00F36F
:10248000B1F800C00CEA03069E4220D183004FF051
:102490000F0C0CFA03F7BC4305FA03FC4CEA0404E6
:1024A00091F803C0BCF1280F06D14FF0010C0CFAD3
:1024B00000FCC2F814C00AE091F803C0BCF1480F58
:1024C00005D14FF0010C0CFA00FCC2F810C0401C02
:1024D0000828D1D31460B1F800C0BCF1FF0F34DD7F
:1024E000546800202EE000F1080C4FF0010808FAB3
:1024F0000CF3B1F800C00CEA03069E4221D1830020
:102500004FF00F0C0CFA03F7BC4305FA03FC4CEA3E
:10251000040491F803C0BCF1280F05D100F1080CA8
:1025200008FA0CF8C2F8148091F803C0BCF1480F07
:1025300007D100F1080C4FF0010808FA0CF8C2F8B6
:102540001080401C0828CED35460BDE8F081000004
:10255000F0B50A46002300240021002500F00046C3
:10256000B6F1004F02D11D4EF16901E01B4E7168BA
:10257000C0F3034583B200F44016B6F5401F08D1FE
:1025800021F07061154E766826F07066134F7E60FC
:1025900012E000F48016B6F5801F06D1032606FA75
:1025A00005F4A14341F0706106E0460D360103FADF
:1025B00006F6B14341F0706122B1460D360103FACF
:1025C00006F6314300F00046B6F1004F02D1034E4B
:1025D000F16101E0014E7160F0BD000000000140BA
:1025E0000246002093680B400BB1012000E0002060
:1025F0007047416170470161704708B54FF4C06092
:1026000000F050F831208DF8000000208DF8010016
:102610008DF8020001208DF80300684600F00AF8EA
:102620003B208DF8000000208DF80100684600F086
:1026300001F808BD70B5002100230F22C47804B34F
:10264000154C246804F4E064C4F5E064210AC1F187
:102650000403CA40447804FA03F184781440214307
:1026600009010E4C0678A155047804F01F050124D9
:10267000AC4005786D11AD0005F1E025C5F80041CD
:1026800009E0047804F01F050124AC40044D0678ED
:10269000761145F8264070BD0CED00E000E400E046
:1026A00080E100E002490143024A116070470000E6
:1026B0000000FA050CED00E0024A0A400243024B1A
:1026C0001A60704780FFFF1F08ED00E010B502F0B0
:1026D00005FD044A928891B2024A128890B2FFF72F
:1026E000F5FB10BDD058002029B1064A52690243BB
:1026F000044B5A6104E0034A52698243014B5A6118
:10270000704700000010024029B1064AD269024316
:10271000044BDA6104E0034AD2698243014BDA6177
:10272000704700000010024029B1064A9269024336
:10273000044B9A6104E0034A92698243014B9A6117
:10274000704700000010024030B500210022002434
:1027500000232D4D6D6805F00C0121B1042905D031
:10276000082923D105E0294D056022E0274D0560A9
:102770001FE0254D6D6805F47012234D6D6805F45A
:102780008034022505EB92421CB9214D554305606A
:102790000BE01D4D6D6805F400351DB11C4D554312
:1027A000056002E0194D5543056002E0174D0560D4
:1027B00000BF00BF144D6D6805F0F0010909154D0B
:1027C0006B5C0568DD4045600F4D6D6805F4E061A8
:1027D000090A104D6B5C4568DD4085600A4D6D68E7
:1027E00005F46051C90A0B4D6B5C4568DD40C5605E
:1027F000054D6D6805F44041890B074D6B5CC5685C
:10280000B5FBF3F5056130BD0010024000127A00FF
:1028100000093D0000000020100000207CB50546A6
:10282000002400200090019000F0D6F800F0007025
:1028300010B10E2420467CBD3D49098888B2694606
:10284000FFF7E4FC04460CB12046F4E7012D36D135
:10285000019800F4802000282ED03548008800041C
:102860003449086037204860402088600020C860F4
:10287000A8020861084600F0D9F83720FFF75CFA93
:1028800004460CB12046D6E702202A4908600620FB
:102890004860402088600020C8604FF48060086174
:1028A000084600F0C3F80620FFF746FA04460CB1CC
:1028B0002046C0E72046BEE725242046BBE7019816
:1028C00000F4803078B31A48008800041949086081
:1028D00037204860402088600020C8604FF4806046
:1028E0000861084600F0A2F83720FFF725FA0446F1
:1028F0000CB120469FE700200E4908600620486082
:10290000402088600020C8604FF48060086108465D
:1029100000F08CF80620FFF70FFA04460CB12046B1
:1029200089E7204687E7FFE72524204683E7000064
:1029300050310020105E002001498863704700007C
:10294000008001400149086070470000A00030424B
:1029500000210A4B02685A6242689A621A46D16A9A
:1029600021F0F701D0E902231A4303691A434369AE
:102970001A431143014AD1627047000000800140B0
:1029800000200649086048608860C8604862886224
:10299000C862034888630020C86370470080014014
:1029A000FF07C00001480069C0B2704700800140C5
:1029B00001460020034A526B0A400AB1012000E0A0
:1029C00000207047008001400248006800F00300CA
:1029D000704700000080014008B5014600200090CB
:1029E0000248084400900098006808BD1480014027
:1029F00000210A4A516847F6FF629143027D8368CD
:102A00001A4343681A43C3681A4303681A430369A5
:102A10001A431143014A5160704700000080014091
:102A20000148006870470000808001400021094B88
:102A300002689A601A46D1686FF30A01D0E901234F
:102A40001A43C3681A4303691A431143014AD16008
:102A500070470000008001400549096821F003012A
:102A6000034A116011460968014311607047000074
:102A70000080014010B50248FFF78EFA10BD00003B
:102A80000020001070B50446002521480068032886
:102A900002D12725284670BD1D48006838B11C4862
:102AA0000068012803D01A48006802282ED1B4F526
:102AB000805F02D127252846EDE7B4F5006F14D1D9
:102AC0000120FFF7ABFE054605BB04201149087540
:102AD00000200860486088604FF40060C8600020F3
:102AE00008610846FFF784FF10E00020FFF796FE1C
:102AF00005465DB904200749087500200860486054
:102B00008860C86008610846FFF772FF2846C2E780
:102B10004C310020F85D002030B501460020002235
:102B2000AC4B1B7881F84E30AB4B1B88A1F84C3076
:102B3000AA4B1B681A0E93090B70C2F383034B70E8
:102B400002F003038B70A54B1B68C3F30742CA70E6
:102B5000A24B1B88C3F307220A71A04B1A784A7153
:102B60005B681A0E1301CB809C4B5B68C3F3074272
:102B7000CB8843EA1213CB8002F00F030B72974B02
:102B80009B88C3F30722D3094B72C2F380138B7265
:102B9000C2F34013CB72C2F300130B7300234B73C9
:102BA0008C4B1B681BB18B4B1B68012B3CD19307D3
:102BB0001B0D0B61894B1A790B6943EA82030B6188
:102BC000864B9B681A0E0B6943EA92130B61C2F3A2
:102BD000C2030B7502F007034B75804B9B68C3F370
:102BE000074253098B75C2F38203CB7593075B0FC2
:102BF0000B767A4B1B89C3F307220B7E43EAD21371
:102C00000B760B695B1C4B640C7E4B6CA41C012582
:102C1000A5406B434B640C7A0123A3408B64D1E93C
:102C2000113463434B6421E06A4B1B68022B1DD1B6
:102C30006A4B1A7993069B0A0B61684B9B681A0EC4
:102C40000B6943EA02230B61644B9B68C3F30742A1
:102C50000B6913430B61614B1B89C3F307220B699B
:102C60005B1CDB044B644FF400738B64C2F3801372
:102C700001F8193F93065B0E4B70584B1A7A4B784C
:102C800043EAD2134B7002F07F038B70534BDB6827
:102C90001A0ED309CB70C2F341130B71C2F3820336
:102CA0004B7193071B0F8B714C4BDB68C3F30742CF
:102CB0008B7943EA92138B71C2F34013CB710023DB
:102CC0000B7202F001034B72444B9B89C3F3072242
:102CD000D3098B72C2F38013CB72C2F340130B7310
:102CE000C2F300134B73C2F381038B7302F003032F
:102CF000CB733A4B1A7B53080B7401234B74384B3C
:102D00001B681A0ECA741939354B1B68C3F3074286
:102D10001402CC85324B1B88C3F30722CB8D13439F
:102D2000CB852F4B1A7814060C635B681A0E0B6B5D
:102D300043EA02440C632A4B5B68C3F307420B6B04
:102D400043EA02240C63264B9B88C3F307220B6BD8
:102D500013430B63224B1A7934235A54204B9B683C
:102D60001A0E35235A541E4B9B68C3F307421406B0
:102D70008C631B4B1B89C3F307228B6B43EA024412
:102D80008C63174B1A7A8B6B43EA02248C63144BC7
:102D9000DB681A0E8B6B13438B63114BDB68C3F339
:102DA00007423C235B5C43EA12143C235C54130748
:102DB0001C0DCC870A4B9B89C3F30722CB8F13438F
:102DC000CB87074B1A7B540840235C5401244123D2
:102DD0005C5430BD4C310020503100207859002027
:102DE0008859002010B50024FFF7DEFAFFF705FC34
:102DF000FFF7C6FD00F0CEF804460CB1204610BD2A
:102E000000F02AF804460CB12046F8E704201049E7
:102E100008750020086048608860C860086108463E
:102E2000FFF7E6FD1CB90B48FFF776FE044634B900
:102E30000849B1F84C10080400F028FA044624B9F7
:102E40004FF40060FFF71EFE04462046D7E700005F
:102E5000F85D0020A859002038B50024012000901A
:102E6000FFF7B2FD10B92524204638BD444800685C
:102E7000042828D000204349086002204860C02070
:102E800088600020C8604FF4806008610846FFF742
:102E9000CDFDFEF765FF04460CB12046E5E70020B6
:102EA000FFF79AFD384908600420FFF795FD364981
:102EB00048600820FFF790FD334988600C20FFF739
:102EC0008BFD3149C8602E48006858B12C48006815
:102ED000012807D02A480068062803D0284800683F
:102EE000022816D1002027490860032048604020AE
:102EF00088600020C8604FF4806008610846FFF7D2
:102F000095FD69460320FEF76DFF04460CB120468F
:102F1000ABE71B48006804282ED0BDF800001B4911
:102F20000860BDF8000000041649086009204860E8
:102F3000C02088600020C8604FF4806008610846A7
:102F4000FFF774FDFEF70CFF04460CB120468CE73A
:102F50000020FFF741FD0E4908600420FFF73CFD0B
:102F60000B4948600820FFF737FD094988600C20AD
:102F7000FFF732FD0649C8600024204675E70000CF
:102F80004C310020105E0020885900205031002074
:102F9000785900202DE9F041002400260025002763
:102FA000A046B22059490875002008604860886032
:102FB000C86008610846FFF71BFD0320FFF74CFDC2
:102FC0000120FFF7BFFC002051490860486088607D
:102FD000C8604FF4806008610846FFF727FDFEF7E0
:102FE00095FE044614B12046BDE8F0814FF4D5703B
:102FF0004749086008204860402088600020C86079
:103000004FF4806008610846FFF710FDFEF738FFB7
:1030100004462CB901203F4908604FF0804812E077
:1030200000203B490860372048604020886000202D
:10303000C8604FF4806008610846FFF7F7FC37204E
:10304000FEF77AFE044600203149086037204860C8
:10305000402088600020C8604FF480600861084606
:10306000FFF7E4FC3720FEF767FE0446002C4AD148
:1030700036E00020264908603720486040208860FC
:103080000020C8604FF4806008610846FFF7CEFC5E
:103090003720FEF751FE04460CB12046A4E71E4837
:1030A00048EA00001A4908602920486040208860EA
:1030B0000020C8604FF4806008610846FFF7B6FC46
:1030C000FEF774FE04460CB120468DE70020FFF7A2
:1030D00083FC0646012080EAD67080F001076D1C53
:1030E0001FB94FF6FF708542C3D34FF6FF7085427C
:1030F00002D31B24204677E706F08040061E02D04C
:1031000002200449086020466EE70000F85D0020B8
:10311000105E00204C310020000010802DE9F047A7
:1031200081460D4616460027B8464C4600205049B9
:10313000087050490860504908605049C8625048BA
:103140000068022801D106026D0A4E480660102070
:103150004C494860402088600020C8604FF480607F
:1031600008610846FFF762FC1020FEF7E5FD074600
:1031700017B13846BDE8F0874FF0FF30424908608C
:1031800008464660902088600220C86000200861E0
:10319000012048610846FFF7DBFB3A480560112033
:1031A00038494860402088600020C8604FF4806043
:1031B00008610846FFF73AFC1120FEF7BDFD0746FF
:1031C0000FB13846D6E711E04FF40040FFF7F0FBAF
:1031D00060B14FF0000805E0FFF722FC44F828003A
:1031E00008F10108B8F1080FF6D320342348406BEA
:1031F00040F22A6108400028E6D00820FFF7D8FBFB
:1032000028B10820FFF798FB04273846B2E70220D0
:10321000FFF7CEFB28B10220FFF78EFB02273846CE
:10322000A8E72020FFF7C4FB28B12020FFF784FB8C
:10323000062738469EE74FF40070FFF7B9FB30B120
:103240004FF40070FFF778FB0727384692E703E05A
:10325000FFF7E6FB2060241D4FF40010FFF7A8FBEA
:103260000028F5D140F2FF50FFF766FB384681E7B2
:10327000583100205C310020543100200080014092
:103280004C310020105E0020245E002070B5044602
:1032900000250A48046007200849486040208860EB
:1032A0000020C8604FF4806008610846FFF7BEFB4D
:1032B0000720FEF741FD0546284670BD105E002040
:1032C00070B5002502F08CFC002405E0641C42F27D
:1032D0001070844200D109E0FFF7CCFB30B90848F8
:1032E000006818B9074800780028EFD000BF0548EB
:1032F000007810B10348007870BD2846FCE7000054
:103300005C310020583100202DE9F04106460027AD
:10331000B846002422E0601CC0F30800E8B9A4F21B
:10332000FF1081194FF400720F48FFF7F7FEFFF707
:10333000C7FF00250EE00C48475D07F00F0000F1C5
:103340004003402000EB171208A1002003F06AFCA4
:10335000681C85B2B5F5007FEDDB641CB4F5963FC3
:10336000D9D3BDE8F0810000F85B00202563256318
:103370000000000021B1028842F40052028004E003
:1033800002884DF6FF731A400280704721B102880F
:1033900042F04002028004E002884FF6BF731A40F8
:1033A000028070470246002013890B400BB10120B8
:1033B00000E000207047014688897047818170478E
:1033C00010B50022028802F441520B884C88234336
:1033D0008C882343CC8823430C8923434C89234383
:1033E0008C892343CC8923431A430280838B4FF279
:1033F000FF74234083830B8A038210BD21B182882E
:1034000042F00402828004E082884FF6FB731A4087
:103410008280704703488069034908600148C06999
:103420004860704770580020D058002010B500F058
:1034300001F810BD0CB500200190009033480068E1
:1034400040F480303149086000BF3048006800F423
:10345000003000900198401C0190009818B9019824
:10346000B0F5A06FF1D12948006800F4003010B128
:103470000120009001E0002000900098012843D135
:103480002348006840F010002149086008460068A1
:1034900020F0030008600846006840F00200086061
:1034A0001A4840681949486008464068486008461C
:1034B000406840F4806048600846406820F47C1012
:1034C00048600846406840F4E810486008460068D4
:1034D00040F08070086000BF0C48006800F0007089
:1034E0000028F9D00948406820F0030007494860E7
:1034F0000846406840F00200486000BF034840684A
:1035000000F00C000828F9D10CBD000000100240AA
:10351000002002402DE9F8430446002C01DA604205
:1035200000E020460446204603F0E0FC00901F49DE
:10353000009801EB50000090009803F0B7FC009059
:103540004FF4804084FB00700146DDF800C0624605
:1035500000233846FCF7B2FE009A821841F10000C1
:10356000551C40F10001022200232846FCF7A6FE6C
:1035700000904FF4804084FB00700146DDF800C0ED
:10358000624600233846FCF799FE009A821841F102
:103590000001551C41F10001022200232846FCF7DE
:1035A0008DFE00900098BDE8F883000000403B23AA
:1035B00002480068401C014908607047280000204C
:1035C00010B51348006840F0010011490860084632
:1035D0004068104908400E494860084600680E4996
:1035E00008400B4908600846006820F48020086005
:1035F0000846406820F4FE0048604FF41F008860D1
:10360000FFF714FF4FF000600449086010BD000090
:10361000001002400000FFF8FFFFF6FE08ED00E09A
:1036200010B540F225510A4800F05EF878B109481B
:10363000007838B1064800F013F9C4B206480168B2
:103640002046884740F22551014800F025F810BD7A
:1036500000380140600000205800002010B540F202
:1036600025510A4800F040F878B10948407838B14F
:10367000064800F0F5F8C4B206484168204688477D
:1036800040F22551014800F007F810BD0048004005
:10369000600000205800002010B50022002340F6F2
:1036A0006A14A14200D100BF0A1201249440A3B2BF
:1036B000DC43048010BD21B1828942F40052828132
:1036C00004E082894DF6FF731A40828170470246FA
:1036D0000020B1F5007F00D100BF13880B400BB173
:1036E000012000E00020704770B50246002400234E
:1036F0000025002040F66A16B14200D100BFC1F398
:10370000421501F01F03012606FA03F3012D02D131
:103710009689334006E0022D02D1168A334001E03B
:10372000968A33400C12012606FA04F416883440B7
:1037300013B10CB1012000E0002070BDF0B50346CC
:10374000002400260025002040F66A17B94200D167
:1037500000BF1846C1F3421401F01F06012707FA03
:1037600006F5012C01D10C3004E0022C01D11030FF
:1037700000E014301AB107682F43076002E00768C1
:10378000AF430760F0BD00002DE9F04786B0054665
:103790000E460024A24600BFA1460027B08900B112
:1037A00000BF2F462C8A4CF6FF700440F08804437B
:1037B0002C82AC894EF6F3100440B088318908435E
:1037C000718908430443AC81AC8A4FF6FF40044042
:1037D000B0890443AC8201A8FEF7B6FF1F488742B8
:1037E00002D1DDF810A001E0DDF80CA0A88900F4FA
:1037F000004040B10AEBCA0000EB0A1031684900F2
:10380000B0FBF1F807E00AEBCA0000EB0A103168E0
:103810008900B0FBF1F86420B8FBF0F00401200946
:10382000642101FB1089A88900F4004040B13220D6
:1038300000EBC900B0FBF1F000F00700044308E022
:10384000322000EB09106421B0FBF1F000F00F0012
:1038500004432C8106B0BDE8F08700000038014029
:1038600001468888C0F308007047C1F308028280CF
:103870007047000010B58AB000220B21032000F031
:103880006BFD00200DE000EB4001274A02EB8101B7
:1038900000EB4002254B03EB82041CCC1CC1411CF5
:1038A000C8B20428EFDB204AD2E90910D26ACDE978
:1038B000010200911C4818300EC804A803F030FA29
:1038C00004A807C807AB07C307A807C803F018FA7E
:1038D00040F2651148431649B1F9001090FBF1F030
:1038E00000B213490880104A183207CA8DE8070051
:1038F0000D480EC804A803F013FA04A807C807ABC4
:1039000007C307A807C803F0FBF9C0EBC0104000CD
:103910000849B1F9001090FBF1F000B205490880A8
:1039200000F06CFB0AB010BD70580020A0580020B9
:103930008A2000208C200020490050EAC12018BFB6
:1039400004204A0D18BF40F0010040F2FF72B2EBB4
:10395000515F08BF40F00200012808BF05207047F2
:1039600030380A2801D201207047002070471FB567
:10397000069C019940F82410E11C029A40F821208D
:10398000A11D039A40F821201FBD000008B50121A8
:103990000820FEF7C9FE03208DF8020048208DF8AC
:1039A0000300D020ADF8000069461648FEF744FD3C
:1039B00001211020FEF7B8FE03208DF802004820F8
:1039C0008DF803008020ADF8000069460E48FEF730
:1039D00033FD002012E00D4951F820100C4A42F846
:1039E00030100C4931F8101002EBC0029180012117
:1039F000074A02EBC0029171411CC8B20428EADBFD
:103A000008BD0000000C0140001001403000002003
:103A100060310020B06F00081FB5044634B1012C9E
:103A200004D0022C02D0002004B010BD204600F0CB
:103A3000ABF808B90020F7E701211D20FEF774FE5E
:103A400001214A48FEF784FD10208DF80F00032065
:103A50008DF80E004FF40040ADF80C0003A9444867
:103A6000FEF7EAFC4FF48050ADF80C0003A9404883
:103A7000FEF7E2FC0220ADF80C0003A93D48FEF77A
:103A8000DBFC2020ADF80C0003A93B48FEF7D4FC7A
:103A90001020ADF80C0003A93748FEF7CDFC4FF419
:103AA0007F40ADF80C0004208DF80F0003A93148C9
:103AB000FEF7C2FC0120ADF80C0003A92D48FEF76B
:103AC000BBFC4FF4C060FEF7EDFD06208DF808004A
:103AD00000208DF8090001208DF80A008DF80B00F8
:103AE00002A8FEF7A7FD00210120FEF785FC0120BA
:103AF000009000208DF804000C208DF805000120B6
:103B00008DF806006846FEF7A7FA0120FEF788FA4E
:103B10004FF400401649143108601020164908611E
:103B200000201649087016480470032015490860E3
:103B30004860012088604FF49F70C86003211148DD
:103B400001610121416103200E498861ED210D4889
:103B5000C161012101624FF49F700A494862ED2161
:103B6000084881620121C16201205DE70002300046
:103B700000080140000C0140001001407D200020A1
:103B80007C200020A05800207CB50546012104209F
:103B9000FEF7CAFD0320ADF804008DF806001420DE
:103BA0008DF8070001A91F48FEF746FC0020009091
:103BB0008621122001F024FE08B900207CBD0A22D3
:103BC0000121684601F01CFD08B90020F6E79DF8C8
:103BD0000000772801D00020F0E70B220121684681
:103BE00001F00EFD08B90020E8E79DF8000021284B
:103BF00001D00020E2E700240DE00B4A02EB440272
:103C00005178094A12F8140001F0FAFD08B90020B1
:103C1000D4E7601C84B2054800788442EDDB0120C3
:103C2000CCE70000000801409E2000204821002031
:103C30002DE9F0414621122001F0E2FD5B480078B9
:103C400040B900BF0020FFF7E7FE0028FAD00120AE
:103C5000564908705648007802287DD100BFC0023E
:103C600054490860022054490860091F0860C002D6
:103C70005049091F086002204F490860091F086069
:103C800000BF2B2002F096FD002002F0BBFD0120BA
:103C900002F0B8FD002002F0B5FD522002F0B2FDA6
:103CA0002A2002F087FD002002F0ACFD012002F086
:103CB000A9FD002002F0A6FD6B2002F0A3FD2C2040
:103CC00002F078FD002400F01BFD0746002565E0AA
:103CD00000265EE0032096FBF0F100FB1160002857
:103CE0004AD1032095FBF0F100FB1150002843D18D
:103CF00000BF00240220304908602F480C380068BB
:103D000000F47F440220091F0860091D08602A484A
:103D10000C380068C0F3072004430220091F086024
:103D200000BF26480078A8B1002011E000EB400158
:103D3000234A52F82110B14208D100EB400102EBB6
:103D400081014968A94201D14FF47844411CC8B2AD
:103D50000428EBDBF82100E026E001EAC401C4F30B
:103D6000022241EA020002F04DFD04F0E00141EAC6
:103D7000E42002F047FD0AE000BF02200E4908607F
:103D8000091F0860091D0860091F086000BF701C3A
:103D900086B2B6F5A07F9DDB681C85B2F02D97DB5F
:103DA00000200349087000BFBDE8F08149210020D0
:103DB0007D20002014080140140C014088200020C0
:103DC000A05800202DE9F04FADF21C4D01F018FE77
:103DD00001F006FF854AD2E90610126ACDE9010218
:103DE000009182480EC80AA802F09AFF0AA807C8E4
:103DF00002F086FF7E490988C90190FBF1F01FFAA5
:103E000080F97A4A0C3207CA8DE8070077480EC855
:103E100003A802F085FF03A807C80AAB07C30AA8D6
:103E200007C802F06DFF73490988C90190FBF1F0E2
:103E30001FFA80FA002009908046002558E00026ED
:103E400051E00696079501200890684B06A807C820
:103E500000F05CFCE8B32946304601F041FA8046A8
:103E60002946304601F064FAB8EB000002D54FF065
:103E7000000807E02946304601F05AFAA8EB000096
:103E800000F0FF08B8F1050F2BDB58484068281AEE
:103E900090FBF9F000EBC00101EB00100DA901EB64
:103EA000400052490968711A91FBFAF130F811008B
:103EB000401C4E494968691A91FBF9F101EBC102B6
:103EC00002EB01110DAA02EB4101484A1268B21A35
:103ED00000E004E092FBFAF221F8120001E04FF05A
:103EE0000008701C86B2B6F5A07FAADB681C85B2FC
:103EF000F02DA4DB00243E480078401E00F0FF0BAC
:103F000000275EE0FF25FF26002011E000EBC00146
:103F100001EB00110DAA02EB410131F817100F2936
:103F200004DDE94309B9054600E00646411CC8B274
:103F30002F4909888842E9DBE84300283FD0F04355
:103F400000B92E46701900EBD071BBEB610F1ADA85
:103F5000002D01DD681EC5B225480088401EB04214
:103F600001DD701CC6B200F0C3FB075500F0C4FBB6
:103F7000055500F0BDFB611C475400F0BDFB611C02
:103F80004654B34619E0002D01DD681EC5B218483D
:103F90000088401EB04201DD701CC6B200F0A8FBD4
:103FA000075500F0A9FB065500F0A2FB611C475421
:103FB00000F0A2FB611C4554AB46A01C84B2781CE7
:103FC000C7B20C48008887429CDB00F095FB054691
:103FD00000F08EFB06462246294601F067FC0020D1
:103FE000054908700DF21C4DBDE8F08F7058002097
:103FF0009C2000209A2000207D20002000B5BFB02A
:10400000A84841680069814204DAA6488088A64928
:10401000088003E0A348008AA3490880A148C16939
:10402000806A814204DD9F48808B9F49488003E07D
:104030009C48008D9C4948809A4800689949896944
:10404000884204DA974800889849088003E0954838
:10405000008B96490880934800699249496A8842D2
:1040600004DD904880899149488003E08D48808C28
:104070008E494880002000908A480EC82DA8FFF77E
:1040800076FC01200090874818300EC82DA8FFF755
:104090006EFC0220009083480C300EC82DA8FFF75C
:1040A00066FC00202A902B9001202C90002000908C
:1040B00036A82AA90EC9FFF75AFC7D48B0F90000BE
:1040C0002B900120009036A82AA90EC9FFF74FFCBB
:1040D0007848B0F900002A9000202B900220009030
:1040E00036A82AA90EC9FFF742FC182230A9684653
:1040F000FCF76EF90FA82DA90EC900F0E1FB2422F0
:104100000FA921A8FCF764F9182239A96846FCF721
:104110005FF90FA836A90EC900F0D2FB24220FA91F
:1041200018A8FCF755F9242221A906A8FCF750F994
:10413000182239A96846FCF74BF90FA836A90EC911
:1041400000F054FE24220FA95B48FCF741F94FF41C
:10415000805059490862242218A906A8FCF738F9AA
:10416000182230A96846FCF733F90FA82DA90EC90B
:1041700000F03CFE24220FA95048FCF729F94FF427
:1041800080504E49086200200090464824300EC8F6
:104190002DA8FFF7ECFB4648B0F900002B9000205B
:1041A000009036A82AA90EC9FFF7E1FB182230A912
:1041B0006846FCF70DF90FA82DA90EC900F080FB89
:1041C00024220FA921A8FCF703F9182239A968466F
:1041D000FCF7FEF80FA836A90EC900F071FB2422E7
:1041E0000FA918A8FCF7F4F8242221A906A8FCF7C7
:1041F000EFF8182239A96846FCF7EAF80FA836A9A3
:104200000EC900F0F3FD24220FA92D48FCF7E0F8B9
:104210004FF480502A490862242218A906A8FCF706
:10422000D7F8182230A96846FCF7D2F80FA82DA9B4
:104230000EC900F0DBFD24220FA92248FCF7C8F8C4
:104240004FF480501F4908621648C1690069081A76
:10425000000314498969134AD268891A90FBF1F066
:10426000194908600F488069096848430D49C969C0
:10427000C0EB0130154908600E48B0F9000040005D
:104280004FF4A07190FBF1F0114908800848B0F993
:10429000000040004FF48C7190FBF1F00D49088054
:1042A0003FB000BD705800208420002080200020F6
:1042B0008C2000208A200020DC5800202459002077
:1042C0000059002048590020902000209420002010
:1042D0009A2000209C2000203FB583B00446DDE9F1
:1042E0000B23DDE9050100F02FF800900C9B0A9AE2
:1042F0000699049800F028F840420190DDE90A236D
:10430000DDE9040100F020F802909DE8070084E850
:10431000070007B030BD000070B5044608480078BB
:1043200008B902F097FA0748056806E005480068F2
:10433000854202D003480568641E002CF6D170BD8A
:104340002C0000202800002010B5044604FB03F0D8
:1043500001FB120010BD00002DE9F74F8AB007469F
:1043600016464021122001F04BFA4FF000080020C1
:1043700001F066FA00F0C4F9804600BF00F0C0F911
:1043800008F11E018842F9D301F036F80B9801F0CC
:1043900057FA00F0B5F9804600BF00F0B1F908F116
:1043A0001E018842F9D30020C449087000BFC348E9
:1043B00000780228FBD100BFC002C149086002207A
:1043C000C0490860091F0860C002BD49091F086094
:1043D0000220BC490860091F086000BF4FF00009B7
:1043E000012F6FD1002469E0002562E0EA1705EB98
:1043F00092729210A5EB8202002A4DD1E21704EBD3
:1044000092729210A4EB8202002A45D100BF0220D2
:10441000AC490860AB480C380068C0F3072902209B
:10442000091F0860091D0860091F086000BFE21726
:1044300004EB9272921002EB8202A34B03EB021286
:10444000EB1705EB93739B10D25CA9EB02028C2A4D
:104450002DDD002001F0F4F9052E08D19B48056000
:1044600044600120994988600DB0BDE8F08F06EBEB
:104470004600974941F8205006EB460001EB8000CA
:104480004460012006EB4601914A02EB81018860FD
:1044900000F036F98046E7E700BF0220894908604E
:1044A000091F0860091D0860091F086000BF681C1B
:1044B00085B2B5F5A07F99DB601C84B2F02C93DB4C
:1044C000FAE0FFE7032FFBD14FF0000A0024EFE0F2
:1044D0000025E7E0EA1705EB92729210A5EB820245
:1044E000002A73D1E21704EB92729210A4EB8202BD
:1044F000002A6BD100BF02207249086071480C3855
:104500000068C0F307290220091F0860091D086020
:10451000091F086000BFE21704EB9272921002EBD1
:104520008202694B03EB0212EB1705EB93739B10AE
:10453000D25CA9EB02028C2A53DDBAF1000F09D13B
:104540006448056044600120624988600AF1010006
:1045500000F0FF0A4FF0000B34E0079508940120AB
:10456000099007A807C88DE807000BEB4B005949D5
:1045700001EB800C9CE80E0004A802F0D1FB04A81B
:1045800007C802F0C6FB642800DA1DE0AAF10100AA
:10459000584515D10AEB4A004E4941F820500AEB24
:1045A0004A0001EB8000446001200AEB4A01494ABD
:1045B00002EB810188600AF1010000F0FF0A03E0CC
:1045C0000BF1010BD345C8DB0BE0FFE700BF022076
:1045D0003C490860091F0860091D0860091F086040
:1045E00000BFBAF1030F5BD1002001F029F939486F
:1045F000C0683849896988420FDD364A0C3207CADB
:1046000007AB07C33348034618330ECB0C300EC03C
:10461000183807A90EC918300EC02C492D4BD3E904
:1046200003205B69C1E901030A602A4A0C3207CA08
:104630008DE8070027480EC804A802F071FB04A803
:1046400007C807AB07C307A807C802F059FB00B2A9
:10465000214908801F4A183207CA8DE807001D4803
:104660000C300EC804A802F05BFB04A807C807AB17
:1046700007C307A807C802F043FB00B21749088028
:104680001348144BD3E903215B69C0E90713826126
:1046900000BF00F035F808F11E018842F9D3E3E6C7
:1046A000681C85B2B5F5A07FFFF614AF601C84B21C
:1046B000F02CFFF60DAF00BF00BFD5E67D20002037
:1046C00014080140140C01408C450020D0580020F3
:1046D000705800204C5800208C2000208A20002098
:1046E0000248007800F02000704700006B000020B6
:1046F000004870478C31002000487047803300200C
:104700000148006870470000280000201FB58FB0E6
:104710001C4694E807008DE8070003A8D4E90723A6
:10472000A16902F0FDFA03A807C80CAB07C394E81F
:1047300007008DE8070003A80FA90EC902F0F0FAE0
:1047400003A807C809AB07C309A807C88DE8070075
:1047500003A80CA90EC9FFF7BFFD03A807C806AB45
:1047600007C30898002802DB002013B010BDD4E96D
:104770000402E168CDE90102009103A894E80E006B
:1047800002F0CEFA03A807C80CAB07C3D4E90412A1
:10479000E0688DE8070003A80FA90EC902F0C0FA6F
:1047A00003A807C809AB07C309A807C88DE8070015
:1047B00003A80CA90EC9FFF78FFD03A807C806AB15
:1047C00007C30898002801DB0020CEE7D4E90702E0
:1047D000A169CDE90102009103A8D4E90A23616A25
:1047E00002F09EFA03A807C80CAB07C3D4E907027E
:1047F000A169CDE90102009103A80FA90EC902F039
:104800008FFA03A807C809AB07C309A807C88DE832
:10481000070003A80CA90EC9FFF75EFD03A807C88F
:1048200006AB07C30898002801DB00209DE7D4E908
:104830000A02616ACDE90102009103A8D4E90423C8
:10484000E16802F06DFA03A807C80CAB07C3D4E90E
:104850000A12606A8DE8070003A80FA90EC902F0CA
:104860005FFA03A807C809AB07C309A807C88DE802
:10487000070003A80CA90EC9FFF72EFD03A807C85F
:1048800006AB07C30898002801DB00206DE7012074
:104890006BE70000024608480068084B1B6803FBF2
:1048A000020042F210731844B0EB013F01D3012023
:1048B00070470020FCE7000094200020902000209A
:1048C0000FB470B598B00546142221A96846FBF7CD
:1048D0007FFD1DA80FC800F069FA044644B92422E0
:1048E0001DA92846FBF774FD18B070BC5DF814FBD9
:1048F000DDE92423DDE92101FFF726FD0F90259B4B
:10490000DDE922122098FFF71FFD40421090DDE9FB
:104910002323DDE92001FFF717FD1190DDE92423B2
:10492000DDE91E01FFF710FD40421290259B239AFE
:104930001F991D98FFF708FD1390DDE92323DDE99A
:104940001D01FFF701FD40421490DDE92123DDE95F
:104950001E01FFF7F9FC1590229BDDE91F121D983F
:10496000FFF7F2FC40421690DDE92023DDE91D014E
:10497000FFF7EAFC17900FA94FF4805000F0D7FD25
:104980000FA9204600F0AEFD182212A96846FBF7D9
:104990001FFD06A80FA90EC901F0A4FF242206A935
:1049A0000FA8FBF715FD24220FA92846FBF710FDE1
:1049B00000BF99E701F04EFF4FF4FC634FF6FF7222
:1049C0000021084601F080FAFEF7E0FFFEF70AFA40
:1049D0004FF4E131002001F0A5FFC949002002F0A9
:1049E00031F800BF0024FFF78BFE0646A14611E018
:1049F00001F0F6F8FFF784FE07463B46C1A200210E
:104A0000084601F0C5FAC0A20121002001F0C0FA59
:104A100001F0F0FBFFF774FE06F10A018842E7D9C6
:104A200001F0DEF8BCA20021084601F0B1FA01F065
:104A3000E1FB00BF0120FEF7EFFF0028FAD001F0F4
:104A4000CFF8B9A20021084601F0A2FA01F0D2FB8A
:104A5000002500BFA84601F0CDFB4FE101F0C0F8F2
:104A6000FFF74EFEB042F8D0FFF74AFE0646B9F116
:104A7000000F06D0B9F1010F6FD0B9F1020F50D17C
:104A8000C1E0002000F07CFC40B306E0FFF738FEF8
:104A900004F57A71884200D905E04021A748FDF766
:104AA0009FFD0028F2D000BF01F09AF8A4A20821CF
:104AB000002001F06DFA01F09DFB002707E079026C
:104AC000962201FB02F0FEF71FFC781C87B200F073
:104AD00081FCB842F3DC002002F0A8F9012000F0CC
:104AE0004FFC08B14FF00109022000F049FC30B33F
:104AF000B8F1000F16D1FFF703FE044601F070F87D
:104B000093A20921002001F043FA01F073FB06E0B3
:104B1000FFF7F6FD04F57A71884200D900E0F7E767
:104B200000BFDDE0FFF74EF901E0FDF7CFFDFFF735
:104B3000D7FD0028F9D100F053FC00F0DBFE032084
:104B400000F01EFC50B107E0032000F019FC08B192
:104B5000FEF760FCFDF7BAFDF6E70FE07FA2072144
:104B6000062001F015FA7FA20821052001F010FAB5
:104B70007EA20821002001F00BFAB1E0002000F035
:104B8000FFFB48B14FF0010800F030FC00F0D4F911
:104B90004FF0000900F0AEFE012000F0F1FB20B163
:104BA0004FF0020900F0A0FE0025022000F0E8FB13
:104BB00070B10F2000F044FEFFF7A2FD044600BFD5
:104BC000FFF79EFD1E38A042FAD3002000F038FE09
:104BD000032000F0D5FB08B14FF0000965A20621C3
:104BE000022001F0D5F965A20721002001F0D0F9DB
:104BF00064A20721062001F0CBF964A2082102205B
:104C000001F0C6F96CE0002000F0BAFB10B3FFF72A
:104C100077FD044614E0FFF773FD04F57A718842CE
:104C20000ED9681CC5B2042D09D14FF0010800F05F
:104C30005BFEFEF71FFE4FF0000900F05BFE05E093
:104C400040213E48FDF7CCFC0028E4D000BF2846B8
:104C500002F036F8012000F093FB10B1284602F074
:104C600021F8022000F08CFBB0B1FFF749FD0446AB
:104C700008E0FFF745FD04F57A71884202D94FF04C
:104C8000010905E010212D48FDF7AAFC0028F0D00D
:104C900000BF284602F024F8032000F071FB10B199
:104CA000284601F0F1FF3AA20621042001F070F934
:104CB00038A20721002001F06BF938A20721062055
:104CC00001F066F937A20821042001F061F92B46B2
:104CD0000CA20921002001F05BF901F08BFA00BF62
:104CE00000BF6420B6FBF0F100FB1160012805D184
:104CF000FEF79EFF01F07EFA00F072FFAEE60000C4
:104D0000696A0008256400004372797374616C203D
:104D100042726F6B656E000043616D657261206960
:104D20006E6974696E67200043616D657261206908
:104D30006E697420646F6E6500000000000C014015
:104D400055415254696E6720746F20504300000033
:104D5000506C6561736520696E697400494E4954F1
:104D600000000000434C45414E00000055415254A4
:104D7000000000004155544F000000004241434BE9
:104D80000000000055534552000000004C4544000F
:104D9000555000004C454654000000005249474819
:104DA00054000000444F574E000000000FB430B5CF
:104DB000DDE90A23DDE90701FFF7C6FA039900FBE5
:104DC00001F40B9BDDE908120698FFF7BDFA049980
:104DD00001FB1044DDE90923DDE90601FFF7B4FA20
:104DE000059901FB004030BC5DF814FB0FB410B511
:104DF0008AB0044616990D984843199A0E9901FBFA
:104E000002001C9A0F9901FB0200019017990D985E
:104E100048431A9A0E9901FB02001D9A0F9901FB53
:104E20000200029018990D9848431B9A0E9901FBB5
:104E300002001E9A0F9901FB020003901699109828
:104E40004843199A119901FB02001C9A129901FB1F
:104E5000020004901799109848431A9A119901FB7F
:104E600002001D9A129901FB0200059018991098F2
:104E700048431B9A119901FB02001E9A129901FBEB
:104E800002000690169913984843199A149901FB49
:104E900002001C9A159901FB0200079017991398BC
:104EA00048431A9A149901FB02001D9A159901FBB7
:104EB000020008901899139848431B9A149901FB13
:104EC00002001E9A159901FB02000990242201A9F3
:104ED0002046FBF77DFA0AB010BC5DF814FB0FB456
:104EE0000EB50E9A059951430F9B069A02FB0311CA
:104EF000109B079A02FB031100910E9A08995143E7
:104F00000F9B099A02FB0311109B0A9A02FB0311E3
:104F100001910E9A0B9951430F9B0C9A02FB0311BE
:104F2000109B0D9A02FB031102919DE80E0080E890
:104F30000E0003B05DF814FB00B589B040211220CB
:104F400000F05EFC00F086FC002208210120FFF743
:104F500003FA00F045FE4DA20921002001F018F8E7
:104F600001F048F900F07CFC00BFFFF7B9FB002816
:104F7000FBD000F035FA00220B210320FFF7ECF9FB
:104F800000F02EFE45A20921002001F001F801F0F9
:104F900031F900F065FC00BFFFF7A2FB0028FBD051
:104FA00000F01EFA032201210846FFF7D5F900F0B0
:104FB00017FE3EA20921002000F0EAFF01F01AF9D5
:104FC00000F04EFC00BFFFF78BFB0028FBD000F089
:104FD00007FA012204211046FFF7BEF900F000FE97
:104FE00036A20921002000F0D3FF01F003F900F000
:104FF00037FC364A183207CA8DE8070033480EC816
:1050000003A801F08DFE03A807C806AB07C306A8D6
:1050100007C801F075FEC0EBC01040002C49B1F983
:10502000001090FBF1F000B229490880274A243291
:1050300007CA8DE80700254818300EC803A801F0FC
:105040006FFE03A807C806AB07C306A807C801F090
:1050500057FE40F2651148431E49B1F9001090FB1C
:10506000F1F000B21B49088000BFFFF739FB0028B0
:10507000FBD000F0B5F94621122000F0C1FB002062
:1050800015490870FEF7BAFF09B000BD537461748A
:1050900065203420446F6E65000000005374617415
:1050A00065203120446F6E65000000005374617408
:1050B00065203220446F6E650000000053746174F7
:1050C00065203320446F6E6500000000705800209A
:1050D0008C2000208A2000207D20002070B54021F7
:1050E000122000F08DFB0024002000F0A9FBFFF748
:1050F00007FB044600BFFFF703FB04F11E018842D3
:10510000F9D300207149087000BF70480078022868
:10511000FBD100BFC0026E49086002206D490860E3
:10512000091F0860C0026A49091F08600220694916
:105130000860091F086000BF0022002047E000212E
:1051400040E0654B1B6814338B422EDD624B1B68BD
:10515000143B8B4229DA604B5B68143B834224DAB0
:105160005D4B5B68143383421FDD00BF0223594D42
:105170002B60584B0C3B1B68C3F3072202232D1FE7
:105180002B602D1D2B602D1F2B6000BF524B5B68C9
:10519000C31A143303EB8303504D05EB03154E4B39
:1051A0001B68CB1A1433EA540AE000BF0223494DAE
:1051B0002B602D1F2B602D1D2B602D1F2B6000BF22
:1051C0004B1C99B2B1F5A07FBBDB411C88B2F02823
:1051D000B5DB022000F034FBFFF792FA044600BF73
:1051E000FFF78EFA04F11E018842F9D300203749F7
:1051F000087000BF354800780228FBD100BFC0020C
:1052000033490860022033490860091F0860C00262
:105210002F49091F086002202E490860091F0860F5
:1052200000BF002200204DE0002146E02A4B1B6811
:1052300014338B4234DD284B1B68143B8B422FDA2E
:10524000254B5B68143B83422ADA234B5B6814339B
:10525000834225DD00BF02231E4D2B601D4B0C3BFE
:105260001B68C3F3072202232D1F2B602D1D2B600B
:105270002D1F2B6000BF184B5B68C31A143303EB60
:105280008303164D05EB0315134B1B68CB1A143320
:10529000EB5CD31A8C2B0EDD0F4B1960586070BD80
:1052A00000BF02230B4D2B602D1F2B602D1D2B608B
:1052B0002D1F2B6000BF4B1C99B2B1F5A07FB5DB51
:1052C000411C88B2F028AFDB00BFE8E77D2000205A
:1052D00014080140140C0140D05800208C450020D7
:1052E00010B50246062091FBF0F0C302062091FBA8
:1052F000F0F400FB141081B2104602EBD07464107D
:10530000A2EB440444B909484FF4A07404FB010023
:105310001044C05A001210BD04484FF4A07404FB9E
:1053200001001844104410F8010CF4E70090000844
:1053300010B50246062091FBF0F0C302062091FB57
:10534000F0F400FB141081B2104602EBD07464102C
:10535000A2EB440444B909484FF4A07404FB0100D3
:105360001044C05A001210BD04484FF4A07404FB4E
:1053700001001844104410F8010CF4E700D00108B3
:1053800010B50446124A02EBC4029188104A52F842
:105390003400FDF725F90E4901EBC40189798842F3
:1053A00013D00B4A02EBC4029188094A52F8340028
:1053B000FDF716F9064901EBC4018871044800EBBA
:1053C000C40081790120884310BD0020FCE7000063
:1053D0006031002001480088704700000010030879
:1053E00000200149087070476B000020002001492F
:1053F000087070478820002070B54021122000F00E
:10540000FFF900203349087000BF324800780228B5
:10541000FBD100BFC0023049086002202F4908605C
:10542000091F0860C0022C49091F086002202B498F
:105430000860091F086000BF0024002043E000212D
:105440003CE0CD1701EB9575AD10A1EB850545BB93
:10545000C51700EB9575AD10A0EB85050DBB00BF22
:1054600002221E4B1A601D4A0C3A1268C2F307242E
:1054700002221B1F1A601B1D1A601B1F1A6000BF2F
:105480000346C51700EB9575AD1005EB8505144E69
:1054900006EB05150A46CE1701EB9676B610AC550D
:1054A0000AE000BF02220D4B1A601B1F1A601B1D71
:1054B0001A601B1F1A6000BF4A1C91B2B1F5A07F91
:1054C000BFDB411C88B2F028B9DB0020014908701D
:1054D00070BD00007D20002014080140140C014024
:1054E0008C4500200A6892FBF0F20A604A6892FB41
:1054F000F0F24A608A6892FBF0F28A60CA6892FB16
:10550000F0F2CA600A6992FBF0F20A614A6992FB02
:10551000F0F24A618A6992FBF0F28A61CA6992FBF1
:10552000F0F2CA610A6A92FBF0F20A6270470A68F6
:1055300042430A604A6842434A608A6842438A603A
:10554000CA684243CA600A6942430A614A694243DF
:105550004A618A6942438A61CA694243CA610A6AE6
:1055600042430A6270470A6892FBF0F20A604A6896
:1055700092FBF0F24A608A6892FBF0F28A60704710
:1055800010B501210B48FDF734F800F015F80221A1
:105590000848FDF72EF800F00FF801210548FDF747
:1055A0002AF800F009F801210248FDF722F800F07E
:1055B00003F810BD000801404FF4C87001E0411E1F
:1055C00088B20028FBD1704710B501210B48FDF7C8
:1055D00010F8FFF7F1FF02210848FDF70CF8FFF77C
:1055E000EBFF01210548FDF706F8FFF7E5FF012174
:1055F0000248FCF7FEFFFFF7DFFF10BD0008014087
:1056000070B505460C46164600F08EF808B9002025
:1056100070BD422000F05CF800F0CCF818B900F042
:10562000ADF80020F4E7304600F052F800F0C2F880
:1056300000F0A4F800F078F808B90020E8E743206B
:1056400000F046F800F0B6F818B900F097F800201E
:10565000DEE70CE000F012F82870012C02D1FFF711
:10566000B3FF01E0FFF78CFF6D1C601E84B2002CBD
:10567000F0D100F083F80120CAE7000070B50825DA
:10568000002402211148FCF7B6FF14E06006040E66
:1056900001210E48FCF7ADFFFFF78EFF01210B48FB
:1056A000FCF7A9FFFFF788FF02210848FCF798FFE5
:1056B00008B144F00104281EA5F10101CDB2E5D1E5
:1056C00001210248FCF795FF204670BD000801400B
:1056D00070B5044608251BE001211248FCF789FF3C
:1056E000FFF76AFF04F0800020B102210D48FCF7AB
:1056F00082FF03E002210B48FCF77BFF6006040EEB
:10570000FFF75AFF01210748FCF775FFFFF754FF29
:10571000281EA5F10101CDB2DED101210148FCF71F
:1057200068FF70BD0008014010B502211248FCF767
:1057300062FF01211048FCF75EFFFFF73DFF0221E9
:105740000D48FCF74DFF08B9002010BD02210A48A2
:10575000FCF74FFFFFF730FF02210748FCF740FF3F
:1057600008B10020F1E702210348FCF742FFFFF7F0
:1057700023FF0120E9E700000008014010B50121E6
:105780000B48FCF736FFFFF717FF02210848FCF72C
:1057900030FFFFF711FF01210548FCF72CFFFFF751
:1057A0000BFF02210248FCF726FFFFF705FF10BDA3
:1057B0000008014010B501211048FCF71AFFFFF75F
:1057C000FBFE02210D48FCF716FFFFF7F5FE012155
:1057D0000A48FCF710FFFFF7EFFE02210748FCF72D
:1057E000FFFE28B101210548FCF703FF002010BD92
:1057F00001210248FCF7FDFE0120F8E70008014006
:1058000070B504460D46FFF78FFF08B9002070BD44
:105810004220FFF75DFFFFF7CDFF18B9FFF7AEFF9E
:105820000020F4E7E0B2FFF753FFFFF7C3FF28467D
:10583000FFF74EFFFFF7BEFFFFF7A0FF0120E6E7EF
:1058400070B50446B0252819C5B22946002001F0DC
:1058500005FA70BD10B59021002001F0FFF910BDD0
:1058600010B5E021002001F0F9F910BD70B5044633
:105870000D46A021002001F0F1F9C4F3C71100206A
:1058800001F0ECF904F07F01002001F0E7F9C5F325
:10589000C711002001F0E2F905F07F01002001F0BE
:1058A000DDF9A121002001F0D9F970BD2DE9F04109
:1058B00005460E461746F021002001F0CFF90024DE
:1058C0000AE0285D40F04001002001F0C7F9315D99
:1058D000002001F0C3F9641CBC42F2DBF12100207E
:1058E00001F0BCF9BDE8F081012001490870704762
:1058F000882000202DE9F04140211220FFF780FF91
:1059000000203B49087000266AE000BF3848007854
:105910000228FBD100BFC002364908600220364988
:105920000860091F0860C0023249091F0860022090
:1059300031490860091F086000BF0027002448E0C3
:10594000002535E000BF02202B4908602A480C38AA
:105950000068C0F307270220091F0860091D0860BE
:10596000091F086000BF76B9032097FBF0F00621FD
:1059700094FBF1F201FB124101EB810105EB811176
:105980001E4A505412E0032097FBF0F821462846A7
:10599000FFF7A6FC4044062194FBF1F201FB124103
:1059A00001EB810105EB8111144A5054681C85B24A
:1059B000B5F5A07FC6DB062094FBF0F100FB11409B
:1059C000052804D1601F81B20C4801F0BDF9601CAC
:1059D00084B2F02CB4DB002005490870701CC6B2FC
:1059E000032E92DB46211220FFF70AFFBDE8F0816B
:1059F0007D20002014080140140C01400C3E0020C2
:105A00002DE9F04140211220FFF7FAFE00203B492A
:105A1000087000266AE000BF384800780228FBD1F1
:105A200000BFC00236490860022036490860091FDD
:105A30000860C0023249091F08600220314908602D
:105A4000091F086000BF0027002448E0002535E05A
:105A500000BF02202B4908602A480C380068C0F3B8
:105A600007270220091F0860091D0860091F086038
:105A700000BF76B9032097FBF0F0062194FBF1F20A
:105A800001FB124101EB810105EB81111E4A5054CB
:105A900012E0032097FBF0F821462846FFF748FC68
:105AA0004044062194FBF1F201FB124101EB81011C
:105AB00005EB8111144A5054681C85B2B5F5A07FDE
:105AC000C6DB062094FBF0F100FB1140052804D151
:105AD000601F81B20C4801F06FF9601C84B2F02C99
